{
  "src/MockERC20.sol": {
    "MockERC20": {
      "abi": [
        {
          "inputs": [],
          "stateMutability": "nonpayable",
          "type": "constructor"
        },
        {
          "inputs": [
            {
              "internalType": "address",
              "name": "",
              "type": "address"
            },
            {
              "internalType": "address",
              "name": "",
              "type": "address"
            }
          ],
          "name": "allowance",
          "outputs": [
            {
              "internalType": "uint256",
              "name": "",
              "type": "uint256"
            }
          ],
          "stateMutability": "view",
          "type": "function"
        },
        {
          "inputs": [
            {
              "internalType": "address",
              "name": "spender",
              "type": "address"
            },
            {
              "internalType": "uint256",
              "name": "amount",
              "type": "uint256"
            }
          ],
          "name": "approve",
          "outputs": [
            {
              "internalType": "bool",
              "name": "",
              "type": "bool"
            }
          ],
          "stateMutability": "nonpayable",
          "type": "function"
        },
        {
          "inputs": [
            {
              "internalType": "address",
              "name": "",
              "type": "address"
            }
          ],
          "name": "balanceOf",
          "outputs": [
            {
              "internalType": "uint256",
              "name": "",
              "type": "uint256"
            }
          ],
          "stateMutability": "view",
          "type": "function"
        },
        {
          "inputs": [
            {
              "internalType": "address",
              "name": "to",
              "type": "address"
            },
            {
              "internalType": "uint256",
              "name": "amount",
              "type": "uint256"
            }
          ],
          "name": "transfer",
          "outputs": [
            {
              "internalType": "bool",
              "name": "",
              "type": "bool"
            }
          ],
          "stateMutability": "nonpayable",
          "type": "function"
        },
        {
          "inputs": [
            {
              "internalType": "address",
              "name": "from",
              "type": "address"
            },
            {
              "internalType": "address",
              "name": "to",
              "type": "address"
            },
            {
              "internalType": "uint256",
              "name": "amount",
              "type": "uint256"
            }
          ],
          "name": "transferFrom",
          "outputs": [
            {
              "internalType": "bool",
              "name": "",
              "type": "bool"
            }
          ],
          "stateMutability": "nonpayable",
          "type": "function"
        }
      ],
      "evm": {
        "bytecode": {
          "linkReferences": {},
          "object": "6080806040523461006057731111111111111111111111111111111111111111600090815260205269d3c21bcecceda10000007ff043c50fe795c69f30b8ff78b84032dc53a9d87ca283ae10a1dacfbb648e83ef5561030290816100668239f35b600080fdfe60806040818152600436101561001457600080fd5b600091823560e01c908163095ea7b31461013c5750806323b872dd1461010b57806370a08231146100d5578063a9059cbb146100a45763dd62ed3e1461005957600080fd5b346100a057806003193601126100a05780602092610075610185565b61007d6101a0565b6001600160a01b0391821683526001865283832091168252845220549051908152f35b5080fd5b50346100a057806003193601126100a0576020906100cc6100c3610185565b6024359061027e565b90519015158152f35b50346100a05760203660031901126100a05760209181906001600160a01b036100fc610185565b16815280845220549051908152f35b50346100a05760603660031901126100a0576020906100cc61012b610185565b6101336101a0565b604435916101e6565b919050346101815780600319360112610181579160209261015b610185565b33835260018086528284206001600160a01b039092168452908552912060243590558152f35b8280fd5b600435906001600160a01b038216820361019b57565b600080fd5b602435906001600160a01b038216820361019b57565b919082039182116101c357565b634e487b7160e01b600052601160045260246000fd5b919082018092116101c357565b919060018060a01b03809316906000938285526020916001835260409384872033885284528585882054106102755780875286845285858820541061027557918391879493600161026e98999552868520338652845286852061024a8a82546101b6565b9055845283835285842061025f8982546101b6565b905516825252209182546101d9565b9055600190565b50505050505090565b600090338252816020526040822080548481106102c4579161026e93916102a7866040956101b6565b90556001600160a01b0316815260208190522080549092906101d9565b50505090509056fea2646970667358221220651fecf338a8c4d79b40a8df4a3a5ded7b88ba07ef63cc9e2f994b7f0e1e874164736f6c63430008180033",
          "opcodes": "PUSH1 0x80 DUP1 PUSH1 0x40 MSTORE CALLVALUE PUSH2 0x60 JUMPI PUSH20 0x1111111111111111111111111111111111111111 PUSH1 0x0 SWAP1 DUP2 MSTORE PUSH1 0x20 MSTORE PUSH10 0xD3C21BCECCEDA1000000 PUSH32 0xF043C50FE795C69F30B8FF78B84032DC53A9D87CA283AE10A1DACFBB648E83EF SSTORE PUSH2 0x302 SWAP1 DUP2 PUSH2 0x66 DUP3 CODECOPY RETURN JUMPDEST PUSH1 0x0 DUP1 REVERT INVALID PUSH1 0x80 PUSH1 0x40 DUP2 DUP2 MSTORE PUSH1 0x4 CALLDATASIZE LT ISZERO PUSH2 0x14 JUMPI PUSH1 0x0 DUP1 REVERT JUMPDEST PUSH1 0x0 SWAP2 DUP3 CALLDATALOAD PUSH1 0xE0 SHR SWAP1 DUP2 PUSH4 0x95EA7B3 EQ PUSH2 0x13C JUMPI POP DUP1 PUSH4 0x23B872DD EQ PUSH2 0x10B JUMPI DUP1 PUSH4 0x70A08231 EQ PUSH2 0xD5 JUMPI DUP1 PUSH4 0xA9059CBB EQ PUSH2 0xA4 JUMPI PUSH4 0xDD62ED3E EQ PUSH2 0x59 JUMPI PUSH1 0x0 DUP1 REVERT JUMPDEST CALLVALUE PUSH2 0xA0 JUMPI DUP1 PUSH1 0x3 NOT CALLDATASIZE ADD SLT PUSH2 0xA0 JUMPI DUP1 PUSH1 0x20 SWAP3 PUSH2 0x75 PUSH2 0x185 JUMP JUMPDEST PUSH2 0x7D PUSH2 0x1A0 JUMP JUMPDEST PUSH1 0x1 PUSH1 0x1 PUSH1 0xA0 SHL SUB SWAP2 DUP3 AND DUP4 MSTORE PUSH1 0x1 DUP7 MSTORE DUP4 DUP4 KECCAK256 SWAP2 AND DUP3 MSTORE DUP5 MSTORE KECCAK256 SLOAD SWAP1 MLOAD SWAP1 DUP2 MSTORE RETURN JUMPDEST POP DUP1 REVERT JUMPDEST POP CALLVALUE PUSH2 0xA0 JUMPI DUP1 PUSH1 0x3 NOT CALLDATASIZE ADD SLT PUSH2 0xA0 JUMPI PUSH1 0x20 SWAP1 PUSH2 0xCC PUSH2 0xC3 PUSH2 0x185 JUMP JUMPDEST PUSH1 0x24 CALLDATALOAD SWAP1 PUSH2 0x27E JUMP JUMPDEST SWAP1 MLOAD SWAP1 ISZERO ISZERO DUP2 MSTORE RETURN JUMPDEST POP CALLVALUE PUSH2 0xA0 JUMPI PUSH1 0x20 CALLDATASIZE PUSH1 0x3 NOT ADD SLT PUSH2 0xA0 JUMPI PUSH1 0x20 SWAP2 DUP2 SWAP1 PUSH1 0x1 PUSH1 0x1 PUSH1 0xA0 SHL SUB PUSH2 0xFC PUSH2 0x185 JUMP JUMPDEST AND DUP2 MSTORE DUP1 DUP5 MSTORE KECCAK256 SLOAD SWAP1 MLOAD SWAP1 DUP2 MSTORE RETURN JUMPDEST POP CALLVALUE PUSH2 0xA0 JUMPI PUSH1 0x60 CALLDATASIZE PUSH1 0x3 NOT ADD SLT PUSH2 0xA0 JUMPI PUSH1 0x20 SWAP1 PUSH2 0xCC PUSH2 0x12B PUSH2 0x185 JUMP JUMPDEST PUSH2 0x133 PUSH2 0x1A0 JUMP JUMPDEST PUSH1 0x44 CALLDATALOAD SWAP2 PUSH2 0x1E6 JUMP JUMPDEST SWAP2 SWAP1 POP CALLVALUE PUSH2 0x181 JUMPI DUP1 PUSH1 0x3 NOT CALLDATASIZE ADD SLT PUSH2 0x181 JUMPI SWAP2 PUSH1 0x20 SWAP3 PUSH2 0x15B PUSH2 0x185 JUMP JUMPDEST CALLER DUP4 MSTORE PUSH1 0x1 DUP1 DUP7 MSTORE DUP3 DUP5 KECCAK256 PUSH1 0x1 PUSH1 0x1 PUSH1 0xA0 SHL SUB SWAP1 SWAP3 AND DUP5 MSTORE SWAP1 DUP6 MSTORE SWAP2 KECCAK256 PUSH1 0x24 CALLDATALOAD SWAP1 SSTORE DUP2 MSTORE RETURN JUMPDEST DUP3 DUP1 REVERT JUMPDEST PUSH1 0x4 CALLDATALOAD SWAP1 PUSH1 0x1 PUSH1 0x1 PUSH1 0xA0 SHL SUB DUP3 AND DUP3 SUB PUSH2 0x19B JUMPI JUMP JUMPDEST PUSH1 0x0 DUP1 REVERT JUMPDEST PUSH1 0x24 CALLDATALOAD SWAP1 PUSH1 0x1 PUSH1 0x1 PUSH1 0xA0 SHL SUB DUP3 AND DUP3 SUB PUSH2 0x19B JUMPI JUMP JUMPDEST SWAP2 SWAP1 DUP3 SUB SWAP2 DUP3 GT PUSH2 0x1C3 JUMPI JUMP JUMPDEST PUSH4 0x4E487B71 PUSH1 0xE0 SHL PUSH1 0x0 MSTORE PUSH1 0x11 PUSH1 0x4 MSTORE PUSH1 0x24 PUSH1 0x0 REVERT JUMPDEST SWAP2 SWAP1 DUP3 ADD DUP1 SWAP3 GT PUSH2 0x1C3 JUMPI JUMP JUMPDEST SWAP2 SWAP1 PUSH1 0x1 DUP1 PUSH1 0xA0 SHL SUB DUP1 SWAP4 AND SWAP1 PUSH1 0x0 SWAP4 DUP3 DUP6 MSTORE PUSH1 0x20 SWAP2 PUSH1 0x1 DUP4 MSTORE PUSH1 0x40 SWAP4 DUP5 DUP8 KECCAK256 CALLER DUP9 MSTORE DUP5 MSTORE DUP6 DUP6 DUP9 KECCAK256 SLOAD LT PUSH2 0x275 JUMPI DUP1 DUP8 MSTORE DUP7 DUP5 MSTORE DUP6 DUP6 DUP9 KECCAK256 SLOAD LT PUSH2 0x275 JUMPI SWAP2 DUP4 SWAP2 DUP8 SWAP5 SWAP4 PUSH1 0x1 PUSH2 0x26E SWAP9 SWAP10 SWAP6 MSTORE DUP7 DUP6 KECCAK256 CALLER DUP7 MSTORE DUP5 MSTORE DUP7 DUP6 KECCAK256 PUSH2 0x24A DUP11 DUP3 SLOAD PUSH2 0x1B6 JUMP JUMPDEST SWAP1 SSTORE DUP5 MSTORE DUP4 DUP4 MSTORE DUP6 DUP5 KECCAK256 PUSH2 0x25F DUP10 DUP3 SLOAD PUSH2 0x1B6 JUMP JUMPDEST SWAP1 SSTORE AND DUP3 MSTORE MSTORE KECCAK256 SWAP2 DUP3 SLOAD PUSH2 0x1D9 JUMP JUMPDEST SWAP1 SSTORE PUSH1 0x1 SWAP1 JUMP JUMPDEST POP POP POP POP POP POP SWAP1 JUMP JUMPDEST PUSH1 0x0 SWAP1 CALLER DUP3 MSTORE DUP2 PUSH1 0x20 MSTORE PUSH1 0x40 DUP3 KECCAK256 DUP1 SLOAD DUP5 DUP2 LT PUSH2 0x2C4 JUMPI SWAP2 PUSH2 0x26E SWAP4 SWAP2 PUSH2 0x2A7 DUP7 PUSH1 0x40 SWAP6 PUSH2 0x1B6 JUMP JUMPDEST SWAP1 SSTORE PUSH1 0x1 PUSH1 0x1 PUSH1 0xA0 SHL SUB AND DUP2 MSTORE PUSH1 0x20 DUP2 SWAP1 MSTORE KECCAK256 DUP1 SLOAD SWAP1 SWAP3 SWAP1 PUSH2 0x1D9 JUMP JUMPDEST POP POP POP SWAP1 POP SWAP1 JUMP INVALID LOG2 PUSH5 0x6970667358 0x22 SLT KECCAK256 PUSH6 0x1FECF338A8C4 0xD7 SWAP12 BLOCKHASH 0xA8 0xDF BLOBBASEFEE GASPRICE TSTORE 0xED PUSH28 0x88BA07EF63CC9E2F994B7F0E1E874164736F6C634300081800330000 "
        },
        "methodIdentifiers": {
          "allowance(address,address)": "dd62ed3e",
          "approve(address,uint256)": "095ea7b3",
          "balanceOf(address)": "70a08231",
          "transfer(address,uint256)": "a9059cbb",
          "transferFrom(address,address,uint256)": "23b872dd"
        }
      }
    }
  }
}