{
  "src/RavenTreasury.sol": {
    "RavenTreasury": {
      "abi": [
        {
          "inputs": [
            {
              "internalType": "address",
              "name": "_gnosisSafe",
              "type": "address"
            },
            {
              "internalType": "address",
              "name": "_usdc",
              "type": "address"
            },
            {
              "internalType": "address",
              "name": "_usdt",
              "type": "address"
            }
          ],
          "stateMutability": "nonpayable",
          "type": "constructor"
        },
        {
          "inputs": [],
          "name": "EnforcedPause",
          "type": "error"
        },
        {
          "inputs": [],
          "name": "ExpectedPause",
          "type": "error"
        },
        {
          "inputs": [
            {
              "internalType": "address",
              "name": "owner",
              "type": "address"
            }
          ],
          "name": "OwnableInvalidOwner",
          "type": "error"
        },
        {
          "inputs": [
            {
              "internalType": "address",
              "name": "account",
              "type": "address"
            }
          ],
          "name": "OwnableUnauthorizedAccount",
          "type": "error"
        },
        {
          "inputs": [],
          "name": "ReentrancyGuardReentrantCall",
          "type": "error"
        },
        {
          "inputs": [
            {
              "internalType": "address",
              "name": "token",
              "type": "address"
            }
          ],
          "name": "SafeERC20FailedOperation",
          "type": "error"
        },
        {
          "anonymous": false,
          "inputs": [
            {
              "indexed": true,
              "internalType": "address",
              "name": "to",
              "type": "address"
            },
            {
              "indexed": true,
              "internalType": "address",
              "name": "token",
              "type": "address"
            },
            {
              "indexed": false,
              "internalType": "uint256",
              "name": "amount",
              "type": "uint256"
            }
          ],
          "name": "FundsTransferred",
          "type": "event"
        },
        {
          "anonymous": false,
          "inputs": [
            {
              "indexed": true,
              "internalType": "address",
              "name": "gnosisSafe",
              "type": "address"
            }
          ],
          "name": "GnosisSafeSet",
          "type": "event"
        },
        {
          "anonymous": false,
          "inputs": [
            {
              "indexed": true,
              "internalType": "address",
              "name": "previousOwner",
              "type": "address"
            },
            {
              "indexed": true,
              "internalType": "address",
              "name": "newOwner",
              "type": "address"
            }
          ],
          "name": "OwnershipTransferred",
          "type": "event"
        },
        {
          "anonymous": false,
          "inputs": [
            {
              "indexed": false,
              "internalType": "address",
              "name": "account",
              "type": "address"
            }
          ],
          "name": "Paused",
          "type": "event"
        },
        {
          "anonymous": false,
          "inputs": [
            {
              "indexed": true,
              "internalType": "address",
              "name": "token",
              "type": "address"
            },
            {
              "indexed": true,
              "internalType": "address",
              "name": "spender",
              "type": "address"
            },
            {
              "indexed": false,
              "internalType": "uint256",
              "name": "amount",
              "type": "uint256"
            }
          ],
          "name": "SpendingApproved",
          "type": "event"
        },
        {
          "anonymous": false,
          "inputs": [
            {
              "indexed": true,
              "internalType": "uint256",
              "name": "proposalId",
              "type": "uint256"
            }
          ],
          "name": "TransferCancelled",
          "type": "event"
        },
        {
          "anonymous": false,
          "inputs": [
            {
              "indexed": true,
              "internalType": "uint256",
              "name": "proposalId",
              "type": "uint256"
            }
          ],
          "name": "TransferExecuted",
          "type": "event"
        },
        {
          "anonymous": false,
          "inputs": [
            {
              "indexed": true,
              "internalType": "uint256",
              "name": "proposalId",
              "type": "uint256"
            },
            {
              "indexed": true,
              "internalType": "address",
              "name": "to",
              "type": "address"
            },
            {
              "indexed": true,
              "internalType": "address",
              "name": "token",
              "type": "address"
            },
            {
              "indexed": false,
              "internalType": "uint256",
              "name": "amount",
              "type": "uint256"
            },
            {
              "indexed": false,
              "internalType": "uint256",
              "name": "deadline",
              "type": "uint256"
            }
          ],
          "name": "TransferProposed",
          "type": "event"
        },
        {
          "anonymous": false,
          "inputs": [
            {
              "indexed": false,
              "internalType": "address",
              "name": "account",
              "type": "address"
            }
          ],
          "name": "Unpaused",
          "type": "event"
        },
        {
          "stateMutability": "payable",
          "type": "fallback"
        },
        {
          "inputs": [],
          "name": "USDC",
          "outputs": [
            {
              "internalType": "contract IERC20",
              "name": "",
              "type": "address"
            }
          ],
          "stateMutability": "view",
          "type": "function"
        },
        {
          "inputs": [],
          "name": "USDT",
          "outputs": [
            {
              "internalType": "contract IERC20",
              "name": "",
              "type": "address"
            }
          ],
          "stateMutability": "view",
          "type": "function"
        },
        {
          "inputs": [
            {
              "internalType": "address",
              "name": "token",
              "type": "address"
            },
            {
              "internalType": "address",
              "name": "spender",
              "type": "address"
            },
            {
              "internalType": "uint256",
              "name": "amount",
              "type": "uint256"
            }
          ],
          "name": "approveSpending",
          "outputs": [],
          "stateMutability": "nonpayable",
          "type": "function"
        },
        {
          "inputs": [
            {
              "internalType": "uint256",
              "name": "proposalId",
              "type": "uint256"
            }
          ],
          "name": "cancelTransfer",
          "outputs": [],
          "stateMutability": "nonpayable",
          "type": "function"
        },
        {
          "inputs": [
            {
              "internalType": "uint256",
              "name": "proposalId",
              "type": "uint256"
            }
          ],
          "name": "executeTransfer",
          "outputs": [],
          "stateMutability": "nonpayable",
          "type": "function"
        },
        {
          "inputs": [],
          "name": "getGnosisOwners",
          "outputs": [
            {
              "internalType": "address[]",
              "name": "",
              "type": "address[]"
            }
          ],
          "stateMutability": "view",
          "type": "function"
        },
        {
          "inputs": [],
          "name": "getGnosisThreshold",
          "outputs": [
            {
              "internalType": "uint256",
              "name": "",
              "type": "uint256"
            }
          ],
          "stateMutability": "view",
          "type": "function"
        },
        {
          "inputs": [
            {
              "internalType": "uint256",
              "name": "proposalId",
              "type": "uint256"
            }
          ],
          "name": "getProposal",
          "outputs": [
            {
              "internalType": "address",
              "name": "to",
              "type": "address"
            },
            {
              "internalType": "address",
              "name": "token",
              "type": "address"
            },
            {
              "internalType": "uint256",
              "name": "amount",
              "type": "uint256"
            },
            {
              "internalType": "uint256",
              "name": "proposedAt",
              "type": "uint256"
            },
            {
              "internalType": "bool",
              "name": "executed",
              "type": "bool"
            },
            {
              "internalType": "bool",
              "name": "cancelled",
              "type": "bool"
            },
            {
              "internalType": "bool",
              "name": "isWindowActive",
              "type": "bool"
            },
            {
              "internalType": "uint256",
              "name": "timeRemaining",
              "type": "uint256"
            }
          ],
          "stateMutability": "view",
          "type": "function"
        },
        {
          "inputs": [
            {
              "internalType": "uint256",
              "name": "proposalId",
              "type": "uint256"
            }
          ],
          "name": "getProposalDeadline",
          "outputs": [
            {
              "internalType": "uint256",
              "name": "",
              "type": "uint256"
            }
          ],
          "stateMutability": "view",
          "type": "function"
        },
        {
          "inputs": [
            {
              "internalType": "address",
              "name": "token",
              "type": "address"
            }
          ],
          "name": "getTokenBalance",
          "outputs": [
            {
              "internalType": "uint256",
              "name": "",
              "type": "uint256"
            }
          ],
          "stateMutability": "view",
          "type": "function"
        },
        {
          "inputs": [],
          "name": "getUSDCBalance",
          "outputs": [
            {
              "internalType": "uint256",
              "name": "",
              "type": "uint256"
            }
          ],
          "stateMutability": "view",
          "type": "function"
        },
        {
          "inputs": [],
          "name": "getUSDTBalance",
          "outputs": [
            {
              "internalType": "uint256",
              "name": "",
              "type": "uint256"
            }
          ],
          "stateMutability": "view",
          "type": "function"
        },
        {
          "inputs": [],
          "name": "gnosisSafe",
          "outputs": [
            {
              "internalType": "contract IGnosisSafe",
              "name": "",
              "type": "address"
            }
          ],
          "stateMutability": "view",
          "type": "function"
        },
        {
          "inputs": [
            {
              "internalType": "address",
              "name": "owner",
              "type": "address"
            }
          ],
          "name": "isGnosisOwner",
          "outputs": [
            {
              "internalType": "bool",
              "name": "",
              "type": "bool"
            }
          ],
          "stateMutability": "view",
          "type": "function"
        },
        {
          "inputs": [
            {
              "internalType": "uint256",
              "name": "proposalId",
              "type": "uint256"
            }
          ],
          "name": "isProposalWindowActive",
          "outputs": [
            {
              "internalType": "bool",
              "name": "",
              "type": "bool"
            }
          ],
          "stateMutability": "view",
          "type": "function"
        },
        {
          "inputs": [],
          "name": "nextProposalId",
          "outputs": [
            {
              "internalType": "uint256",
              "name": "",
              "type": "uint256"
            }
          ],
          "stateMutability": "view",
          "type": "function"
        },
        {
          "inputs": [],
          "name": "owner",
          "outputs": [
            {
              "internalType": "address",
              "name": "",
              "type": "address"
            }
          ],
          "stateMutability": "view",
          "type": "function"
        },
        {
          "inputs": [],
          "name": "pause",
          "outputs": [],
          "stateMutability": "nonpayable",
          "type": "function"
        },
        {
          "inputs": [],
          "name": "paused",
          "outputs": [
            {
              "internalType": "bool",
              "name": "",
              "type": "bool"
            }
          ],
          "stateMutability": "view",
          "type": "function"
        },
        {
          "inputs": [
            {
              "internalType": "uint256",
              "name": "",
              "type": "uint256"
            }
          ],
          "name": "pendingTransfers",
          "outputs": [
            {
              "internalType": "address",
              "name": "to",
              "type": "address"
            },
            {
              "internalType": "address",
              "name": "token",
              "type": "address"
            },
            {
              "internalType": "uint256",
              "name": "amount",
              "type": "uint256"
            },
            {
              "internalType": "uint256",
              "name": "proposedAt",
              "type": "uint256"
            },
            {
              "internalType": "bool",
              "name": "executed",
              "type": "bool"
            },
            {
              "internalType": "bool",
              "name": "cancelled",
              "type": "bool"
            }
          ],
          "stateMutability": "view",
          "type": "function"
        },
        {
          "inputs": [
            {
              "internalType": "address",
              "name": "to",
              "type": "address"
            },
            {
              "internalType": "address",
              "name": "token",
              "type": "address"
            },
            {
              "internalType": "uint256",
              "name": "amount",
              "type": "uint256"
            }
          ],
          "name": "proposeTransfer",
          "outputs": [],
          "stateMutability": "nonpayable",
          "type": "function"
        },
        {
          "inputs": [],
          "name": "renounceOwnership",
          "outputs": [],
          "stateMutability": "nonpayable",
          "type": "function"
        },
        {
          "inputs": [
            {
              "internalType": "address",
              "name": "_gnosisSafe",
              "type": "address"
            }
          ],
          "name": "setGnosisSafe",
          "outputs": [],
          "stateMutability": "nonpayable",
          "type": "function"
        },
        {
          "inputs": [
            {
              "internalType": "address",
              "name": "newOwner",
              "type": "address"
            }
          ],
          "name": "transferOwnership",
          "outputs": [],
          "stateMutability": "nonpayable",
          "type": "function"
        },
        {
          "inputs": [],
          "name": "transferOwnershipToGnosisSafe",
          "outputs": [],
          "stateMutability": "nonpayable",
          "type": "function"
        },
        {
          "inputs": [],
          "name": "unpause",
          "outputs": [],
          "stateMutability": "nonpayable",
          "type": "function"
        },
        {
          "stateMutability": "payable",
          "type": "receive"
        }
      ],
      "evm": {
        "bytecode": {
          "linkReferences": {},
          "object": "60c034620001f457601f620018bd38819003918201601f191683019291906001600160401b03841183851017620001f9578160609284926040968752833981010312620001f45762000051816200020f565b6200006c8362000064602085016200020f565b93016200020f565b903315620001dc5760008054336001600160a01b031982168117835586516001600160a01b039690959394939287929083167f8be0079c531659141344cd1fd0a4f28419497f9722a3daafe3b4186f6b6457e08780a36001805516938415620001a6575084169384156200016e57811691826200011b575b50505060805260a052516116989081620002258239608051818181610b030152611091015260a05181818161085401526109960152f35b60028054610100600160a81b03191660089390931b610100600160a81b0316929092179091557feb9531f1025dff97cad08fa04d87d1982f6da47ad87bc18822a3dd4e85996b729080a2388080620000e4565b855162461bcd60e51b81526020600482015260116024820152707a65726f2055534454206164647265737360781b6044820152606490fd5b62461bcd60e51b81526020600482015260116024820152707a65726f2055534443206164647265737360781b6044820152606490fd5b8351631e4fbdf760e01b815260006004820152602490fd5b600080fd5b634e487b7160e01b600052604160045260246000fd5b51906001600160a01b0382168203620001f45756fe60406080815260048036101561001c575b5050361561001a57005b005b600091823560e01c8063064de6181461114657806317292d2a1461111d5780632ab09d14146110ff5780633aecd0e3146110d25780633cfd1ccc146110645780633f4ba83a14610f9457806359caecb514610ed25780635c975abb14610eae57806364a8a0a014610cc95780636577b86a14610c5a578063715018a614610c005780638456cb5914610b3257806389a3027114610aee5780638da5cb5b14610ac65780638f36320014610a68578063921e5e5914610a105780639785fac814610969578063a84173ae1461093c578063c3085a3e14610887578063c54e44eb1461083f578063c7f758a814610736578063d8a14cbe14610568578063f05d575214610284578063f2fde38b14610231578063f9686ca9146101ef5763fc9ff3eb146101475750610010565b346101eb5760203660031901126101eb5760206101626112a1565b6002546001600160a01b039160249160081c83166101818115156112f1565b855196879485936317aa5fb760e11b855216908301525afa9182156101e157602093926101b2575b50519015158152f35b6101d3919250833d85116101da575b6101cb8183611333565b810190611461565b90386101a9565b503d6101c1565b81513d85823e3d90fd5b8280fd5b833461022e578060031936011261022e57610208611593565b60025461022b9060081c6001600160a01b03166102268115156112f1565b6115bf565b80f35b80fd5b5090346101eb5760203660031901126101eb5761024c6112a1565b91610255611593565b6001600160a01b0383161561026e578361022b846115bf565b51631e4fbdf760e01b8152908101839052602490fd5b50346101eb57602091826003193601126105645780359260018060a01b03936102b58560025460081c1633146114b8565b600194600286541461055457600286556102cd611575565b81875260038352848720848101958654956102eb60ff8816156114f7565b60ff8760081c166105275760038301546201518081018091116105145742116104de576002830197898954986103228a1515611536565b60ff19161790558883019684885416801560001461046d575050478854809110610438578a80808093888854165af13d15610433573d67ffffffffffffffff81116104205783519061037d601f8201601f19168a0183611333565b81528b883d92013e5b156103e957509180917f78e6250172d8e0a57d8d41f480f13581571a2d27bb2a93f5f7bd2511f5c22a6c9594935b51937ff49c7151a34f944c290bea0b71e18d61f02bfd24115ac372517b6ba94ebd95468b80a2541694541694548152a3805580f35b85606492519162461bcd60e51b83528201526013602482015272115512081d1c985b9cd9995c8819985a5b1959606a1b6044820152fd5b634e487b7160e01b8c526041835260248cfd5b610386565b5085606492519162461bcd60e51b8352820152601060248201526f0d2dce6eaccccd2c6d2cadce8408aa8960831b6044820152fd5b8454845163a9059cbb60e01b8a8201529087166001600160a01b031660248201526044808201939093529182527f78e6250172d8e0a57d8d41f480f13581571a2d27bb2a93f5f7bd2511f5c22a6c979695948594909350916104d9916104d4606483611333565b611606565b6103b4565b85606492519162461bcd60e51b835282015260126024820152710c8d1a081dda5b991bddc8195e1c1a5c995960721b6044820152fd5b634e487b7160e01b8b526011825260248bfd5b85606492519162461bcd60e51b8352820152600960248201526818d85b98d95b1b195960ba1b6044820152fd5b8451633ee5aeb560e01b81528490fd5b8380fd5b50346101eb57610577366112bc565b9192909360018060a01b0380946105968260025460081c1633146114b8565b169384156107065785169485156106d457825163095ea7b360e01b60208083018281526001600160a01b03949094166024840152604480840188905283529193909290919089906105e8606487611333565b855190828a5af188513d826106b8575b505015610630575b5050507f18df11ee87d40ec537962b2b12eb48a98ce84124c0a0524f838bfa639b5dee6a9160209151908152a380f35b835191602083015286602483015287604483015260448252608082019082821067ffffffffffffffff8311176106a557507f18df11ee87d40ec537962b2b12eb48a98ce84124c0a0524f838bfa639b5dee6a9492610697859361069d936020975288611606565b86611606565b918193610600565b634e487b7160e01b895260419052602488fd5b9091506106cc5750853b15155b38806105f8565b6001146106c5565b506020606492519162461bcd60e51b8352820152600c60248201526b3d32b9379039b832b73232b960a11b6044820152fd5b506020606492519162461bcd60e51b8352820152600a6024820152693d32b937903a37b5b2b760b11b6044820152fd5b50823461022e57602036600319011261022e5782358152600360205281812090600282015492610767841515611536565b60018060a01b03938484541694600185015416938660038201549101549160ff8360081c169362015180938484019081851161082c5760ff161596879586610823575b88610817575b881561080957428603019182116107f657506101009950965b815198895260208901528701526060860152156080850152151560a0840152151560c083015260e0820152f35b634e487b7160e01b815260118b52602490fd5b5090506101009950966107c9565b975081421115976107b0565b871598506107aa565b634e487b7160e01b885260118b52602488fd5b838234610883578160031936011261088357517f00000000000000000000000000000000000000000000000000000000000000006001600160a01b03168152602090f35b5080fd5b5090346101eb5760203660031901126101eb576108a26112a1565b906108ab611593565b6001600160a01b03821692831561090a57505060028054610100600160a81b03191660089290921b610100600160a81b03169190911790557feb9531f1025dff97cad08fa04d87d1982f6da47ad87bc18822a3dd4e85996b728280a280f35b906020606492519162461bcd60e51b8352820152600c60248201526b7a65726f206164647265737360a01b6044820152fd5b838234610883578160031936011261088357600254905160089190911c6001600160a01b03168152602090f35b50346101eb57826003193601126101eb5780516370a0823160e01b815230928101929092526020826024817f00000000000000000000000000000000000000000000000000000000000000006001600160a01b03165afa9182156101e15783926109d8575b6020838351908152f35b9091506020813d602011610a08575b816109f460209383611333565b810103126101eb57602092505190386109ce565b3d91506109e7565b50346101eb57826003193601126101eb5760025460209060081c6001600160a01b0316610a3e8115156112f1565b8251631cea46b760e31b815293849182905afa9182156101e15783926109d8576020838351908152f35b50829034610883576020366003190112610883578235825260036020526003818320610a9960028201541515611536565b015491620151808301809311610ab3576020838351908152f35b634e487b7160e01b815260118452602490fd5b838234610883578160031936011261088357905490516001600160a01b039091168152602090f35b838234610883578160031936011261088357517f00000000000000000000000000000000000000000000000000000000000000006001600160a01b03168152602090f35b5090346101eb57826003193601126101eb5760025490600882901c6001600160a01b031690602090610b658315156112f1565b60248551809481936317aa5fb760e11b835233908301525afa908115610bf357602092610bbe7f62e78cea01bee320cd4e420270b5ea74000d11b0c9f74754ebdbfc544b05a25895936001938891610bd6575b50611479565b610bc6611575565b60ff19161760025551338152a180f35b610bed9150863d88116101da576101cb8183611333565b38610bb8565b50505051903d90823e3d90fd5b833461022e578060031936011261022e57610c19611593565b80546001600160a01b03198116825581906001600160a01b03167f8be0079c531659141344cd1fd0a4f28419497f9722a3daafe3b4186f6b6457e08280a380f35b50346101eb5760203660031901126101eb578060ff9160c0948435815260036020522060018060a01b03938482541694600183015416926002830154916003840154930154938151968752602087015285015260608401528181161515608084015260081c16151560a0820152f35b50346101eb57610cd8366112bc565b60018060a096949593961b038094610cf88260025460081c1633146114b8565b610d00611575565b16938415610e7a578115610e49578354936000198514610e365760018501815562015180420191824211610e235784519060c0820182811067ffffffffffffffff821117610e1057928a928892889796957f31ba85b55025ddb5be9fe39085effb86a3e5b63876cf18f1d9e5926f7b84c01a99528a825280602083019c169b8c8152888301908882526060840192428452808b6080870199808b5260a0880199818b528152600360205220955116906bffffffffffffffffffffffff60a01b9182875416178655600186019251169082541617905551600283015551600382015501915115159060ff61ff0084549251151560081b1692169061ffff19161717905582519182526020820152a480f35b634e487b7160e01b8b526041845260248bfd5b634e487b7160e01b895260118252602489fd5b634e487b7160e01b885260119052602487fd5b825162461bcd60e51b8152602081860152600b60248201526a1e995c9bc8185b5bdd5b9d60aa1b6044820152606490fd5b825162461bcd60e51b8152602081860152600e60248201526d1e995c9bc81c9958da5c1a595b9d60921b6044820152606490fd5b83823461088357816003193601126108835760209060ff6002541690519015158152f35b5090346101eb5760203660031901126101eb57803591610f0060018060a01b0360025460081c1633146114b8565b8284526003602052818185200191825491610f1e60ff8416156114f7565b60ff8360081c16610f5d57505061ff0019166101001790557f80325e888c1c82b732ed61a3aaa950ae32a233290f74a648d1a33396664503458280a280f35b906020606492519162461bcd60e51b83528201526011602482015270185b1c9958591e4818d85b98d95b1b1959607a1b6044820152fd5b5090346101eb57826003193601126101eb576002549060246020600884901c6001600160a01b0316610fc78115156112f1565b85516317aa5fb760e11b8152338582015292839182905afa801561105a57610ff59186916110415750611479565b60ff821615611033575060ff1916600255513381527f5db9ee0a495bf2e6ff9c91a7834c1ba4fdd244a5e8aa4e537bd38aeae4b073aa90602090a180f35b8251638dfc202b60e01b8152fd5b610bed915060203d6020116101da576101cb8183611333565b84513d87823e3d90fd5b50346101eb57826003193601126101eb5780516370a0823160e01b815230928101929092526020826024817f00000000000000000000000000000000000000000000000000000000000000006001600160a01b03165afa9182156101e15783926109d8576020838351908152f35b838234610883576020366003190112610883576020906110f86110f36112a1565b6113e2565b9051908152f35b5090346101eb57826003193601126101eb5760209250549051908152f35b50823461022e57602036600319011261022e575061113d6020923561136b565b90519015158152f35b509190346108835781600319360112610883576002546001600160a01b0393908290849060081c861661117a8115156112f1565b835163a0e67e2b60e01b815292839182905afa9283156112975784936111d9575b50509182519260208080860192818752855180945286019401925b8281106111c35785850386f35b83518716855293810193928101926001016111b6565b909192503d8085843e6111ec8184611333565b8201602091828483031261129357835167ffffffffffffffff9485821161127857019082601f8301121561127c57815194851161128057508360051b9085519461123885840187611333565b8552838086019282010192831161127c578301905b828210611260575050505090388061119b565b8151888116810361127857815290830190830161124d565b8780fd5b8680fd5b634e487b7160e01b875260419052602486fd5b8580fd5b82513d86823e3d90fd5b600435906001600160a01b03821682036112b757565b600080fd5b60609060031901126112b7576001600160a01b039060043582811681036112b7579160243590811681036112b7579060443590565b156112f857565b60405162461bcd60e51b815260206004820152601360248201527219db9bdcda5cc81cd85999481b9bdd081cd95d606a1b6044820152606490fd5b90601f8019910116810190811067ffffffffffffffff82111761135557604052565b634e487b7160e01b600052604160045260246000fd5b6000526003602052604060002060028101541580156113d4575b80156113c3575b6113bd57600301546201518081018091116113a75742111590565b634e487b7160e01b600052601160045260246000fd5b50600090565b5060ff600482015460081c1661138c565b5060ff600482015416611385565b6001600160a01b0316801561145c576020602491604051928380926370a0823160e01b82523060048301525afa90811561145057600091611421575090565b90506020813d602011611448575b8161143c60209383611333565b810103126112b7575190565b3d915061142f565b6040513d6000823e3d90fd5b504790565b908160209103126112b7575180151581036112b75790565b1561148057565b60405162461bcd60e51b815260206004820152601060248201526f3737ba1033b737b9b4b99037bbb732b960811b6044820152606490fd5b156114bf57565b60405162461bcd60e51b815260206004820152601060248201526f6f6e6c7920676e6f736973207361666560801b6044820152606490fd5b156114fe57565b60405162461bcd60e51b815260206004820152601060248201526f185b1c9958591e48195e1958dd5d195960821b6044820152606490fd5b1561153d57565b60405162461bcd60e51b815260206004820152601060248201526f1a5b9d985b1a59081c1c9bdc1bdcd85b60821b6044820152606490fd5b60ff6002541661158157565b60405163d93c066560e01b8152600490fd5b6000546001600160a01b031633036115a757565b60405163118cdaa760e01b8152336004820152602490fd5b600080546001600160a01b039283166001600160a01b03198216811783559216907f8be0079c531659141344cd1fd0a4f28419497f9722a3daafe3b4186f6b6457e09080a3565b906000602091828151910182855af115611450576000513d61165957506001600160a01b0381163b155b6116375750565b604051635274afe760e01b81526001600160a01b039091166004820152602490fd5b6001141561163056fea26469706673582212204bba0daa2b757c94d41454a472ce577faca787552948aa64b7f96b2cf55e5b5064736f6c63430008180033",
          "opcodes": "PUSH1 0xC0 CALLVALUE PUSH3 0x1F4 JUMPI PUSH1 0x1F PUSH3 0x18BD CODESIZE DUP2 SWAP1 SUB SWAP2 DUP3 ADD PUSH1 0x1F NOT AND DUP4 ADD SWAP3 SWAP2 SWAP1 PUSH1 0x1 PUSH1 0x1 PUSH1 0x40 SHL SUB DUP5 GT DUP4 DUP6 LT OR PUSH3 0x1F9 JUMPI DUP2 PUSH1 0x60 SWAP3 DUP5 SWAP3 PUSH1 0x40 SWAP7 DUP8 MSTORE DUP4 CODECOPY DUP2 ADD SUB SLT PUSH3 0x1F4 JUMPI PUSH3 0x51 DUP2 PUSH3 0x20F JUMP JUMPDEST PUSH3 0x6C DUP4 PUSH3 0x64 PUSH1 0x20 DUP6 ADD PUSH3 0x20F JUMP JUMPDEST SWAP4 ADD PUSH3 0x20F JUMP JUMPDEST SWAP1 CALLER ISZERO PUSH3 0x1DC JUMPI PUSH1 0x0 DUP1 SLOAD CALLER PUSH1 0x1 PUSH1 0x1 PUSH1 0xA0 SHL SUB NOT DUP3 AND DUP2 OR DUP4 SSTORE DUP7 MLOAD PUSH1 0x1 PUSH1 0x1 PUSH1 0xA0 SHL SUB SWAP7 SWAP1 SWAP6 SWAP4 SWAP5 SWAP4 SWAP3 DUP8 SWAP3 SWAP1 DUP4 AND PUSH32 0x8BE0079C531659141344CD1FD0A4F28419497F9722A3DAAFE3B4186F6B6457E0 DUP8 DUP1 LOG3 PUSH1 0x1 DUP1 SSTORE AND SWAP4 DUP5 ISZERO PUSH3 0x1A6 JUMPI POP DUP5 AND SWAP4 DUP5 ISZERO PUSH3 0x16E JUMPI DUP2 AND SWAP2 DUP3 PUSH3 0x11B JUMPI JUMPDEST POP POP POP PUSH1 0x80 MSTORE PUSH1 0xA0 MSTORE MLOAD PUSH2 0x1698 SWAP1 DUP2 PUSH3 0x225 DUP3 CODECOPY PUSH1 0x80 MLOAD DUP2 DUP2 DUP2 PUSH2 0xB03 ADD MSTORE PUSH2 0x1091 ADD MSTORE PUSH1 0xA0 MLOAD DUP2 DUP2 DUP2 PUSH2 0x854 ADD MSTORE PUSH2 0x996 ADD MSTORE RETURN JUMPDEST PUSH1 0x2 DUP1 SLOAD PUSH2 0x100 PUSH1 0x1 PUSH1 0xA8 SHL SUB NOT AND PUSH1 0x8 SWAP4 SWAP1 SWAP4 SHL PUSH2 0x100 PUSH1 0x1 PUSH1 0xA8 SHL SUB AND SWAP3 SWAP1 SWAP3 OR SWAP1 SWAP2 SSTORE PUSH32 0xEB9531F1025DFF97CAD08FA04D87D1982F6DA47AD87BC18822A3DD4E85996B72 SWAP1 DUP1 LOG2 CODESIZE DUP1 DUP1 PUSH3 0xE4 JUMP JUMPDEST DUP6 MLOAD PUSH3 0x461BCD PUSH1 0xE5 SHL DUP2 MSTORE PUSH1 0x20 PUSH1 0x4 DUP3 ADD MSTORE PUSH1 0x11 PUSH1 0x24 DUP3 ADD MSTORE PUSH17 0x7A65726F20555344542061646472657373 PUSH1 0x78 SHL PUSH1 0x44 DUP3 ADD MSTORE PUSH1 0x64 SWAP1 REVERT JUMPDEST PUSH3 0x461BCD PUSH1 0xE5 SHL DUP2 MSTORE PUSH1 0x20 PUSH1 0x4 DUP3 ADD MSTORE PUSH1 0x11 PUSH1 0x24 DUP3 ADD MSTORE PUSH17 0x7A65726F20555344432061646472657373 PUSH1 0x78 SHL PUSH1 0x44 DUP3 ADD MSTORE PUSH1 0x64 SWAP1 REVERT JUMPDEST DUP4 MLOAD PUSH4 0x1E4FBDF7 PUSH1 0xE0 SHL DUP2 MSTORE PUSH1 0x0 PUSH1 0x4 DUP3 ADD MSTORE PUSH1 0x24 SWAP1 REVERT JUMPDEST PUSH1 0x0 DUP1 REVERT JUMPDEST PUSH4 0x4E487B71 PUSH1 0xE0 SHL PUSH1 0x0 MSTORE PUSH1 0x41 PUSH1 0x4 MSTORE PUSH1 0x24 PUSH1 0x0 REVERT JUMPDEST MLOAD SWAP1 PUSH1 0x1 PUSH1 0x1 PUSH1 0xA0 SHL SUB DUP3 AND DUP3 SUB PUSH3 0x1F4 JUMPI JUMP INVALID PUSH1 0x40 PUSH1 0x80 DUP2 MSTORE PUSH1 0x4 DUP1 CALLDATASIZE LT ISZERO PUSH2 0x1C JUMPI JUMPDEST POP POP CALLDATASIZE ISZERO PUSH2 0x1A JUMPI STOP JUMPDEST STOP JUMPDEST PUSH1 0x0 SWAP2 DUP3 CALLDATALOAD PUSH1 0xE0 SHR DUP1 PUSH4 0x64DE618 EQ PUSH2 0x1146 JUMPI DUP1 PUSH4 0x17292D2A EQ PUSH2 0x111D JUMPI DUP1 PUSH4 0x2AB09D14 EQ PUSH2 0x10FF JUMPI DUP1 PUSH4 0x3AECD0E3 EQ PUSH2 0x10D2 JUMPI DUP1 PUSH4 0x3CFD1CCC EQ PUSH2 0x1064 JUMPI DUP1 PUSH4 0x3F4BA83A EQ PUSH2 0xF94 JUMPI DUP1 PUSH4 0x59CAECB5 EQ PUSH2 0xED2 JUMPI DUP1 PUSH4 0x5C975ABB EQ PUSH2 0xEAE JUMPI DUP1 PUSH4 0x64A8A0A0 EQ PUSH2 0xCC9 JUMPI DUP1 PUSH4 0x6577B86A EQ PUSH2 0xC5A JUMPI DUP1 PUSH4 0x715018A6 EQ PUSH2 0xC00 JUMPI DUP1 PUSH4 0x8456CB59 EQ PUSH2 0xB32 JUMPI DUP1 PUSH4 0x89A30271 EQ PUSH2 0xAEE JUMPI DUP1 PUSH4 0x8DA5CB5B EQ PUSH2 0xAC6 JUMPI DUP1 PUSH4 0x8F363200 EQ PUSH2 0xA68 JUMPI DUP1 PUSH4 0x921E5E59 EQ PUSH2 0xA10 JUMPI DUP1 PUSH4 0x9785FAC8 EQ PUSH2 0x969 JUMPI DUP1 PUSH4 0xA84173AE EQ PUSH2 0x93C JUMPI DUP1 PUSH4 0xC3085A3E EQ PUSH2 0x887 JUMPI DUP1 PUSH4 0xC54E44EB EQ PUSH2 0x83F JUMPI DUP1 PUSH4 0xC7F758A8 EQ PUSH2 0x736 JUMPI DUP1 PUSH4 0xD8A14CBE EQ PUSH2 0x568 JUMPI DUP1 PUSH4 0xF05D5752 EQ PUSH2 0x284 JUMPI DUP1 PUSH4 0xF2FDE38B EQ PUSH2 0x231 JUMPI DUP1 PUSH4 0xF9686CA9 EQ PUSH2 0x1EF JUMPI PUSH4 0xFC9FF3EB EQ PUSH2 0x147 JUMPI POP PUSH2 0x10 JUMP JUMPDEST CALLVALUE PUSH2 0x1EB JUMPI PUSH1 0x20 CALLDATASIZE PUSH1 0x3 NOT ADD SLT PUSH2 0x1EB JUMPI PUSH1 0x20 PUSH2 0x162 PUSH2 0x12A1 JUMP JUMPDEST PUSH1 0x2 SLOAD PUSH1 0x1 PUSH1 0x1 PUSH1 0xA0 SHL SUB SWAP2 PUSH1 0x24 SWAP2 PUSH1 0x8 SHR DUP4 AND PUSH2 0x181 DUP2 ISZERO ISZERO PUSH2 0x12F1 JUMP JUMPDEST DUP6 MLOAD SWAP7 DUP8 SWAP5 DUP6 SWAP4 PUSH4 0x17AA5FB7 PUSH1 0xE1 SHL DUP6 MSTORE AND SWAP1 DUP4 ADD MSTORE GAS STATICCALL SWAP2 DUP3 ISZERO PUSH2 0x1E1 JUMPI PUSH1 0x20 SWAP4 SWAP3 PUSH2 0x1B2 JUMPI JUMPDEST POP MLOAD SWAP1 ISZERO ISZERO DUP2 MSTORE RETURN JUMPDEST PUSH2 0x1D3 SWAP2 SWAP3 POP DUP4 RETURNDATASIZE DUP6 GT PUSH2 0x1DA JUMPI JUMPDEST PUSH2 0x1CB DUP2 DUP4 PUSH2 0x1333 JUMP JUMPDEST DUP2 ADD SWAP1 PUSH2 0x1461 JUMP JUMPDEST SWAP1 CODESIZE PUSH2 0x1A9 JUMP JUMPDEST POP RETURNDATASIZE PUSH2 0x1C1 JUMP JUMPDEST DUP2 MLOAD RETURNDATASIZE DUP6 DUP3 RETURNDATACOPY RETURNDATASIZE SWAP1 REVERT JUMPDEST DUP3 DUP1 REVERT JUMPDEST DUP4 CALLVALUE PUSH2 0x22E JUMPI DUP1 PUSH1 0x3 NOT CALLDATASIZE ADD SLT PUSH2 0x22E JUMPI PUSH2 0x208 PUSH2 0x1593 JUMP JUMPDEST PUSH1 0x2 SLOAD PUSH2 0x22B SWAP1 PUSH1 0x8 SHR PUSH1 0x1 PUSH1 0x1 PUSH1 0xA0 SHL SUB AND PUSH2 0x226 DUP2 ISZERO ISZERO PUSH2 0x12F1 JUMP JUMPDEST PUSH2 0x15BF JUMP JUMPDEST DUP1 RETURN JUMPDEST DUP1 REVERT JUMPDEST POP SWAP1 CALLVALUE PUSH2 0x1EB JUMPI PUSH1 0x20 CALLDATASIZE PUSH1 0x3 NOT ADD SLT PUSH2 0x1EB JUMPI PUSH2 0x24C PUSH2 0x12A1 JUMP JUMPDEST SWAP2 PUSH2 0x255 PUSH2 0x1593 JUMP JUMPDEST PUSH1 0x1 PUSH1 0x1 PUSH1 0xA0 SHL SUB DUP4 AND ISZERO PUSH2 0x26E JUMPI DUP4 PUSH2 0x22B DUP5 PUSH2 0x15BF JUMP JUMPDEST MLOAD PUSH4 0x1E4FBDF7 PUSH1 0xE0 SHL DUP2 MSTORE SWAP1 DUP2 ADD DUP4 SWAP1 MSTORE PUSH1 0x24 SWAP1 REVERT JUMPDEST POP CALLVALUE PUSH2 0x1EB JUMPI PUSH1 0x20 SWAP2 DUP3 PUSH1 0x3 NOT CALLDATASIZE ADD SLT PUSH2 0x564 JUMPI DUP1 CALLDATALOAD SWAP3 PUSH1 0x1 DUP1 PUSH1 0xA0 SHL SUB SWAP4 PUSH2 0x2B5 DUP6 PUSH1 0x2 SLOAD PUSH1 0x8 SHR AND CALLER EQ PUSH2 0x14B8 JUMP JUMPDEST PUSH1 0x1 SWAP5 PUSH1 0x2 DUP7 SLOAD EQ PUSH2 0x554 JUMPI PUSH1 0x2 DUP7 SSTORE PUSH2 0x2CD PUSH2 0x1575 JUMP JUMPDEST DUP2 DUP8 MSTORE PUSH1 0x3 DUP4 MSTORE DUP5 DUP8 KECCAK256 DUP5 DUP2 ADD SWAP6 DUP7 SLOAD SWAP6 PUSH2 0x2EB PUSH1 0xFF DUP9 AND ISZERO PUSH2 0x14F7 JUMP JUMPDEST PUSH1 0xFF DUP8 PUSH1 0x8 SHR AND PUSH2 0x527 JUMPI PUSH1 0x3 DUP4 ADD SLOAD PUSH3 0x15180 DUP2 ADD DUP1 SWAP2 GT PUSH2 0x514 JUMPI TIMESTAMP GT PUSH2 0x4DE JUMPI PUSH1 0x2 DUP4 ADD SWAP8 DUP10 DUP10 SLOAD SWAP9 PUSH2 0x322 DUP11 ISZERO ISZERO PUSH2 0x1536 JUMP JUMPDEST PUSH1 0xFF NOT AND OR SWAP1 SSTORE DUP9 DUP4 ADD SWAP7 DUP5 DUP9 SLOAD AND DUP1 ISZERO PUSH1 0x0 EQ PUSH2 0x46D JUMPI POP POP SELFBALANCE DUP9 SLOAD DUP1 SWAP2 LT PUSH2 0x438 JUMPI DUP11 DUP1 DUP1 DUP1 SWAP4 DUP9 DUP9 SLOAD AND GAS CALL RETURNDATASIZE ISZERO PUSH2 0x433 JUMPI RETURNDATASIZE PUSH8 0xFFFFFFFFFFFFFFFF DUP2 GT PUSH2 0x420 JUMPI DUP4 MLOAD SWAP1 PUSH2 0x37D PUSH1 0x1F DUP3 ADD PUSH1 0x1F NOT AND DUP11 ADD DUP4 PUSH2 0x1333 JUMP JUMPDEST DUP2 MSTORE DUP12 DUP9 RETURNDATASIZE SWAP3 ADD RETURNDATACOPY JUMPDEST ISZERO PUSH2 0x3E9 JUMPI POP SWAP2 DUP1 SWAP2 PUSH32 0x78E6250172D8E0A57D8D41F480F13581571A2D27BB2A93F5F7BD2511F5C22A6C SWAP6 SWAP5 SWAP4 JUMPDEST MLOAD SWAP4 PUSH32 0xF49C7151A34F944C290BEA0B71E18D61F02BFD24115AC372517B6BA94EBD9546 DUP12 DUP1 LOG2 SLOAD AND SWAP5 SLOAD AND SWAP5 SLOAD DUP2 MSTORE LOG3 DUP1 SSTORE DUP1 RETURN JUMPDEST DUP6 PUSH1 0x64 SWAP3 MLOAD SWAP2 PUSH3 0x461BCD PUSH1 0xE5 SHL DUP4 MSTORE DUP3 ADD MSTORE PUSH1 0x13 PUSH1 0x24 DUP3 ADD MSTORE PUSH19 0x115512081D1C985B9CD9995C8819985A5B1959 PUSH1 0x6A SHL PUSH1 0x44 DUP3 ADD MSTORE REVERT JUMPDEST PUSH4 0x4E487B71 PUSH1 0xE0 SHL DUP13 MSTORE PUSH1 0x41 DUP4 MSTORE PUSH1 0x24 DUP13 REVERT JUMPDEST PUSH2 0x386 JUMP JUMPDEST POP DUP6 PUSH1 0x64 SWAP3 MLOAD SWAP2 PUSH3 0x461BCD PUSH1 0xE5 SHL DUP4 MSTORE DUP3 ADD MSTORE PUSH1 0x10 PUSH1 0x24 DUP3 ADD MSTORE PUSH16 0xD2DCE6EACCCCD2C6D2CADCE8408AA89 PUSH1 0x83 SHL PUSH1 0x44 DUP3 ADD MSTORE REVERT JUMPDEST DUP5 SLOAD DUP5 MLOAD PUSH4 0xA9059CBB PUSH1 0xE0 SHL DUP11 DUP3 ADD MSTORE SWAP1 DUP8 AND PUSH1 0x1 PUSH1 0x1 PUSH1 0xA0 SHL SUB AND PUSH1 0x24 DUP3 ADD MSTORE PUSH1 0x44 DUP1 DUP3 ADD SWAP4 SWAP1 SWAP4 MSTORE SWAP2 DUP3 MSTORE PUSH32 0x78E6250172D8E0A57D8D41F480F13581571A2D27BB2A93F5F7BD2511F5C22A6C SWAP8 SWAP7 SWAP6 SWAP5 DUP6 SWAP5 SWAP1 SWAP4 POP SWAP2 PUSH2 0x4D9 SWAP2 PUSH2 0x4D4 PUSH1 0x64 DUP4 PUSH2 0x1333 JUMP JUMPDEST PUSH2 0x1606 JUMP JUMPDEST PUSH2 0x3B4 JUMP JUMPDEST DUP6 PUSH1 0x64 SWAP3 MLOAD SWAP2 PUSH3 0x461BCD PUSH1 0xE5 SHL DUP4 MSTORE DUP3 ADD MSTORE PUSH1 0x12 PUSH1 0x24 DUP3 ADD MSTORE PUSH18 0xC8D1A081DDA5B991BDDC8195E1C1A5C9959 PUSH1 0x72 SHL PUSH1 0x44 DUP3 ADD MSTORE REVERT JUMPDEST PUSH4 0x4E487B71 PUSH1 0xE0 SHL DUP12 MSTORE PUSH1 0x11 DUP3 MSTORE PUSH1 0x24 DUP12 REVERT JUMPDEST DUP6 PUSH1 0x64 SWAP3 MLOAD SWAP2 PUSH3 0x461BCD PUSH1 0xE5 SHL DUP4 MSTORE DUP3 ADD MSTORE PUSH1 0x9 PUSH1 0x24 DUP3 ADD MSTORE PUSH9 0x18D85B98D95B1B1959 PUSH1 0xBA SHL PUSH1 0x44 DUP3 ADD MSTORE REVERT JUMPDEST DUP5 MLOAD PUSH4 0x3EE5AEB5 PUSH1 0xE0 SHL DUP2 MSTORE DUP5 SWAP1 REVERT JUMPDEST DUP4 DUP1 REVERT JUMPDEST POP CALLVALUE PUSH2 0x1EB JUMPI PUSH2 0x577 CALLDATASIZE PUSH2 0x12BC JUMP JUMPDEST SWAP2 SWAP3 SWAP1 SWAP4 PUSH1 0x1 DUP1 PUSH1 0xA0 SHL SUB DUP1 SWAP5 PUSH2 0x596 DUP3 PUSH1 0x2 SLOAD PUSH1 0x8 SHR AND CALLER EQ PUSH2 0x14B8 JUMP JUMPDEST AND SWAP4 DUP5 ISZERO PUSH2 0x706 JUMPI DUP6 AND SWAP5 DUP6 ISZERO PUSH2 0x6D4 JUMPI DUP3 MLOAD PUSH4 0x95EA7B3 PUSH1 0xE0 SHL PUSH1 0x20 DUP1 DUP4 ADD DUP3 DUP2 MSTORE PUSH1 0x1 PUSH1 0x1 PUSH1 0xA0 SHL SUB SWAP5 SWAP1 SWAP5 AND PUSH1 0x24 DUP5 ADD MSTORE PUSH1 0x44 DUP1 DUP5 ADD DUP9 SWAP1 MSTORE DUP4 MSTORE SWAP2 SWAP4 SWAP1 SWAP3 SWAP1 SWAP2 SWAP1 DUP10 SWAP1 PUSH2 0x5E8 PUSH1 0x64 DUP8 PUSH2 0x1333 JUMP JUMPDEST DUP6 MLOAD SWAP1 DUP3 DUP11 GAS CALL DUP9 MLOAD RETURNDATASIZE DUP3 PUSH2 0x6B8 JUMPI JUMPDEST POP POP ISZERO PUSH2 0x630 JUMPI JUMPDEST POP POP POP PUSH32 0x18DF11EE87D40EC537962B2B12EB48A98CE84124C0A0524F838BFA639B5DEE6A SWAP2 PUSH1 0x20 SWAP2 MLOAD SWAP1 DUP2 MSTORE LOG3 DUP1 RETURN JUMPDEST DUP4 MLOAD SWAP2 PUSH1 0x20 DUP4 ADD MSTORE DUP7 PUSH1 0x24 DUP4 ADD MSTORE DUP8 PUSH1 0x44 DUP4 ADD MSTORE PUSH1 0x44 DUP3 MSTORE PUSH1 0x80 DUP3 ADD SWAP1 DUP3 DUP3 LT PUSH8 0xFFFFFFFFFFFFFFFF DUP4 GT OR PUSH2 0x6A5 JUMPI POP PUSH32 0x18DF11EE87D40EC537962B2B12EB48A98CE84124C0A0524F838BFA639B5DEE6A SWAP5 SWAP3 PUSH2 0x697 DUP6 SWAP4 PUSH2 0x69D SWAP4 PUSH1 0x20 SWAP8 MSTORE DUP9 PUSH2 0x1606 JUMP JUMPDEST DUP7 PUSH2 0x1606 JUMP JUMPDEST SWAP2 DUP2 SWAP4 PUSH2 0x600 JUMP JUMPDEST PUSH4 0x4E487B71 PUSH1 0xE0 SHL DUP10 MSTORE PUSH1 0x41 SWAP1 MSTORE PUSH1 0x24 DUP9 REVERT JUMPDEST SWAP1 SWAP2 POP PUSH2 0x6CC JUMPI POP DUP6 EXTCODESIZE ISZERO ISZERO JUMPDEST CODESIZE DUP1 PUSH2 0x5F8 JUMP JUMPDEST PUSH1 0x1 EQ PUSH2 0x6C5 JUMP JUMPDEST POP PUSH1 0x20 PUSH1 0x64 SWAP3 MLOAD SWAP2 PUSH3 0x461BCD PUSH1 0xE5 SHL DUP4 MSTORE DUP3 ADD MSTORE PUSH1 0xC PUSH1 0x24 DUP3 ADD MSTORE PUSH12 0x3D32B9379039B832B73232B9 PUSH1 0xA1 SHL PUSH1 0x44 DUP3 ADD MSTORE REVERT JUMPDEST POP PUSH1 0x20 PUSH1 0x64 SWAP3 MLOAD SWAP2 PUSH3 0x461BCD PUSH1 0xE5 SHL DUP4 MSTORE DUP3 ADD MSTORE PUSH1 0xA PUSH1 0x24 DUP3 ADD MSTORE PUSH10 0x3D32B937903A37B5B2B7 PUSH1 0xB1 SHL PUSH1 0x44 DUP3 ADD MSTORE REVERT JUMPDEST POP DUP3 CALLVALUE PUSH2 0x22E JUMPI PUSH1 0x20 CALLDATASIZE PUSH1 0x3 NOT ADD SLT PUSH2 0x22E JUMPI DUP3 CALLDATALOAD DUP2 MSTORE PUSH1 0x3 PUSH1 0x20 MSTORE DUP2 DUP2 KECCAK256 SWAP1 PUSH1 0x2 DUP3 ADD SLOAD SWAP3 PUSH2 0x767 DUP5 ISZERO ISZERO PUSH2 0x1536 JUMP JUMPDEST PUSH1 0x1 DUP1 PUSH1 0xA0 SHL SUB SWAP4 DUP5 DUP5 SLOAD AND SWAP5 PUSH1 0x1 DUP6 ADD SLOAD AND SWAP4 DUP7 PUSH1 0x3 DUP3 ADD SLOAD SWAP2 ADD SLOAD SWAP2 PUSH1 0xFF DUP4 PUSH1 0x8 SHR AND SWAP4 PUSH3 0x15180 SWAP4 DUP5 DUP5 ADD SWAP1 DUP2 DUP6 GT PUSH2 0x82C JUMPI PUSH1 0xFF AND ISZERO SWAP7 DUP8 SWAP6 DUP7 PUSH2 0x823 JUMPI JUMPDEST DUP9 PUSH2 0x817 JUMPI JUMPDEST DUP9 ISZERO PUSH2 0x809 JUMPI TIMESTAMP DUP7 SUB ADD SWAP2 DUP3 GT PUSH2 0x7F6 JUMPI POP PUSH2 0x100 SWAP10 POP SWAP7 JUMPDEST DUP2 MLOAD SWAP9 DUP10 MSTORE PUSH1 0x20 DUP10 ADD MSTORE DUP8 ADD MSTORE PUSH1 0x60 DUP7 ADD MSTORE ISZERO PUSH1 0x80 DUP6 ADD MSTORE ISZERO ISZERO PUSH1 0xA0 DUP5 ADD MSTORE ISZERO ISZERO PUSH1 0xC0 DUP4 ADD MSTORE PUSH1 0xE0 DUP3 ADD MSTORE RETURN JUMPDEST PUSH4 0x4E487B71 PUSH1 0xE0 SHL DUP2 MSTORE PUSH1 0x11 DUP12 MSTORE PUSH1 0x24 SWAP1 REVERT JUMPDEST POP SWAP1 POP PUSH2 0x100 SWAP10 POP SWAP7 PUSH2 0x7C9 JUMP JUMPDEST SWAP8 POP DUP2 TIMESTAMP GT ISZERO SWAP8 PUSH2 0x7B0 JUMP JUMPDEST DUP8 ISZERO SWAP9 POP PUSH2 0x7AA JUMP JUMPDEST PUSH4 0x4E487B71 PUSH1 0xE0 SHL DUP9 MSTORE PUSH1 0x11 DUP12 MSTORE PUSH1 0x24 DUP9 REVERT JUMPDEST DUP4 DUP3 CALLVALUE PUSH2 0x883 JUMPI DUP2 PUSH1 0x3 NOT CALLDATASIZE ADD SLT PUSH2 0x883 JUMPI MLOAD PUSH32 0x0 PUSH1 0x1 PUSH1 0x1 PUSH1 0xA0 SHL SUB AND DUP2 MSTORE PUSH1 0x20 SWAP1 RETURN JUMPDEST POP DUP1 REVERT JUMPDEST POP SWAP1 CALLVALUE PUSH2 0x1EB JUMPI PUSH1 0x20 CALLDATASIZE PUSH1 0x3 NOT ADD SLT PUSH2 0x1EB JUMPI PUSH2 0x8A2 PUSH2 0x12A1 JUMP JUMPDEST SWAP1 PUSH2 0x8AB PUSH2 0x1593 JUMP JUMPDEST PUSH1 0x1 PUSH1 0x1 PUSH1 0xA0 SHL SUB DUP3 AND SWAP3 DUP4 ISZERO PUSH2 0x90A JUMPI POP POP PUSH1 0x2 DUP1 SLOAD PUSH2 0x100 PUSH1 0x1 PUSH1 0xA8 SHL SUB NOT AND PUSH1 0x8 SWAP3 SWAP1 SWAP3 SHL PUSH2 0x100 PUSH1 0x1 PUSH1 0xA8 SHL SUB AND SWAP2 SWAP1 SWAP2 OR SWAP1 SSTORE PUSH32 0xEB9531F1025DFF97CAD08FA04D87D1982F6DA47AD87BC18822A3DD4E85996B72 DUP3 DUP1 LOG2 DUP1 RETURN JUMPDEST SWAP1 PUSH1 0x20 PUSH1 0x64 SWAP3 MLOAD SWAP2 PUSH3 0x461BCD PUSH1 0xE5 SHL DUP4 MSTORE DUP3 ADD MSTORE PUSH1 0xC PUSH1 0x24 DUP3 ADD MSTORE PUSH12 0x7A65726F2061646472657373 PUSH1 0xA0 SHL PUSH1 0x44 DUP3 ADD MSTORE REVERT JUMPDEST DUP4 DUP3 CALLVALUE PUSH2 0x883 JUMPI DUP2 PUSH1 0x3 NOT CALLDATASIZE ADD SLT PUSH2 0x883 JUMPI PUSH1 0x2 SLOAD SWAP1 MLOAD PUSH1 0x8 SWAP2 SWAP1 SWAP2 SHR PUSH1 0x1 PUSH1 0x1 PUSH1 0xA0 SHL SUB AND DUP2 MSTORE PUSH1 0x20 SWAP1 RETURN JUMPDEST POP CALLVALUE PUSH2 0x1EB JUMPI DUP3 PUSH1 0x3 NOT CALLDATASIZE ADD SLT PUSH2 0x1EB JUMPI DUP1 MLOAD PUSH4 0x70A08231 PUSH1 0xE0 SHL DUP2 MSTORE ADDRESS SWAP3 DUP2 ADD SWAP3 SWAP1 SWAP3 MSTORE PUSH1 0x20 DUP3 PUSH1 0x24 DUP2 PUSH32 0x0 PUSH1 0x1 PUSH1 0x1 PUSH1 0xA0 SHL SUB AND GAS STATICCALL SWAP2 DUP3 ISZERO PUSH2 0x1E1 JUMPI DUP4 SWAP3 PUSH2 0x9D8 JUMPI JUMPDEST PUSH1 0x20 DUP4 DUP4 MLOAD SWAP1 DUP2 MSTORE RETURN JUMPDEST SWAP1 SWAP2 POP PUSH1 0x20 DUP2 RETURNDATASIZE PUSH1 0x20 GT PUSH2 0xA08 JUMPI JUMPDEST DUP2 PUSH2 0x9F4 PUSH1 0x20 SWAP4 DUP4 PUSH2 0x1333 JUMP JUMPDEST DUP2 ADD SUB SLT PUSH2 0x1EB JUMPI PUSH1 0x20 SWAP3 POP MLOAD SWAP1 CODESIZE PUSH2 0x9CE JUMP JUMPDEST RETURNDATASIZE SWAP2 POP PUSH2 0x9E7 JUMP JUMPDEST POP CALLVALUE PUSH2 0x1EB JUMPI DUP3 PUSH1 0x3 NOT CALLDATASIZE ADD SLT PUSH2 0x1EB JUMPI PUSH1 0x2 SLOAD PUSH1 0x20 SWAP1 PUSH1 0x8 SHR PUSH1 0x1 PUSH1 0x1 PUSH1 0xA0 SHL SUB AND PUSH2 0xA3E DUP2 ISZERO ISZERO PUSH2 0x12F1 JUMP JUMPDEST DUP3 MLOAD PUSH4 0x1CEA46B7 PUSH1 0xE3 SHL DUP2 MSTORE SWAP4 DUP5 SWAP2 DUP3 SWAP1 GAS STATICCALL SWAP2 DUP3 ISZERO PUSH2 0x1E1 JUMPI DUP4 SWAP3 PUSH2 0x9D8 JUMPI PUSH1 0x20 DUP4 DUP4 MLOAD SWAP1 DUP2 MSTORE RETURN JUMPDEST POP DUP3 SWAP1 CALLVALUE PUSH2 0x883 JUMPI PUSH1 0x20 CALLDATASIZE PUSH1 0x3 NOT ADD SLT PUSH2 0x883 JUMPI DUP3 CALLDATALOAD DUP3 MSTORE PUSH1 0x3 PUSH1 0x20 MSTORE PUSH1 0x3 DUP2 DUP4 KECCAK256 PUSH2 0xA99 PUSH1 0x2 DUP3 ADD SLOAD ISZERO ISZERO PUSH2 0x1536 JUMP JUMPDEST ADD SLOAD SWAP2 PUSH3 0x15180 DUP4 ADD DUP1 SWAP4 GT PUSH2 0xAB3 JUMPI PUSH1 0x20 DUP4 DUP4 MLOAD SWAP1 DUP2 MSTORE RETURN JUMPDEST PUSH4 0x4E487B71 PUSH1 0xE0 SHL DUP2 MSTORE PUSH1 0x11 DUP5 MSTORE PUSH1 0x24 SWAP1 REVERT JUMPDEST DUP4 DUP3 CALLVALUE PUSH2 0x883 JUMPI DUP2 PUSH1 0x3 NOT CALLDATASIZE ADD SLT PUSH2 0x883 JUMPI SWAP1 SLOAD SWAP1 MLOAD PUSH1 0x1 PUSH1 0x1 PUSH1 0xA0 SHL SUB SWAP1 SWAP2 AND DUP2 MSTORE PUSH1 0x20 SWAP1 RETURN JUMPDEST DUP4 DUP3 CALLVALUE PUSH2 0x883 JUMPI DUP2 PUSH1 0x3 NOT CALLDATASIZE ADD SLT PUSH2 0x883 JUMPI MLOAD PUSH32 0x0 PUSH1 0x1 PUSH1 0x1 PUSH1 0xA0 SHL SUB AND DUP2 MSTORE PUSH1 0x20 SWAP1 RETURN JUMPDEST POP SWAP1 CALLVALUE PUSH2 0x1EB JUMPI DUP3 PUSH1 0x3 NOT CALLDATASIZE ADD SLT PUSH2 0x1EB JUMPI PUSH1 0x2 SLOAD SWAP1 PUSH1 0x8 DUP3 SWAP1 SHR PUSH1 0x1 PUSH1 0x1 PUSH1 0xA0 SHL SUB AND SWAP1 PUSH1 0x20 SWAP1 PUSH2 0xB65 DUP4 ISZERO ISZERO PUSH2 0x12F1 JUMP JUMPDEST PUSH1 0x24 DUP6 MLOAD DUP1 SWAP5 DUP2 SWAP4 PUSH4 0x17AA5FB7 PUSH1 0xE1 SHL DUP4 MSTORE CALLER SWAP1 DUP4 ADD MSTORE GAS STATICCALL SWAP1 DUP2 ISZERO PUSH2 0xBF3 JUMPI PUSH1 0x20 SWAP3 PUSH2 0xBBE PUSH32 0x62E78CEA01BEE320CD4E420270B5EA74000D11B0C9F74754EBDBFC544B05A258 SWAP6 SWAP4 PUSH1 0x1 SWAP4 DUP9 SWAP2 PUSH2 0xBD6 JUMPI JUMPDEST POP PUSH2 0x1479 JUMP JUMPDEST PUSH2 0xBC6 PUSH2 0x1575 JUMP JUMPDEST PUSH1 0xFF NOT AND OR PUSH1 0x2 SSTORE MLOAD CALLER DUP2 MSTORE LOG1 DUP1 RETURN JUMPDEST PUSH2 0xBED SWAP2 POP DUP7 RETURNDATASIZE DUP9 GT PUSH2 0x1DA JUMPI PUSH2 0x1CB DUP2 DUP4 PUSH2 0x1333 JUMP JUMPDEST CODESIZE PUSH2 0xBB8 JUMP JUMPDEST POP POP POP MLOAD SWAP1 RETURNDATASIZE SWAP1 DUP3 RETURNDATACOPY RETURNDATASIZE SWAP1 REVERT JUMPDEST DUP4 CALLVALUE PUSH2 0x22E JUMPI DUP1 PUSH1 0x3 NOT CALLDATASIZE ADD SLT PUSH2 0x22E JUMPI PUSH2 0xC19 PUSH2 0x1593 JUMP JUMPDEST DUP1 SLOAD PUSH1 0x1 PUSH1 0x1 PUSH1 0xA0 SHL SUB NOT DUP2 AND DUP3 SSTORE DUP2 SWAP1 PUSH1 0x1 PUSH1 0x1 PUSH1 0xA0 SHL SUB AND PUSH32 0x8BE0079C531659141344CD1FD0A4F28419497F9722A3DAAFE3B4186F6B6457E0 DUP3 DUP1 LOG3 DUP1 RETURN JUMPDEST POP CALLVALUE PUSH2 0x1EB JUMPI PUSH1 0x20 CALLDATASIZE PUSH1 0x3 NOT ADD SLT PUSH2 0x1EB JUMPI DUP1 PUSH1 0xFF SWAP2 PUSH1 0xC0 SWAP5 DUP5 CALLDATALOAD DUP2 MSTORE PUSH1 0x3 PUSH1 0x20 MSTORE KECCAK256 PUSH1 0x1 DUP1 PUSH1 0xA0 SHL SUB SWAP4 DUP5 DUP3 SLOAD AND SWAP5 PUSH1 0x1 DUP4 ADD SLOAD AND SWAP3 PUSH1 0x2 DUP4 ADD SLOAD SWAP2 PUSH1 0x3 DUP5 ADD SLOAD SWAP4 ADD SLOAD SWAP4 DUP2 MLOAD SWAP7 DUP8 MSTORE PUSH1 0x20 DUP8 ADD MSTORE DUP6 ADD MSTORE PUSH1 0x60 DUP5 ADD MSTORE DUP2 DUP2 AND ISZERO ISZERO PUSH1 0x80 DUP5 ADD MSTORE PUSH1 0x8 SHR AND ISZERO ISZERO PUSH1 0xA0 DUP3 ADD MSTORE RETURN JUMPDEST POP CALLVALUE PUSH2 0x1EB JUMPI PUSH2 0xCD8 CALLDATASIZE PUSH2 0x12BC JUMP JUMPDEST PUSH1 0x1 DUP1 PUSH1 0xA0 SWAP7 SWAP5 SWAP6 SWAP4 SWAP7 SHL SUB DUP1 SWAP5 PUSH2 0xCF8 DUP3 PUSH1 0x2 SLOAD PUSH1 0x8 SHR AND CALLER EQ PUSH2 0x14B8 JUMP JUMPDEST PUSH2 0xD00 PUSH2 0x1575 JUMP JUMPDEST AND SWAP4 DUP5 ISZERO PUSH2 0xE7A JUMPI DUP2 ISZERO PUSH2 0xE49 JUMPI DUP4 SLOAD SWAP4 PUSH1 0x0 NOT DUP6 EQ PUSH2 0xE36 JUMPI PUSH1 0x1 DUP6 ADD DUP2 SSTORE PUSH3 0x15180 TIMESTAMP ADD SWAP2 DUP3 TIMESTAMP GT PUSH2 0xE23 JUMPI DUP5 MLOAD SWAP1 PUSH1 0xC0 DUP3 ADD DUP3 DUP2 LT PUSH8 0xFFFFFFFFFFFFFFFF DUP3 GT OR PUSH2 0xE10 JUMPI SWAP3 DUP11 SWAP3 DUP9 SWAP3 DUP9 SWAP8 SWAP7 SWAP6 PUSH32 0x31BA85B55025DDB5BE9FE39085EFFB86A3E5B63876CF18F1D9E5926F7B84C01A SWAP10 MSTORE DUP11 DUP3 MSTORE DUP1 PUSH1 0x20 DUP4 ADD SWAP13 AND SWAP12 DUP13 DUP2 MSTORE DUP9 DUP4 ADD SWAP1 DUP9 DUP3 MSTORE PUSH1 0x60 DUP5 ADD SWAP3 TIMESTAMP DUP5 MSTORE DUP1 DUP12 PUSH1 0x80 DUP8 ADD SWAP10 DUP1 DUP12 MSTORE PUSH1 0xA0 DUP9 ADD SWAP10 DUP2 DUP12 MSTORE DUP2 MSTORE PUSH1 0x3 PUSH1 0x20 MSTORE KECCAK256 SWAP6 MLOAD AND SWAP1 PUSH12 0xFFFFFFFFFFFFFFFFFFFFFFFF PUSH1 0xA0 SHL SWAP2 DUP3 DUP8 SLOAD AND OR DUP7 SSTORE PUSH1 0x1 DUP7 ADD SWAP3 MLOAD AND SWAP1 DUP3 SLOAD AND OR SWAP1 SSTORE MLOAD PUSH1 0x2 DUP4 ADD SSTORE MLOAD PUSH1 0x3 DUP3 ADD SSTORE ADD SWAP2 MLOAD ISZERO ISZERO SWAP1 PUSH1 0xFF PUSH2 0xFF00 DUP5 SLOAD SWAP3 MLOAD ISZERO ISZERO PUSH1 0x8 SHL AND SWAP3 AND SWAP1 PUSH2 0xFFFF NOT AND OR OR SWAP1 SSTORE DUP3 MLOAD SWAP2 DUP3 MSTORE PUSH1 0x20 DUP3 ADD MSTORE LOG4 DUP1 RETURN JUMPDEST PUSH4 0x4E487B71 PUSH1 0xE0 SHL DUP12 MSTORE PUSH1 0x41 DUP5 MSTORE PUSH1 0x24 DUP12 REVERT JUMPDEST PUSH4 0x4E487B71 PUSH1 0xE0 SHL DUP10 MSTORE PUSH1 0x11 DUP3 MSTORE PUSH1 0x24 DUP10 REVERT JUMPDEST PUSH4 0x4E487B71 PUSH1 0xE0 SHL DUP9 MSTORE PUSH1 0x11 SWAP1 MSTORE PUSH1 0x24 DUP8 REVERT JUMPDEST DUP3 MLOAD PUSH3 0x461BCD PUSH1 0xE5 SHL DUP2 MSTORE PUSH1 0x20 DUP2 DUP7 ADD MSTORE PUSH1 0xB PUSH1 0x24 DUP3 ADD MSTORE PUSH11 0x1E995C9BC8185B5BDD5B9D PUSH1 0xAA SHL PUSH1 0x44 DUP3 ADD MSTORE PUSH1 0x64 SWAP1 REVERT JUMPDEST DUP3 MLOAD PUSH3 0x461BCD PUSH1 0xE5 SHL DUP2 MSTORE PUSH1 0x20 DUP2 DUP7 ADD MSTORE PUSH1 0xE PUSH1 0x24 DUP3 ADD MSTORE PUSH14 0x1E995C9BC81C9958DA5C1A595B9D PUSH1 0x92 SHL PUSH1 0x44 DUP3 ADD MSTORE PUSH1 0x64 SWAP1 REVERT JUMPDEST DUP4 DUP3 CALLVALUE PUSH2 0x883 JUMPI DUP2 PUSH1 0x3 NOT CALLDATASIZE ADD SLT PUSH2 0x883 JUMPI PUSH1 0x20 SWAP1 PUSH1 0xFF PUSH1 0x2 SLOAD AND SWAP1 MLOAD SWAP1 ISZERO ISZERO DUP2 MSTORE RETURN JUMPDEST POP SWAP1 CALLVALUE PUSH2 0x1EB JUMPI PUSH1 0x20 CALLDATASIZE PUSH1 0x3 NOT ADD SLT PUSH2 0x1EB JUMPI DUP1 CALLDATALOAD SWAP2 PUSH2 0xF00 PUSH1 0x1 DUP1 PUSH1 0xA0 SHL SUB PUSH1 0x2 SLOAD PUSH1 0x8 SHR AND CALLER EQ PUSH2 0x14B8 JUMP JUMPDEST DUP3 DUP5 MSTORE PUSH1 0x3 PUSH1 0x20 MSTORE DUP2 DUP2 DUP6 KECCAK256 ADD SWAP2 DUP3 SLOAD SWAP2 PUSH2 0xF1E PUSH1 0xFF DUP5 AND ISZERO PUSH2 0x14F7 JUMP JUMPDEST PUSH1 0xFF DUP4 PUSH1 0x8 SHR AND PUSH2 0xF5D JUMPI POP POP PUSH2 0xFF00 NOT AND PUSH2 0x100 OR SWAP1 SSTORE PUSH32 0x80325E888C1C82B732ED61A3AAA950AE32A233290F74A648D1A3339666450345 DUP3 DUP1 LOG2 DUP1 RETURN JUMPDEST SWAP1 PUSH1 0x20 PUSH1 0x64 SWAP3 MLOAD SWAP2 PUSH3 0x461BCD PUSH1 0xE5 SHL DUP4 MSTORE DUP3 ADD MSTORE PUSH1 0x11 PUSH1 0x24 DUP3 ADD MSTORE PUSH17 0x185B1C9958591E4818D85B98D95B1B1959 PUSH1 0x7A SHL PUSH1 0x44 DUP3 ADD MSTORE REVERT JUMPDEST POP SWAP1 CALLVALUE PUSH2 0x1EB JUMPI DUP3 PUSH1 0x3 NOT CALLDATASIZE ADD SLT PUSH2 0x1EB JUMPI PUSH1 0x2 SLOAD SWAP1 PUSH1 0x24 PUSH1 0x20 PUSH1 0x8 DUP5 SWAP1 SHR PUSH1 0x1 PUSH1 0x1 PUSH1 0xA0 SHL SUB AND PUSH2 0xFC7 DUP2 ISZERO ISZERO PUSH2 0x12F1 JUMP JUMPDEST DUP6 MLOAD PUSH4 0x17AA5FB7 PUSH1 0xE1 SHL DUP2 MSTORE CALLER DUP6 DUP3 ADD MSTORE SWAP3 DUP4 SWAP2 DUP3 SWAP1 GAS STATICCALL DUP1 ISZERO PUSH2 0x105A JUMPI PUSH2 0xFF5 SWAP2 DUP7 SWAP2 PUSH2 0x1041 JUMPI POP PUSH2 0x1479 JUMP JUMPDEST PUSH1 0xFF DUP3 AND ISZERO PUSH2 0x1033 JUMPI POP PUSH1 0xFF NOT AND PUSH1 0x2 SSTORE MLOAD CALLER DUP2 MSTORE PUSH32 0x5DB9EE0A495BF2E6FF9C91A7834C1BA4FDD244A5E8AA4E537BD38AEAE4B073AA SWAP1 PUSH1 0x20 SWAP1 LOG1 DUP1 RETURN JUMPDEST DUP3 MLOAD PUSH4 0x8DFC202B PUSH1 0xE0 SHL DUP2 MSTORE REVERT JUMPDEST PUSH2 0xBED SWAP2 POP PUSH1 0x20 RETURNDATASIZE PUSH1 0x20 GT PUSH2 0x1DA JUMPI PUSH2 0x1CB DUP2 DUP4 PUSH2 0x1333 JUMP JUMPDEST DUP5 MLOAD RETURNDATASIZE DUP8 DUP3 RETURNDATACOPY RETURNDATASIZE SWAP1 REVERT JUMPDEST POP CALLVALUE PUSH2 0x1EB JUMPI DUP3 PUSH1 0x3 NOT CALLDATASIZE ADD SLT PUSH2 0x1EB JUMPI DUP1 MLOAD PUSH4 0x70A08231 PUSH1 0xE0 SHL DUP2 MSTORE ADDRESS SWAP3 DUP2 ADD SWAP3 SWAP1 SWAP3 MSTORE PUSH1 0x20 DUP3 PUSH1 0x24 DUP2 PUSH32 0x0 PUSH1 0x1 PUSH1 0x1 PUSH1 0xA0 SHL SUB AND GAS STATICCALL SWAP2 DUP3 ISZERO PUSH2 0x1E1 JUMPI DUP4 SWAP3 PUSH2 0x9D8 JUMPI PUSH1 0x20 DUP4 DUP4 MLOAD SWAP1 DUP2 MSTORE RETURN JUMPDEST DUP4 DUP3 CALLVALUE PUSH2 0x883 JUMPI PUSH1 0x20 CALLDATASIZE PUSH1 0x3 NOT ADD SLT PUSH2 0x883 JUMPI PUSH1 0x20 SWAP1 PUSH2 0x10F8 PUSH2 0x10F3 PUSH2 0x12A1 JUMP JUMPDEST PUSH2 0x13E2 JUMP JUMPDEST SWAP1 MLOAD SWAP1 DUP2 MSTORE RETURN JUMPDEST POP SWAP1 CALLVALUE PUSH2 0x1EB JUMPI DUP3 PUSH1 0x3 NOT CALLDATASIZE ADD SLT PUSH2 0x1EB JUMPI PUSH1 0x20 SWAP3 POP SLOAD SWAP1 MLOAD SWAP1 DUP2 MSTORE RETURN JUMPDEST POP DUP3 CALLVALUE PUSH2 0x22E JUMPI PUSH1 0x20 CALLDATASIZE PUSH1 0x3 NOT ADD SLT PUSH2 0x22E JUMPI POP PUSH2 0x113D PUSH1 0x20 SWAP3 CALLDATALOAD PUSH2 0x136B JUMP JUMPDEST SWAP1 MLOAD SWAP1 ISZERO ISZERO DUP2 MSTORE RETURN JUMPDEST POP SWAP2 SWAP1 CALLVALUE PUSH2 0x883 JUMPI DUP2 PUSH1 0x3 NOT CALLDATASIZE ADD SLT PUSH2 0x883 JUMPI PUSH1 0x2 SLOAD PUSH1 0x1 PUSH1 0x1 PUSH1 0xA0 SHL SUB SWAP4 SWAP1 DUP3 SWAP1 DUP5 SWAP1 PUSH1 0x8 SHR DUP7 AND PUSH2 0x117A DUP2 ISZERO ISZERO PUSH2 0x12F1 JUMP JUMPDEST DUP4 MLOAD PUSH4 0xA0E67E2B PUSH1 0xE0 SHL DUP2 MSTORE SWAP3 DUP4 SWAP2 DUP3 SWAP1 GAS STATICCALL SWAP3 DUP4 ISZERO PUSH2 0x1297 JUMPI DUP5 SWAP4 PUSH2 0x11D9 JUMPI JUMPDEST POP POP SWAP2 DUP3 MLOAD SWAP3 PUSH1 0x20 DUP1 DUP1 DUP7 ADD SWAP3 DUP2 DUP8 MSTORE DUP6 MLOAD DUP1 SWAP5 MSTORE DUP7 ADD SWAP5 ADD SWAP3 JUMPDEST DUP3 DUP2 LT PUSH2 0x11C3 JUMPI DUP6 DUP6 SUB DUP7 RETURN JUMPDEST DUP4 MLOAD DUP8 AND DUP6 MSTORE SWAP4 DUP2 ADD SWAP4 SWAP3 DUP2 ADD SWAP3 PUSH1 0x1 ADD PUSH2 0x11B6 JUMP JUMPDEST SWAP1 SWAP2 SWAP3 POP RETURNDATASIZE DUP1 DUP6 DUP5 RETURNDATACOPY PUSH2 0x11EC DUP2 DUP5 PUSH2 0x1333 JUMP JUMPDEST DUP3 ADD PUSH1 0x20 SWAP2 DUP3 DUP5 DUP4 SUB SLT PUSH2 0x1293 JUMPI DUP4 MLOAD PUSH8 0xFFFFFFFFFFFFFFFF SWAP5 DUP6 DUP3 GT PUSH2 0x1278 JUMPI ADD SWAP1 DUP3 PUSH1 0x1F DUP4 ADD SLT ISZERO PUSH2 0x127C JUMPI DUP2 MLOAD SWAP5 DUP6 GT PUSH2 0x1280 JUMPI POP DUP4 PUSH1 0x5 SHL SWAP1 DUP6 MLOAD SWAP5 PUSH2 0x1238 DUP6 DUP5 ADD DUP8 PUSH2 0x1333 JUMP JUMPDEST DUP6 MSTORE DUP4 DUP1 DUP7 ADD SWAP3 DUP3 ADD ADD SWAP3 DUP4 GT PUSH2 0x127C JUMPI DUP4 ADD SWAP1 JUMPDEST DUP3 DUP3 LT PUSH2 0x1260 JUMPI POP POP POP POP SWAP1 CODESIZE DUP1 PUSH2 0x119B JUMP JUMPDEST DUP2 MLOAD DUP9 DUP2 AND DUP2 SUB PUSH2 0x1278 JUMPI DUP2 MSTORE SWAP1 DUP4 ADD SWAP1 DUP4 ADD PUSH2 0x124D JUMP JUMPDEST DUP8 DUP1 REVERT JUMPDEST DUP7 DUP1 REVERT JUMPDEST PUSH4 0x4E487B71 PUSH1 0xE0 SHL DUP8 MSTORE PUSH1 0x41 SWAP1 MSTORE PUSH1 0x24 DUP7 REVERT JUMPDEST DUP6 DUP1 REVERT JUMPDEST DUP3 MLOAD RETURNDATASIZE DUP7 DUP3 RETURNDATACOPY RETURNDATASIZE SWAP1 REVERT JUMPDEST PUSH1 0x4 CALLDATALOAD SWAP1 PUSH1 0x1 PUSH1 0x1 PUSH1 0xA0 SHL SUB DUP3 AND DUP3 SUB PUSH2 0x12B7 JUMPI JUMP JUMPDEST PUSH1 0x0 DUP1 REVERT JUMPDEST PUSH1 0x60 SWAP1 PUSH1 0x3 NOT ADD SLT PUSH2 0x12B7 JUMPI PUSH1 0x1 PUSH1 0x1 PUSH1 0xA0 SHL SUB SWAP1 PUSH1 0x4 CALLDATALOAD DUP3 DUP2 AND DUP2 SUB PUSH2 0x12B7 JUMPI SWAP2 PUSH1 0x24 CALLDATALOAD SWAP1 DUP2 AND DUP2 SUB PUSH2 0x12B7 JUMPI SWAP1 PUSH1 0x44 CALLDATALOAD SWAP1 JUMP JUMPDEST ISZERO PUSH2 0x12F8 JUMPI JUMP JUMPDEST PUSH1 0x40 MLOAD PUSH3 0x461BCD PUSH1 0xE5 SHL DUP2 MSTORE PUSH1 0x20 PUSH1 0x4 DUP3 ADD MSTORE PUSH1 0x13 PUSH1 0x24 DUP3 ADD MSTORE PUSH19 0x19DB9BDCDA5CC81CD85999481B9BDD081CD95D PUSH1 0x6A SHL PUSH1 0x44 DUP3 ADD MSTORE PUSH1 0x64 SWAP1 REVERT JUMPDEST SWAP1 PUSH1 0x1F DUP1 NOT SWAP2 ADD AND DUP2 ADD SWAP1 DUP2 LT PUSH8 0xFFFFFFFFFFFFFFFF DUP3 GT OR PUSH2 0x1355 JUMPI PUSH1 0x40 MSTORE JUMP JUMPDEST PUSH4 0x4E487B71 PUSH1 0xE0 SHL PUSH1 0x0 MSTORE PUSH1 0x41 PUSH1 0x4 MSTORE PUSH1 0x24 PUSH1 0x0 REVERT JUMPDEST PUSH1 0x0 MSTORE PUSH1 0x3 PUSH1 0x20 MSTORE PUSH1 0x40 PUSH1 0x0 KECCAK256 PUSH1 0x2 DUP2 ADD SLOAD ISZERO DUP1 ISZERO PUSH2 0x13D4 JUMPI JUMPDEST DUP1 ISZERO PUSH2 0x13C3 JUMPI JUMPDEST PUSH2 0x13BD JUMPI PUSH1 0x3 ADD SLOAD PUSH3 0x15180 DUP2 ADD DUP1 SWAP2 GT PUSH2 0x13A7 JUMPI TIMESTAMP GT ISZERO SWAP1 JUMP JUMPDEST PUSH4 0x4E487B71 PUSH1 0xE0 SHL PUSH1 0x0 MSTORE PUSH1 0x11 PUSH1 0x4 MSTORE PUSH1 0x24 PUSH1 0x0 REVERT JUMPDEST POP PUSH1 0x0 SWAP1 JUMP JUMPDEST POP PUSH1 0xFF PUSH1 0x4 DUP3 ADD SLOAD PUSH1 0x8 SHR AND PUSH2 0x138C JUMP JUMPDEST POP PUSH1 0xFF PUSH1 0x4 DUP3 ADD SLOAD AND PUSH2 0x1385 JUMP JUMPDEST PUSH1 0x1 PUSH1 0x1 PUSH1 0xA0 SHL SUB AND DUP1 ISZERO PUSH2 0x145C JUMPI PUSH1 0x20 PUSH1 0x24 SWAP2 PUSH1 0x40 MLOAD SWAP3 DUP4 DUP1 SWAP3 PUSH4 0x70A08231 PUSH1 0xE0 SHL DUP3 MSTORE ADDRESS PUSH1 0x4 DUP4 ADD MSTORE GAS STATICCALL SWAP1 DUP2 ISZERO PUSH2 0x1450 JUMPI PUSH1 0x0 SWAP2 PUSH2 0x1421 JUMPI POP SWAP1 JUMP JUMPDEST SWAP1 POP PUSH1 0x20 DUP2 RETURNDATASIZE PUSH1 0x20 GT PUSH2 0x1448 JUMPI JUMPDEST DUP2 PUSH2 0x143C PUSH1 0x20 SWAP4 DUP4 PUSH2 0x1333 JUMP JUMPDEST DUP2 ADD SUB SLT PUSH2 0x12B7 JUMPI MLOAD SWAP1 JUMP JUMPDEST RETURNDATASIZE SWAP2 POP PUSH2 0x142F JUMP JUMPDEST PUSH1 0x40 MLOAD RETURNDATASIZE PUSH1 0x0 DUP3 RETURNDATACOPY RETURNDATASIZE SWAP1 REVERT JUMPDEST POP SELFBALANCE SWAP1 JUMP JUMPDEST SWAP1 DUP2 PUSH1 0x20 SWAP2 SUB SLT PUSH2 0x12B7 JUMPI MLOAD DUP1 ISZERO ISZERO DUP2 SUB PUSH2 0x12B7 JUMPI SWAP1 JUMP JUMPDEST ISZERO PUSH2 0x1480 JUMPI JUMP JUMPDEST PUSH1 0x40 MLOAD PUSH3 0x461BCD PUSH1 0xE5 SHL DUP2 MSTORE PUSH1 0x20 PUSH1 0x4 DUP3 ADD MSTORE PUSH1 0x10 PUSH1 0x24 DUP3 ADD MSTORE PUSH16 0x3737BA1033B737B9B4B99037BBB732B9 PUSH1 0x81 SHL PUSH1 0x44 DUP3 ADD MSTORE PUSH1 0x64 SWAP1 REVERT JUMPDEST ISZERO PUSH2 0x14BF JUMPI JUMP JUMPDEST PUSH1 0x40 MLOAD PUSH3 0x461BCD PUSH1 0xE5 SHL DUP2 MSTORE PUSH1 0x20 PUSH1 0x4 DUP3 ADD MSTORE PUSH1 0x10 PUSH1 0x24 DUP3 ADD MSTORE PUSH16 0x6F6E6C7920676E6F7369732073616665 PUSH1 0x80 SHL PUSH1 0x44 DUP3 ADD MSTORE PUSH1 0x64 SWAP1 REVERT JUMPDEST ISZERO PUSH2 0x14FE JUMPI JUMP JUMPDEST PUSH1 0x40 MLOAD PUSH3 0x461BCD PUSH1 0xE5 SHL DUP2 MSTORE PUSH1 0x20 PUSH1 0x4 DUP3 ADD MSTORE PUSH1 0x10 PUSH1 0x24 DUP3 ADD MSTORE PUSH16 0x185B1C9958591E48195E1958DD5D1959 PUSH1 0x82 SHL PUSH1 0x44 DUP3 ADD MSTORE PUSH1 0x64 SWAP1 REVERT JUMPDEST ISZERO PUSH2 0x153D JUMPI JUMP JUMPDEST PUSH1 0x40 MLOAD PUSH3 0x461BCD PUSH1 0xE5 SHL DUP2 MSTORE PUSH1 0x20 PUSH1 0x4 DUP3 ADD MSTORE PUSH1 0x10 PUSH1 0x24 DUP3 ADD MSTORE PUSH16 0x1A5B9D985B1A59081C1C9BDC1BDCD85B PUSH1 0x82 SHL PUSH1 0x44 DUP3 ADD MSTORE PUSH1 0x64 SWAP1 REVERT JUMPDEST PUSH1 0xFF PUSH1 0x2 SLOAD AND PUSH2 0x1581 JUMPI JUMP JUMPDEST PUSH1 0x40 MLOAD PUSH4 0xD93C0665 PUSH1 0xE0 SHL DUP2 MSTORE PUSH1 0x4 SWAP1 REVERT JUMPDEST PUSH1 0x0 SLOAD PUSH1 0x1 PUSH1 0x1 PUSH1 0xA0 SHL SUB AND CALLER SUB PUSH2 0x15A7 JUMPI JUMP JUMPDEST PUSH1 0x40 MLOAD PUSH4 0x118CDAA7 PUSH1 0xE0 SHL DUP2 MSTORE CALLER PUSH1 0x4 DUP3 ADD MSTORE PUSH1 0x24 SWAP1 REVERT JUMPDEST PUSH1 0x0 DUP1 SLOAD PUSH1 0x1 PUSH1 0x1 PUSH1 0xA0 SHL SUB SWAP3 DUP4 AND PUSH1 0x1 PUSH1 0x1 PUSH1 0xA0 SHL SUB NOT DUP3 AND DUP2 OR DUP4 SSTORE SWAP3 AND SWAP1 PUSH32 0x8BE0079C531659141344CD1FD0A4F28419497F9722A3DAAFE3B4186F6B6457E0 SWAP1 DUP1 LOG3 JUMP JUMPDEST SWAP1 PUSH1 0x0 PUSH1 0x20 SWAP2 DUP3 DUP2 MLOAD SWAP2 ADD DUP3 DUP6 GAS CALL ISZERO PUSH2 0x1450 JUMPI PUSH1 0x0 MLOAD RETURNDATASIZE PUSH2 0x1659 JUMPI POP PUSH1 0x1 PUSH1 0x1 PUSH1 0xA0 SHL SUB DUP2 AND EXTCODESIZE ISZERO JUMPDEST PUSH2 0x1637 JUMPI POP JUMP JUMPDEST PUSH1 0x40 MLOAD PUSH4 0x5274AFE7 PUSH1 0xE0 SHL DUP2 MSTORE PUSH1 0x1 PUSH1 0x1 PUSH1 0xA0 SHL SUB SWAP1 SWAP2 AND PUSH1 0x4 DUP3 ADD MSTORE PUSH1 0x24 SWAP1 REVERT JUMPDEST PUSH1 0x1 EQ ISZERO PUSH2 0x1630 JUMP INVALID LOG2 PUSH5 0x6970667358 0x22 SLT KECCAK256 0x4B 0xBA 0xD 0xAA 0x2B PUSH22 0x7C94D41454A472CE577FACA787552948AA64B7F96B2C CREATE2 MCOPY JUMPDEST POP PUSH5 0x736F6C6343 STOP ADDMOD XOR STOP CALLER "
        },
        "methodIdentifiers": {
          "USDC()": "89a30271",
          "USDT()": "c54e44eb",
          "approveSpending(address,address,uint256)": "d8a14cbe",
          "cancelTransfer(uint256)": "59caecb5",
          "executeTransfer(uint256)": "f05d5752",
          "getGnosisOwners()": "064de618",
          "getGnosisThreshold()": "921e5e59",
          "getProposal(uint256)": "c7f758a8",
          "getProposalDeadline(uint256)": "8f363200",
          "getTokenBalance(address)": "3aecd0e3",
          "getUSDCBalance()": "3cfd1ccc",
          "getUSDTBalance()": "9785fac8",
          "gnosisSafe()": "a84173ae",
          "isGnosisOwner(address)": "fc9ff3eb",
          "isProposalWindowActive(uint256)": "17292d2a",
          "nextProposalId()": "2ab09d14",
          "owner()": "8da5cb5b",
          "pause()": "8456cb59",
          "paused()": "5c975abb",
          "pendingTransfers(uint256)": "6577b86a",
          "proposeTransfer(address,address,uint256)": "64a8a0a0",
          "renounceOwnership()": "715018a6",
          "setGnosisSafe(address)": "c3085a3e",
          "transferOwnership(address)": "f2fde38b",
          "transferOwnershipToGnosisSafe()": "f9686ca9",
          "unpause()": "3f4ba83a"
        }
      }
    }
  }
}