{
  "src/RavenAccessWithSubgraphHooks.sol": {
    "RavenAccessWithSubgraphHooks": {
      "abi": [
        {
          "inputs": [
            {
              "internalType": "address",
              "name": "_usdc",
              "type": "address"
            },
            {
              "internalType": "address",
              "name": "_usdt",
              "type": "address"
            },
            {
              "internalType": "address",
              "name": "_treasury",
              "type": "address"
            },
            {
              "internalType": "address",
              "name": "_oracle",
              "type": "address"
            }
          ],
          "stateMutability": "nonpayable",
          "type": "constructor"
        },
        {
          "inputs": [],
          "name": "EnforcedPause",
          "type": "error"
        },
        {
          "inputs": [],
          "name": "ExpectedPause",
          "type": "error"
        },
        {
          "inputs": [
            {
              "internalType": "address",
              "name": "owner",
              "type": "address"
            }
          ],
          "name": "OwnableInvalidOwner",
          "type": "error"
        },
        {
          "inputs": [
            {
              "internalType": "address",
              "name": "account",
              "type": "address"
            }
          ],
          "name": "OwnableUnauthorizedAccount",
          "type": "error"
        },
        {
          "inputs": [],
          "name": "ReentrancyGuardReentrantCall",
          "type": "error"
        },
        {
          "inputs": [
            {
              "internalType": "address",
              "name": "token",
              "type": "address"
            }
          ],
          "name": "SafeERC20FailedOperation",
          "type": "error"
        },
        {
          "anonymous": false,
          "inputs": [
            {
              "indexed": false,
              "internalType": "address[]",
              "name": "users",
              "type": "address[]"
            },
            {
              "indexed": false,
              "internalType": "uint256[]",
              "name": "amounts",
              "type": "uint256[]"
            },
            {
              "indexed": false,
              "internalType": "string",
              "name": "reason",
              "type": "string"
            },
            {
              "indexed": true,
              "internalType": "address",
              "name": "by",
              "type": "address"
            }
          ],
          "name": "CreditsBatchChanged",
          "type": "event"
        },
        {
          "anonymous": false,
          "inputs": [
            {
              "indexed": true,
              "internalType": "address",
              "name": "user",
              "type": "address"
            },
            {
              "indexed": false,
              "internalType": "int256",
              "name": "delta",
              "type": "int256"
            },
            {
              "indexed": false,
              "internalType": "uint256",
              "name": "newBalance",
              "type": "uint256"
            },
            {
              "indexed": false,
              "internalType": "string",
              "name": "reason",
              "type": "string"
            },
            {
              "indexed": true,
              "internalType": "address",
              "name": "by",
              "type": "address"
            },
            {
              "indexed": false,
              "internalType": "uint256",
              "name": "seq",
              "type": "uint256"
            }
          ],
          "name": "CreditsChanged",
          "type": "event"
        },
        {
          "anonymous": false,
          "inputs": [
            {
              "indexed": false,
              "internalType": "uint256",
              "name": "cap",
              "type": "uint256"
            }
          ],
          "name": "GlobalPriceAccuracyCapUpdated",
          "type": "event"
        },
        {
          "anonymous": false,
          "inputs": [
            {
              "indexed": true,
              "internalType": "address",
              "name": "user",
              "type": "address"
            },
            {
              "indexed": false,
              "internalType": "string",
              "name": "mode",
              "type": "string"
            },
            {
              "indexed": false,
              "internalType": "uint256",
              "name": "quantity",
              "type": "uint256"
            },
            {
              "indexed": false,
              "internalType": "bool",
              "name": "billedToSubscription",
              "type": "bool"
            },
            {
              "indexed": false,
              "internalType": "uint256",
              "name": "creditsCharged",
              "type": "uint256"
            },
            {
              "indexed": false,
              "internalType": "uint8",
              "name": "subscriptionPlan",
              "type": "uint8"
            },
            {
              "indexed": false,
              "internalType": "uint256",
              "name": "subscriptionWindowUsed",
              "type": "uint256"
            },
            {
              "indexed": false,
              "internalType": "string",
              "name": "contextHash",
              "type": "string"
            },
            {
              "indexed": false,
              "internalType": "uint256",
              "name": "timestamp",
              "type": "uint256"
            },
            {
              "indexed": false,
              "internalType": "uint256",
              "name": "seq",
              "type": "uint256"
            }
          ],
          "name": "InferenceLog",
          "type": "event"
        },
        {
          "anonymous": false,
          "inputs": [
            {
              "indexed": true,
              "internalType": "address",
              "name": "oracle",
              "type": "address"
            }
          ],
          "name": "OracleSet",
          "type": "event"
        },
        {
          "anonymous": false,
          "inputs": [
            {
              "indexed": true,
              "internalType": "address",
              "name": "previousOwner",
              "type": "address"
            },
            {
              "indexed": true,
              "internalType": "address",
              "name": "newOwner",
              "type": "address"
            }
          ],
          "name": "OwnershipTransferred",
          "type": "event"
        },
        {
          "anonymous": false,
          "inputs": [
            {
              "indexed": false,
              "internalType": "address",
              "name": "account",
              "type": "address"
            }
          ],
          "name": "Paused",
          "type": "event"
        },
        {
          "anonymous": false,
          "inputs": [
            {
              "indexed": true,
              "internalType": "uint8",
              "name": "planId",
              "type": "uint8"
            },
            {
              "indexed": false,
              "internalType": "uint256",
              "name": "priceUnits",
              "type": "uint256"
            },
            {
              "indexed": false,
              "internalType": "uint256",
              "name": "monthlyCap",
              "type": "uint256"
            },
            {
              "indexed": false,
              "internalType": "bool",
              "name": "active",
              "type": "bool"
            }
          ],
          "name": "PlanSet",
          "type": "event"
        },
        {
          "anonymous": false,
          "inputs": [
            {
              "indexed": true,
              "internalType": "address",
              "name": "user",
              "type": "address"
            },
            {
              "indexed": true,
              "internalType": "uint8",
              "name": "planId",
              "type": "uint8"
            },
            {
              "indexed": false,
              "internalType": "uint256",
              "name": "cancelledAt",
              "type": "uint256"
            },
            {
              "indexed": false,
              "internalType": "uint256",
              "name": "seq",
              "type": "uint256"
            }
          ],
          "name": "SubscriptionCancelled",
          "type": "event"
        },
        {
          "anonymous": false,
          "inputs": [
            {
              "indexed": true,
              "internalType": "address",
              "name": "user",
              "type": "address"
            },
            {
              "indexed": true,
              "internalType": "uint8",
              "name": "planId",
              "type": "uint8"
            },
            {
              "indexed": false,
              "internalType": "address",
              "name": "token",
              "type": "address"
            },
            {
              "indexed": false,
              "internalType": "uint256",
              "name": "paidUnits",
              "type": "uint256"
            },
            {
              "indexed": false,
              "internalType": "uint256",
              "name": "startTimestamp",
              "type": "uint256"
            },
            {
              "indexed": false,
              "internalType": "uint256",
              "name": "seq",
              "type": "uint256"
            }
          ],
          "name": "SubscriptionPurchased",
          "type": "event"
        },
        {
          "anonymous": false,
          "inputs": [
            {
              "indexed": true,
              "internalType": "address",
              "name": "user",
              "type": "address"
            },
            {
              "indexed": true,
              "internalType": "uint8",
              "name": "planId",
              "type": "uint8"
            },
            {
              "indexed": false,
              "internalType": "uint256",
              "name": "paidUnits",
              "type": "uint256"
            },
            {
              "indexed": false,
              "internalType": "uint256",
              "name": "renewedAt",
              "type": "uint256"
            },
            {
              "indexed": false,
              "internalType": "uint256",
              "name": "seq",
              "type": "uint256"
            }
          ],
          "name": "SubscriptionRenewed",
          "type": "event"
        },
        {
          "anonymous": false,
          "inputs": [
            {
              "indexed": true,
              "internalType": "address",
              "name": "treasury",
              "type": "address"
            }
          ],
          "name": "TreasurySet",
          "type": "event"
        },
        {
          "anonymous": false,
          "inputs": [
            {
              "indexed": false,
              "internalType": "address",
              "name": "account",
              "type": "address"
            }
          ],
          "name": "Unpaused",
          "type": "event"
        },
        {
          "anonymous": false,
          "inputs": [
            {
              "indexed": true,
              "internalType": "address",
              "name": "user",
              "type": "address"
            },
            {
              "indexed": false,
              "internalType": "string",
              "name": "memoryHash",
              "type": "string"
            },
            {
              "indexed": false,
              "internalType": "uint256",
              "name": "updatedAt",
              "type": "uint256"
            },
            {
              "indexed": true,
              "internalType": "address",
              "name": "by",
              "type": "address"
            },
            {
              "indexed": false,
              "internalType": "uint256",
              "name": "seq",
              "type": "uint256"
            }
          ],
          "name": "UserMemoryUpdated",
          "type": "event"
        },
        {
          "inputs": [],
          "name": "COST_BASIC",
          "outputs": [
            {
              "internalType": "uint256",
              "name": "",
              "type": "uint256"
            }
          ],
          "stateMutability": "view",
          "type": "function"
        },
        {
          "inputs": [],
          "name": "COST_FULL",
          "outputs": [
            {
              "internalType": "uint256",
              "name": "",
              "type": "uint256"
            }
          ],
          "stateMutability": "view",
          "type": "function"
        },
        {
          "inputs": [],
          "name": "COST_PRICE_ACCURACY",
          "outputs": [
            {
              "internalType": "uint256",
              "name": "",
              "type": "uint256"
            }
          ],
          "stateMutability": "view",
          "type": "function"
        },
        {
          "inputs": [],
          "name": "COST_TAGS",
          "outputs": [
            {
              "internalType": "uint256",
              "name": "",
              "type": "uint256"
            }
          ],
          "stateMutability": "view",
          "type": "function"
        },
        {
          "inputs": [],
          "name": "GLOBAL_PRICE_ACCURACY_CAP",
          "outputs": [
            {
              "internalType": "uint256",
              "name": "",
              "type": "uint256"
            }
          ],
          "stateMutability": "view",
          "type": "function"
        },
        {
          "inputs": [],
          "name": "USDC",
          "outputs": [
            {
              "internalType": "contract IERC20",
              "name": "",
              "type": "address"
            }
          ],
          "stateMutability": "view",
          "type": "function"
        },
        {
          "inputs": [],
          "name": "USDT",
          "outputs": [
            {
              "internalType": "contract IERC20",
              "name": "",
              "type": "address"
            }
          ],
          "stateMutability": "view",
          "type": "function"
        },
        {
          "inputs": [
            {
              "internalType": "address",
              "name": "user",
              "type": "address"
            },
            {
              "internalType": "uint256",
              "name": "amount",
              "type": "uint256"
            },
            {
              "internalType": "string",
              "name": "reason",
              "type": "string"
            }
          ],
          "name": "awardCredits",
          "outputs": [],
          "stateMutability": "nonpayable",
          "type": "function"
        },
        {
          "inputs": [
            {
              "internalType": "address[]",
              "name": "users",
              "type": "address[]"
            },
            {
              "internalType": "uint256[]",
              "name": "amounts",
              "type": "uint256[]"
            },
            {
              "internalType": "string",
              "name": "reason",
              "type": "string"
            }
          ],
          "name": "awardCreditsBatch",
          "outputs": [],
          "stateMutability": "nonpayable",
          "type": "function"
        },
        {
          "inputs": [],
          "name": "cancelSubscription",
          "outputs": [],
          "stateMutability": "nonpayable",
          "type": "function"
        },
        {
          "inputs": [
            {
              "internalType": "address",
              "name": "",
              "type": "address"
            }
          ],
          "name": "credits",
          "outputs": [
            {
              "internalType": "uint256",
              "name": "",
              "type": "uint256"
            }
          ],
          "stateMutability": "view",
          "type": "function"
        },
        {
          "inputs": [
            {
              "internalType": "address",
              "name": "user",
              "type": "address"
            }
          ],
          "name": "getUserCredits",
          "outputs": [
            {
              "internalType": "uint256",
              "name": "",
              "type": "uint256"
            }
          ],
          "stateMutability": "view",
          "type": "function"
        },
        {
          "inputs": [
            {
              "internalType": "address",
              "name": "user",
              "type": "address"
            }
          ],
          "name": "getUserSubscription",
          "outputs": [
            {
              "internalType": "uint8",
              "name": "planId",
              "type": "uint8"
            },
            {
              "internalType": "uint256",
              "name": "startTs",
              "type": "uint256"
            },
            {
              "internalType": "uint256",
              "name": "usedThisWindow",
              "type": "uint256"
            },
            {
              "internalType": "uint256",
              "name": "lastRenewedAt",
              "type": "uint256"
            },
            {
              "internalType": "uint256",
              "name": "planMonthlyCap",
              "type": "uint256"
            },
            {
              "internalType": "uint256",
              "name": "planPriceUnits",
              "type": "uint256"
            }
          ],
          "stateMutability": "view",
          "type": "function"
        },
        {
          "inputs": [
            {
              "internalType": "address",
              "name": "user",
              "type": "address"
            },
            {
              "internalType": "uint256",
              "name": "amount",
              "type": "uint256"
            },
            {
              "internalType": "string",
              "name": "reason",
              "type": "string"
            }
          ],
          "name": "increaseCredits",
          "outputs": [],
          "stateMutability": "nonpayable",
          "type": "function"
        },
        {
          "inputs": [],
          "name": "oracle",
          "outputs": [
            {
              "internalType": "address",
              "name": "",
              "type": "address"
            }
          ],
          "stateMutability": "view",
          "type": "function"
        },
        {
          "inputs": [],
          "name": "owner",
          "outputs": [
            {
              "internalType": "address",
              "name": "",
              "type": "address"
            }
          ],
          "stateMutability": "view",
          "type": "function"
        },
        {
          "inputs": [
            {
              "internalType": "address",
              "name": "user",
              "type": "address"
            },
            {
              "internalType": "uint256",
              "name": "amount",
              "type": "uint256"
            },
            {
              "internalType": "string",
              "name": "note",
              "type": "string"
            }
          ],
          "name": "ownerMintCredits",
          "outputs": [],
          "stateMutability": "nonpayable",
          "type": "function"
        },
        {
          "inputs": [],
          "name": "paused",
          "outputs": [
            {
              "internalType": "bool",
              "name": "",
              "type": "bool"
            }
          ],
          "stateMutability": "view",
          "type": "function"
        },
        {
          "inputs": [
            {
              "internalType": "uint8",
              "name": "",
              "type": "uint8"
            }
          ],
          "name": "plans",
          "outputs": [
            {
              "internalType": "uint256",
              "name": "priceUnits",
              "type": "uint256"
            },
            {
              "internalType": "uint256",
              "name": "monthlyCap",
              "type": "uint256"
            },
            {
              "internalType": "bool",
              "name": "active",
              "type": "bool"
            }
          ],
          "stateMutability": "view",
          "type": "function"
        },
        {
          "inputs": [
            {
              "internalType": "uint8",
              "name": "planId",
              "type": "uint8"
            },
            {
              "internalType": "contract IERC20",
              "name": "token",
              "type": "address"
            },
            {
              "internalType": "uint256",
              "name": "amountUnits",
              "type": "uint256"
            }
          ],
          "name": "purchaseSubscriptionWithToken",
          "outputs": [],
          "stateMutability": "nonpayable",
          "type": "function"
        },
        {
          "inputs": [
            {
              "internalType": "address",
              "name": "user",
              "type": "address"
            },
            {
              "internalType": "uint8",
              "name": "planId",
              "type": "uint8"
            },
            {
              "internalType": "uint256",
              "name": "paidUnits",
              "type": "uint256"
            }
          ],
          "name": "renewSubscriptionFor",
          "outputs": [],
          "stateMutability": "nonpayable",
          "type": "function"
        },
        {
          "inputs": [],
          "name": "renounceOwnership",
          "outputs": [],
          "stateMutability": "nonpayable",
          "type": "function"
        },
        {
          "inputs": [
            {
              "internalType": "string",
              "name": "mode",
              "type": "string"
            },
            {
              "internalType": "uint256",
              "name": "quantity",
              "type": "uint256"
            },
            {
              "internalType": "string",
              "name": "contextHash",
              "type": "string"
            }
          ],
          "name": "requestInference",
          "outputs": [],
          "stateMutability": "nonpayable",
          "type": "function"
        },
        {
          "inputs": [
            {
              "internalType": "address",
              "name": "user",
              "type": "address"
            },
            {
              "internalType": "uint256",
              "name": "newBalance",
              "type": "uint256"
            },
            {
              "internalType": "string",
              "name": "reason",
              "type": "string"
            }
          ],
          "name": "setCredits",
          "outputs": [],
          "stateMutability": "nonpayable",
          "type": "function"
        },
        {
          "inputs": [
            {
              "internalType": "uint256",
              "name": "cap",
              "type": "uint256"
            }
          ],
          "name": "setGlobalPriceAccuracyCap",
          "outputs": [],
          "stateMutability": "nonpayable",
          "type": "function"
        },
        {
          "inputs": [
            {
              "internalType": "address",
              "name": "_oracle",
              "type": "address"
            }
          ],
          "name": "setOracle",
          "outputs": [],
          "stateMutability": "nonpayable",
          "type": "function"
        },
        {
          "inputs": [
            {
              "internalType": "uint8",
              "name": "planId",
              "type": "uint8"
            },
            {
              "internalType": "uint256",
              "name": "priceUnits",
              "type": "uint256"
            },
            {
              "internalType": "uint256",
              "name": "monthlyCap",
              "type": "uint256"
            },
            {
              "internalType": "bool",
              "name": "active",
              "type": "bool"
            }
          ],
          "name": "setPlan",
          "outputs": [],
          "stateMutability": "nonpayable",
          "type": "function"
        },
        {
          "inputs": [
            {
              "internalType": "address",
              "name": "_treasury",
              "type": "address"
            }
          ],
          "name": "setTreasury",
          "outputs": [],
          "stateMutability": "nonpayable",
          "type": "function"
        },
        {
          "inputs": [
            {
              "internalType": "address",
              "name": "",
              "type": "address"
            }
          ],
          "name": "subscriptions",
          "outputs": [
            {
              "internalType": "uint8",
              "name": "planId",
              "type": "uint8"
            },
            {
              "internalType": "uint256",
              "name": "startTimestamp",
              "type": "uint256"
            },
            {
              "internalType": "uint256",
              "name": "usedThisWindow",
              "type": "uint256"
            },
            {
              "internalType": "uint256",
              "name": "lastRenewedAt",
              "type": "uint256"
            }
          ],
          "stateMutability": "view",
          "type": "function"
        },
        {
          "inputs": [
            {
              "internalType": "address",
              "name": "newOwner",
              "type": "address"
            }
          ],
          "name": "transferOwnership",
          "outputs": [],
          "stateMutability": "nonpayable",
          "type": "function"
        },
        {
          "inputs": [],
          "name": "treasury",
          "outputs": [
            {
              "internalType": "address",
              "name": "",
              "type": "address"
            }
          ],
          "stateMutability": "view",
          "type": "function"
        },
        {
          "inputs": [
            {
              "internalType": "address",
              "name": "user",
              "type": "address"
            },
            {
              "internalType": "string",
              "name": "memoryHash",
              "type": "string"
            }
          ],
          "name": "updateUserMemoryPointer",
          "outputs": [],
          "stateMutability": "nonpayable",
          "type": "function"
        },
        {
          "inputs": [
            {
              "internalType": "address",
              "name": "",
              "type": "address"
            }
          ],
          "name": "userSequence",
          "outputs": [
            {
              "internalType": "uint256",
              "name": "",
              "type": "uint256"
            }
          ],
          "stateMutability": "view",
          "type": "function"
        }
      ],
      "evm": {
        "bytecode": {
          "linkReferences": {},
          "object": "60c0346200028d57601f6200203c38819003918201601f1916830191906001600160401b03831184841017620002925781608092859260409586528339810103126200028d576200005082620002c8565b60209062000060828501620002c8565b936200007c606062000074868401620002c8565b9201620002c8565b3315620002755760008054336001600160a01b0319808316821784558851939490926001600160a01b03929083167f8be0079c531659141344cd1fd0a4f28419497f9722a3daafe3b4186f6b6457e08780a360019384805582610bb8988960075516908115158062000269575b806200025d575b156200022c575060ff9798999a83916080521660a052600295865490610100600160a81b039060081b1690610100600160a81b03191617865516906003541617600355826200013e620002a8565b6305e69ec0815287810196875288810196838852838552600489528985209151825551838201550194511515948419958587835416911617905562000182620002a8565b6307b0624081528387820191610fa083528981019284845282865260048a528a8620915182555184820155019051151585878354169116179055620001c6620002a8565b916308e18f40835287878401916113888352600482860199858b52600383525220925183555190820155019251151591835416911617905551611d5e9081620002de8239608051818181610a360152610bb2015260a0518181816105460152610dc50152f35b62461bcd60e51b8152600481018a9052600c60248201526b7a65726f206164647265737360a01b6044820152606490fd5b508388161515620000f0565b50838c161515620000e9565b8451631e4fbdf760e01b815260006004820152602490fd5b600080fd5b634e487b7160e01b600052604160045260246000fd5b60405190606082016001600160401b038111838210176200029257604052565b51906001600160a01b03821682036200028d5756fe608080604052600436101561001357600080fd5b600090813560e01c9081630b8738d41461197f5750806317698f41146114a957806320fb4abd1461144e5780632276de15146113ad57806324e9edb014611288578063288dc44214610fcc5780633ab5be6414610fb057806348fb6ce714610f945780635304b10214610f785780635c975abb14610f5557806360a31a8814610ef657806361d027b314610ec95780636eaeb3e714610eab578063715018a614610e515780637989864514610b1e5780637adbf97314610ab65780637dc0d1d014610a8d57806381b26dda14610a6557806389a3027114610a205780638da5cb5b146109f957806390058a121461096057806392efad9214610912578063a2dcd9b91461081d578063a9600aa41461068e578063b9fe890314610575578063c54e44eb14610530578063d04c47eb14610514578063ebbeec0814610447578063ee377a4a1461033a578063f046395a146102db578063f0f4426014610257578063f2fde38b146101c75763fe5ff4681461018c57600080fd5b346101c45760203660031901126101c4576020906040906001600160a01b036101b36119b5565b168152600683522054604051908152f35b80fd5b50346101c45760203660031901126101c4576101e16119b5565b6101e9611cc2565b6001600160a01b0390811690811561023e57600054826bffffffffffffffffffffffff60a01b821617600055167f8be0079c531659141344cd1fd0a4f28419497f9722a3daafe3b4186f6b6457e0600080a380f35b604051631e4fbdf760e01b815260048101849052602490fd5b50346101c45760203660031901126101c4576102716119b5565b610279611cc2565b6001600160a01b0381169061028f821515611c16565b60028054610100600160a81b03191660089290921b610100600160a81b03169190911790557f3c864541ef71378c6229510ed90f376565ee42d9c5e0904a984a9e863e6db44f8280a280f35b50346101c45760203660031901126101c4576080906040906001600160a01b036103036119b5565b16815260056020522060ff815416906001810154906003600282015491015491604051938452602084015260408301526060820152f35b50346101c45760803660031901126101c457610354611a71565b60243560443560643591821515938484036104435760ff90610374611cc2565b169360018510610411577f75bb304c612640397fa8672c6605245666d85a605a613fdb40fc083924b668579361040b9160026040516103b281611ab3565b8581526020810187815260408201938452898b52600460205260408b2091518255516001820155019051151560ff8019835416911617905560405193849384919260409194936060840195845260208401521515910152565b0390a280f35b60405162461bcd60e51b815260206004820152600a6024820152691a5b9d985b1a59081a5960b21b6044820152606490fd5b8580fd5b50346101c4576020806003193601126105105760c091906001600160a01b0361046e6119b5565b1682526005815260408220916040519061048782611a81565b60ff8454169384835260018101548085850152600360028301549283604087015201549283606086015286156000146104f95760ff81955b5116806104e85750945b60405196875286015260408501526060840152608083015260a0820152f35b8152600486526040902054946104c9565b8681526004865260ff6001604083200154956104bf565b5080fd5b50346101c457806003193601126101c457602060405160048152f35b50346101c457806003193601126101c4576040517f00000000000000000000000000000000000000000000000000000000000000006001600160a01b03168152602090f35b50346101c45760403660031901126101c45761058f6119b5565b60243567ffffffffffffffff811161068a576105af9036906004016119cb565b90916105b9611c48565b6105c1611c66565b6003546001600160a01b03919082163314801561067e575b6105e290611b13565b16906105ef821515611c16565b8184526008602052604084208054906001820180921161066a57907f12e87b510fff3c199d175ee469331ccac36b0a4b64670f87cdcd83783e675c68929155828552600860205261065160408620549460405192606084526060840191611af2565b9342602083015260408201528033940390a36001805580f35b634e487b7160e01b86526011600452602486fd5b508454821633146105d9565b8280fd5b50346101c45760603660031901126101c4576106a86119b5565b6024359060ff8216809203610818576003546001600160a01b03919082163314801561080c575b6106d890611b13565b6106e0611c48565b6106e8611c66565b828452602090600482526040852060ff60026040519261070784611ab3565b805484526001810154868501520154161590604082159101526107dc5760036040519161073383611a81565b858352838301944286526040840190888252606085019242845216958689526005865260ff60408a2095511660ff198654161785555160018501555160028401555191015560088152604084208054906001820180921161066a57916060917f198690a81921631dcfcabb81e32ab412356b859d8ae89cd04f04e370bb204f5e935583865260088152604086205460405191604435835242908301526040820152a36001805580f35b60405162461bcd60e51b8152600481018390526008602482015267696e61637469766560c01b6044820152606490fd5b508354821633146106cf565b600080fd5b50346101c45761082c366119f9565b9192610836611c48565b61083e611c66565b6003546001600160a01b039190821633148015610906575b61085f90611b13565b169161086c831515611c16565b610877841515611b8e565b82855260066020526040852061088e858254611acf565b9055828552600860205260408520805490600182018092116108f25790600080516020611d098339815191529392915583865260066020526108e86040872054916008602052604088205490604051948594339986611bc8565b0390a36001805580f35b634e487b7160e01b87526011600452602487fd5b50855482163314610856565b50346101c45760203660031901126101c4577f15d3bc0d23cf9fd3b55b3b7ac8a1e66edb8d54cc9e59ffc1037fe10e92076b2e6020600435610952611cc2565b80600755604051908152a180f35b50346101c45761096f366119f9565b9192610979611cc2565b60018060a01b031691828552600660205260408520610999858254611acf565b9055828552600860205260408520805490600182018092116108f25790600080516020611d098339815191529392915583865260066020526109f36040872054916008602052604088205490604051948594339986611bc8565b0390a380f35b50346101c457806003193601126101c457546040516001600160a01b039091168152602090f35b50346101c457806003193601126101c4576040517f00000000000000000000000000000000000000000000000000000000000000006001600160a01b03168152602090f35b50346101c45760203660031901126101c4576020906040906001600160a01b036101b36119b5565b50346101c457806003193601126101c4576003546040516001600160a01b039091168152602090f35b50346101c45760203660031901126101c457610ad06119b5565b610ad8611cc2565b600380546001600160a01b0319166001600160a01b039290921691821790557f3f32684a32a11dabdbb8c0177de80aa3ae36a004d75210335b49e544e48cd0aa8280a280f35b50346101c45760603660031901126101c457610b38611a71565b6024908135906001600160a01b03808316918284036104435760449460ff863592610b61611c48565b610b69611c66565b1694600196878710610e1f578689526020946004865260408a2060ff600260405192610b9484611ab3565b805484528c8101548a8501520154161580156040830152610dec57817f00000000000000000000000000000000000000000000000000000000000000001688148015610dc1575b15610d8a57518510610d50576002549160405191878301936323b872dd60e01b8552338785015260081c16908201528460648201526064815260a0810181811067ffffffffffffffff821117610d3b576040525185928a929083905af115610d3057865186903d610d29575050833b155b610d1357604051610c5c81611a81565b8581526003848201428152604083018a81526060840191428352338c526005885260ff60408d2095511660ff19865416178555518a850155516002840155519101556008835260408720805491878301809311610d015750553386526008825260408620549160405193845283015242604083015260608201527ff8e3f45726f30335b6be25c5750ffbeb867e054747e967b24d3a10e2249fa0c660803392a3805580f35b634e487b7160e01b8952601160045288fd5b604051635274afe760e01b815260048101859052fd5b1415610c4c565b6040513d88823e3d90fd5b84634e487b7160e01b60005260416004526000fd5b60405162461bcd60e51b815260048101879052601481860152731a5b9cdd59999a58da595b9d081c185e5b595b9d60621b81840152606490fd5b60405162461bcd60e51b815260048101889052601181870152703ab739bab83837b93a32b2103a37b5b2b760791b81850152606490fd5b50817f0000000000000000000000000000000000000000000000000000000000000000168814610bdb565b60405162461bcd60e51b815260048101889052600d818701526c34b730b1ba34bb3290383630b760991b81850152606490fd5b826b34b73b30b634b210383630b760a11b606492600c6040519362461bcd60e51b855260206004860152840152820152fd5b50346101c457806003193601126101c457610e6a611cc2565b600080546001600160a01b0319811682556001600160a01b03167f8be0079c531659141344cd1fd0a4f28419497f9722a3daafe3b4186f6b6457e08280a380f35b50346101c457806003193601126101c4576020600754604051908152f35b50346101c457806003193601126101c45760025460405160089190911c6001600160a01b03168152602090f35b50346101c45760203660031901126101c45760409060ff610f15611a71565b1681526004602052208054610f5160ff600260018501549401541660405193849384919260409194936060840195845260208401521515910152565b0390f35b50346101c457806003193601126101c457602060ff600254166040519015158152f35b50346101c457806003193601126101c457602060405160068152f35b50346101c457806003193601126101c457602060405160028152f35b50346101c457806003193601126101c457602060405160018152f35b50346101c45760603660031901126101c45767ffffffffffffffff60043581811161068a57610fff903690600401611a40565b6024929192358281116112845761101a903690600401611a40565b939092604435908111610443576110359036906004016119cb565b949061103f611c48565b611047611c66565b6003546001600160a01b031633148015611271575b61106590611b13565b81840361123d57865b8481106111325750604051938060608601606087525260808501939088905b8082106111085750505083830360208501528183526001600160fb1b038211611104577f680ea85a3f5ad923bd6047f68fa5f8840a2804e621c1d9a5e0d9c6add87204c69484936110fa9360051b8092602083013701956020848803016040850152602033970191611af2565b0390a26001805580f35b8680fd5b90919485359060018060a01b0382168092036108185760019181526020809101960192019061108d565b61113d818686611bf0565b356001600160a01b038116810361123957611159828589611bf0565b356001600160a01b038216158015611231575b611227576001600160a01b0382168a526006602090815260408b208054611194908490611acf565b90556001600160a01b0383168b526008815260408b208054600181018111611213576001959493926112098d8f604090600080516020611d09833981519152968b8d970190558a8060a01b038916815260068552600882822054955220549060405194859433998c8060a01b03169886611bc8565b0390a35b0161106e565b634e487b7160e01b8d52601160045260248dfd5b505060019061120d565b50801561116c565b8880fd5b60405162461bcd60e51b815260206004820152600c60248201526b0d8cadc40dad2e6dac2e8c6d60a31b6044820152606490fd5b5086546001600160a01b0316331461105c565b8480fd5b50346101c457806003193601126101c4576112a1611c48565b6112a9611c66565b338152602060058152604082206003604051916112c583611a81565b60ff81541683526001810154848401526002810154604084015201548060608301526003604051916112f683611a81565b8583528483018681526040840190878252606085019283523388526005875260ff6040892095511660ff1986541617855551600185015551600284015551910155600882526040832080549060018201809211611399579060ff929155511690338352600881526040832054604051914283528201527f125ae8f3aa4776e7c3db6128997f6ed5961d8111a28209e92d95102c1f4008a060403392a36001805580f35b634e487b7160e01b85526011600452602485fd5b50346101c4576113bc366119f9565b91926113c6611cc2565b6113ce611c48565b6113d6611c66565b6001600160a01b0316916113eb831515611b56565b8285526006602052836040862055600860205260408520805490600182018092116108f25790600080516020611d098339815191529392915583865260066020526108e86040872054916008602052604088205490604051948594339986611bc8565b50346101c45761145d366119f9565b9192611467611c48565b61146f611c66565b6003546001600160a01b03919082163314801561149d575b61149090611b13565b169161086c831515611b56565b50855482163314611487565b50346101c45760603660031901126101c45767ffffffffffffffff60043581811161068a576114dc9036906004016119cb565b90916024803594604435838111610510576114fb9036906004016119cb565b929091611506611c48565b61150e611c66565b871561194c5784861161193b5760405194601f8701601f19908116603f0116860190811186821017611929576040528585526020948581019036888a011161068a5787898337808801870183905251902081907fa542bebe0be4ee37844e1023969dcdf99c908139f19a527065ff05d1a0ac2e348103611808575097805b338a526005875260408a20938a8b948c60ff8854166117a3575b505015928361167a575b50338b526008885260408b208054916001830180931161166857509261164e9795927f9cd6fba6849d16f1246008292851ab41e61963e83f8314be6be8efd0c3f8d3c89a999795928d95556116286040600260ff8754169601549633815260088b5220549c6040519b8c6101208091528d0191611af2565b978a01521560408901526060880152608087015260a086015284830360c0860152611af2565b924260e08301526101008201528033930390a26001805580f35b634e487b7160e01b8d5260116004528cfd5b9350338b52600688528360408c20541061176957338b526006885260408b20805490858203918211611756575583338c526008895260408c20805490600182018092116117435755600160ff1b8114611730578b9033825260068a52604082205460088b52604083205491604051930383528a83015260806040830152600860808301526718dbdb9cdd5b595960c21b60a083015260608201523390600080516020611d0983398151915260c03392a3386115b0565b50634e487b7160e01b8b5260116004528afd5b634e487b7160e01b8e526011600452838efd5b634e487b7160e01b8d526011600452828dfd5b8760146064926040519262461bcd60e51b8452600484015282015273696e73756666696369656e74206372656469747360601b6044820152fd5b60406001916117b18a611c89565b895460ff16815260048d52200154901561180357506007545b8360028801918254906117dd8383611acf565b11156117ec575b50508c6115a6565b6117f7929350611acf565b905560013883816117e4565b6117ca565b9098907f13f2570a4f3752e83e37ff7e082b475a97035ff53694ee2548f36573f6a5d8bc810361186057506001600160ff1b038116810361184d578060011b9061158c565b634e487b7160e01b895260116004528289fd5b9091507f06acee816911c8b201d626c97a6109ac30872b8d1e1cd2519fbbc76bd470e31781036118ba57506001600160fe1b03811681036118a7578060021b60019161158c565b50634e487b7160e01b8752601160045286fd5b7fa9e20c07cdd8b05626d64c2769119a44d268c6d5bbd1f700ade7e878b859a852036118f6578060060260068104820361184d5760019161158c565b60405162461bcd60e51b815260048101869052600c818401526b756e6b6e6f776e206d6f646560a01b6044820152606490fd5b50634e487b7160e01b81526041600452fd5b634e487b7160e01b81526041600452fd5b60405162461bcd60e51b815260206004820152600c818401526b07175616e74697479203e20360a41b6044820152606490fd5b905034610510576020366003190112610510576020916040906001600160a01b036119a86119b5565b1681526008845220548152f35b600435906001600160a01b038216820361081857565b9181601f840112156108185782359167ffffffffffffffff8311610818576020838186019501011161081857565b6060600319820112610818576004356001600160a01b03811681036108185791602435916044359067ffffffffffffffff821161081857611a3c916004016119cb565b9091565b9181601f840112156108185782359167ffffffffffffffff8311610818576020808501948460051b01011161081857565b6004359060ff8216820361081857565b6080810190811067ffffffffffffffff821117611a9d57604052565b634e487b7160e01b600052604160045260246000fd5b6060810190811067ffffffffffffffff821117611a9d57604052565b91908201809211611adc57565b634e487b7160e01b600052601160045260246000fd5b908060209392818452848401376000828201840152601f01601f1916010190565b15611b1a57565b60405162461bcd60e51b815260206004820152601460248201527337b7363c9037b930b1b6329037b91037bbb732b960611b6044820152606490fd5b15611b5d57565b60405162461bcd60e51b81526020600482015260096024820152683d32b937903ab9b2b960b91b6044820152606490fd5b15611b9557565b60405162461bcd60e51b815260206004820152600b60248201526a1e995c9bc8185b5bdd5b9d60aa1b6044820152606490fd5b959493611beb926060949288526020880152608060408801526080870191611af2565b930152565b9190811015611c005760051b0190565b634e487b7160e01b600052603260045260246000fd5b15611c1d57565b606460405162461bcd60e51b81526020600482015260046024820152637a65726f60e01b6044820152fd5b60ff60025416611c5457565b60405163d93c066560e01b8152600490fd5b600260015414611c77576002600155565b604051633ee5aeb560e01b8152600490fd5b600181019081548015611cbd57611c9f90611cee565b611ca842611cee565b11611cb1575050565b60026000910155429055565b505050565b6000546001600160a01b03163303611cd657565b60405163118cdaa760e01b8152336004820152602490fd5b62278d00809104818102918183041490151715611adc579056fef5e26a8996052bc96871dab1bcbc7775d5224315ace309a7b58079aefad6b13fa2646970667358221220ea1ed8216672d5de5d8a07ce2573e7d463a33fa06bde23d0eceab4692e086add64736f6c63430008180033",
          "opcodes": "PUSH1 0xC0 CALLVALUE PUSH3 0x28D JUMPI PUSH1 0x1F PUSH3 0x203C CODESIZE DUP2 SWAP1 SUB SWAP2 DUP3 ADD PUSH1 0x1F NOT AND DUP4 ADD SWAP2 SWAP1 PUSH1 0x1 PUSH1 0x1 PUSH1 0x40 SHL SUB DUP4 GT DUP5 DUP5 LT OR PUSH3 0x292 JUMPI DUP2 PUSH1 0x80 SWAP3 DUP6 SWAP3 PUSH1 0x40 SWAP6 DUP7 MSTORE DUP4 CODECOPY DUP2 ADD SUB SLT PUSH3 0x28D JUMPI PUSH3 0x50 DUP3 PUSH3 0x2C8 JUMP JUMPDEST PUSH1 0x20 SWAP1 PUSH3 0x60 DUP3 DUP6 ADD PUSH3 0x2C8 JUMP JUMPDEST SWAP4 PUSH3 0x7C PUSH1 0x60 PUSH3 0x74 DUP7 DUP5 ADD PUSH3 0x2C8 JUMP JUMPDEST SWAP3 ADD PUSH3 0x2C8 JUMP JUMPDEST CALLER ISZERO PUSH3 0x275 JUMPI PUSH1 0x0 DUP1 SLOAD CALLER PUSH1 0x1 PUSH1 0x1 PUSH1 0xA0 SHL SUB NOT DUP1 DUP4 AND DUP3 OR DUP5 SSTORE DUP9 MLOAD SWAP4 SWAP5 SWAP1 SWAP3 PUSH1 0x1 PUSH1 0x1 PUSH1 0xA0 SHL SUB SWAP3 SWAP1 DUP4 AND PUSH32 0x8BE0079C531659141344CD1FD0A4F28419497F9722A3DAAFE3B4186F6B6457E0 DUP8 DUP1 LOG3 PUSH1 0x1 SWAP4 DUP5 DUP1 SSTORE DUP3 PUSH2 0xBB8 SWAP9 DUP10 PUSH1 0x7 SSTORE AND SWAP1 DUP2 ISZERO ISZERO DUP1 PUSH3 0x269 JUMPI JUMPDEST DUP1 PUSH3 0x25D JUMPI JUMPDEST ISZERO PUSH3 0x22C JUMPI POP PUSH1 0xFF SWAP8 SWAP9 SWAP10 SWAP11 DUP4 SWAP2 PUSH1 0x80 MSTORE AND PUSH1 0xA0 MSTORE PUSH1 0x2 SWAP6 DUP7 SLOAD SWAP1 PUSH2 0x100 PUSH1 0x1 PUSH1 0xA8 SHL SUB SWAP1 PUSH1 0x8 SHL AND SWAP1 PUSH2 0x100 PUSH1 0x1 PUSH1 0xA8 SHL SUB NOT AND OR DUP7 SSTORE AND SWAP1 PUSH1 0x3 SLOAD AND OR PUSH1 0x3 SSTORE DUP3 PUSH3 0x13E PUSH3 0x2A8 JUMP JUMPDEST PUSH4 0x5E69EC0 DUP2 MSTORE DUP8 DUP2 ADD SWAP7 DUP8 MSTORE DUP9 DUP2 ADD SWAP7 DUP4 DUP9 MSTORE DUP4 DUP6 MSTORE PUSH1 0x4 DUP10 MSTORE DUP10 DUP6 KECCAK256 SWAP2 MLOAD DUP3 SSTORE MLOAD DUP4 DUP3 ADD SSTORE ADD SWAP5 MLOAD ISZERO ISZERO SWAP5 DUP5 NOT SWAP6 DUP6 DUP8 DUP4 SLOAD AND SWAP2 AND OR SWAP1 SSTORE PUSH3 0x182 PUSH3 0x2A8 JUMP JUMPDEST PUSH4 0x7B06240 DUP2 MSTORE DUP4 DUP8 DUP3 ADD SWAP2 PUSH2 0xFA0 DUP4 MSTORE DUP10 DUP2 ADD SWAP3 DUP5 DUP5 MSTORE DUP3 DUP7 MSTORE PUSH1 0x4 DUP11 MSTORE DUP11 DUP7 KECCAK256 SWAP2 MLOAD DUP3 SSTORE MLOAD DUP5 DUP3 ADD SSTORE ADD SWAP1 MLOAD ISZERO ISZERO DUP6 DUP8 DUP4 SLOAD AND SWAP2 AND OR SWAP1 SSTORE PUSH3 0x1C6 PUSH3 0x2A8 JUMP JUMPDEST SWAP2 PUSH4 0x8E18F40 DUP4 MSTORE DUP8 DUP8 DUP5 ADD SWAP2 PUSH2 0x1388 DUP4 MSTORE PUSH1 0x4 DUP3 DUP7 ADD SWAP10 DUP6 DUP12 MSTORE PUSH1 0x3 DUP4 MSTORE MSTORE KECCAK256 SWAP3 MLOAD DUP4 SSTORE MLOAD SWAP1 DUP3 ADD SSTORE ADD SWAP3 MLOAD ISZERO ISZERO SWAP2 DUP4 SLOAD AND SWAP2 AND OR SWAP1 SSTORE MLOAD PUSH2 0x1D5E SWAP1 DUP2 PUSH3 0x2DE DUP3 CODECOPY PUSH1 0x80 MLOAD DUP2 DUP2 DUP2 PUSH2 0xA36 ADD MSTORE PUSH2 0xBB2 ADD MSTORE PUSH1 0xA0 MLOAD DUP2 DUP2 DUP2 PUSH2 0x546 ADD MSTORE PUSH2 0xDC5 ADD MSTORE RETURN JUMPDEST PUSH3 0x461BCD PUSH1 0xE5 SHL DUP2 MSTORE PUSH1 0x4 DUP2 ADD DUP11 SWAP1 MSTORE PUSH1 0xC PUSH1 0x24 DUP3 ADD MSTORE PUSH12 0x7A65726F2061646472657373 PUSH1 0xA0 SHL PUSH1 0x44 DUP3 ADD MSTORE PUSH1 0x64 SWAP1 REVERT JUMPDEST POP DUP4 DUP9 AND ISZERO ISZERO PUSH3 0xF0 JUMP JUMPDEST POP DUP4 DUP13 AND ISZERO ISZERO PUSH3 0xE9 JUMP JUMPDEST DUP5 MLOAD PUSH4 0x1E4FBDF7 PUSH1 0xE0 SHL DUP2 MSTORE PUSH1 0x0 PUSH1 0x4 DUP3 ADD MSTORE PUSH1 0x24 SWAP1 REVERT JUMPDEST PUSH1 0x0 DUP1 REVERT JUMPDEST PUSH4 0x4E487B71 PUSH1 0xE0 SHL PUSH1 0x0 MSTORE PUSH1 0x41 PUSH1 0x4 MSTORE PUSH1 0x24 PUSH1 0x0 REVERT JUMPDEST PUSH1 0x40 MLOAD SWAP1 PUSH1 0x60 DUP3 ADD PUSH1 0x1 PUSH1 0x1 PUSH1 0x40 SHL SUB DUP2 GT DUP4 DUP3 LT OR PUSH3 0x292 JUMPI PUSH1 0x40 MSTORE JUMP JUMPDEST MLOAD SWAP1 PUSH1 0x1 PUSH1 0x1 PUSH1 0xA0 SHL SUB DUP3 AND DUP3 SUB PUSH3 0x28D JUMPI JUMP INVALID PUSH1 0x80 DUP1 PUSH1 0x40 MSTORE PUSH1 0x4 CALLDATASIZE LT ISZERO PUSH2 0x13 JUMPI PUSH1 0x0 DUP1 REVERT JUMPDEST PUSH1 0x0 SWAP1 DUP2 CALLDATALOAD PUSH1 0xE0 SHR SWAP1 DUP2 PUSH4 0xB8738D4 EQ PUSH2 0x197F JUMPI POP DUP1 PUSH4 0x17698F41 EQ PUSH2 0x14A9 JUMPI DUP1 PUSH4 0x20FB4ABD EQ PUSH2 0x144E JUMPI DUP1 PUSH4 0x2276DE15 EQ PUSH2 0x13AD JUMPI DUP1 PUSH4 0x24E9EDB0 EQ PUSH2 0x1288 JUMPI DUP1 PUSH4 0x288DC442 EQ PUSH2 0xFCC JUMPI DUP1 PUSH4 0x3AB5BE64 EQ PUSH2 0xFB0 JUMPI DUP1 PUSH4 0x48FB6CE7 EQ PUSH2 0xF94 JUMPI DUP1 PUSH4 0x5304B102 EQ PUSH2 0xF78 JUMPI DUP1 PUSH4 0x5C975ABB EQ PUSH2 0xF55 JUMPI DUP1 PUSH4 0x60A31A88 EQ PUSH2 0xEF6 JUMPI DUP1 PUSH4 0x61D027B3 EQ PUSH2 0xEC9 JUMPI DUP1 PUSH4 0x6EAEB3E7 EQ PUSH2 0xEAB JUMPI DUP1 PUSH4 0x715018A6 EQ PUSH2 0xE51 JUMPI DUP1 PUSH4 0x79898645 EQ PUSH2 0xB1E JUMPI DUP1 PUSH4 0x7ADBF973 EQ PUSH2 0xAB6 JUMPI DUP1 PUSH4 0x7DC0D1D0 EQ PUSH2 0xA8D JUMPI DUP1 PUSH4 0x81B26DDA EQ PUSH2 0xA65 JUMPI DUP1 PUSH4 0x89A30271 EQ PUSH2 0xA20 JUMPI DUP1 PUSH4 0x8DA5CB5B EQ PUSH2 0x9F9 JUMPI DUP1 PUSH4 0x90058A12 EQ PUSH2 0x960 JUMPI DUP1 PUSH4 0x92EFAD92 EQ PUSH2 0x912 JUMPI DUP1 PUSH4 0xA2DCD9B9 EQ PUSH2 0x81D JUMPI DUP1 PUSH4 0xA9600AA4 EQ PUSH2 0x68E JUMPI DUP1 PUSH4 0xB9FE8903 EQ PUSH2 0x575 JUMPI DUP1 PUSH4 0xC54E44EB EQ PUSH2 0x530 JUMPI DUP1 PUSH4 0xD04C47EB EQ PUSH2 0x514 JUMPI DUP1 PUSH4 0xEBBEEC08 EQ PUSH2 0x447 JUMPI DUP1 PUSH4 0xEE377A4A EQ PUSH2 0x33A JUMPI DUP1 PUSH4 0xF046395A EQ PUSH2 0x2DB JUMPI DUP1 PUSH4 0xF0F44260 EQ PUSH2 0x257 JUMPI DUP1 PUSH4 0xF2FDE38B EQ PUSH2 0x1C7 JUMPI PUSH4 0xFE5FF468 EQ PUSH2 0x18C JUMPI PUSH1 0x0 DUP1 REVERT JUMPDEST CALLVALUE PUSH2 0x1C4 JUMPI PUSH1 0x20 CALLDATASIZE PUSH1 0x3 NOT ADD SLT PUSH2 0x1C4 JUMPI PUSH1 0x20 SWAP1 PUSH1 0x40 SWAP1 PUSH1 0x1 PUSH1 0x1 PUSH1 0xA0 SHL SUB PUSH2 0x1B3 PUSH2 0x19B5 JUMP JUMPDEST AND DUP2 MSTORE PUSH1 0x6 DUP4 MSTORE KECCAK256 SLOAD PUSH1 0x40 MLOAD SWAP1 DUP2 MSTORE RETURN JUMPDEST DUP1 REVERT JUMPDEST POP CALLVALUE PUSH2 0x1C4 JUMPI PUSH1 0x20 CALLDATASIZE PUSH1 0x3 NOT ADD SLT PUSH2 0x1C4 JUMPI PUSH2 0x1E1 PUSH2 0x19B5 JUMP JUMPDEST PUSH2 0x1E9 PUSH2 0x1CC2 JUMP JUMPDEST PUSH1 0x1 PUSH1 0x1 PUSH1 0xA0 SHL SUB SWAP1 DUP2 AND SWAP1 DUP2 ISZERO PUSH2 0x23E JUMPI PUSH1 0x0 SLOAD DUP3 PUSH12 0xFFFFFFFFFFFFFFFFFFFFFFFF PUSH1 0xA0 SHL DUP3 AND OR PUSH1 0x0 SSTORE AND PUSH32 0x8BE0079C531659141344CD1FD0A4F28419497F9722A3DAAFE3B4186F6B6457E0 PUSH1 0x0 DUP1 LOG3 DUP1 RETURN JUMPDEST PUSH1 0x40 MLOAD PUSH4 0x1E4FBDF7 PUSH1 0xE0 SHL DUP2 MSTORE PUSH1 0x4 DUP2 ADD DUP5 SWAP1 MSTORE PUSH1 0x24 SWAP1 REVERT JUMPDEST POP CALLVALUE PUSH2 0x1C4 JUMPI PUSH1 0x20 CALLDATASIZE PUSH1 0x3 NOT ADD SLT PUSH2 0x1C4 JUMPI PUSH2 0x271 PUSH2 0x19B5 JUMP JUMPDEST PUSH2 0x279 PUSH2 0x1CC2 JUMP JUMPDEST PUSH1 0x1 PUSH1 0x1 PUSH1 0xA0 SHL SUB DUP2 AND SWAP1 PUSH2 0x28F DUP3 ISZERO ISZERO PUSH2 0x1C16 JUMP JUMPDEST PUSH1 0x2 DUP1 SLOAD PUSH2 0x100 PUSH1 0x1 PUSH1 0xA8 SHL SUB NOT AND PUSH1 0x8 SWAP3 SWAP1 SWAP3 SHL PUSH2 0x100 PUSH1 0x1 PUSH1 0xA8 SHL SUB AND SWAP2 SWAP1 SWAP2 OR SWAP1 SSTORE PUSH32 0x3C864541EF71378C6229510ED90F376565EE42D9C5E0904A984A9E863E6DB44F DUP3 DUP1 LOG2 DUP1 RETURN JUMPDEST POP CALLVALUE PUSH2 0x1C4 JUMPI PUSH1 0x20 CALLDATASIZE PUSH1 0x3 NOT ADD SLT PUSH2 0x1C4 JUMPI PUSH1 0x80 SWAP1 PUSH1 0x40 SWAP1 PUSH1 0x1 PUSH1 0x1 PUSH1 0xA0 SHL SUB PUSH2 0x303 PUSH2 0x19B5 JUMP JUMPDEST AND DUP2 MSTORE PUSH1 0x5 PUSH1 0x20 MSTORE KECCAK256 PUSH1 0xFF DUP2 SLOAD AND SWAP1 PUSH1 0x1 DUP2 ADD SLOAD SWAP1 PUSH1 0x3 PUSH1 0x2 DUP3 ADD SLOAD SWAP2 ADD SLOAD SWAP2 PUSH1 0x40 MLOAD SWAP4 DUP5 MSTORE PUSH1 0x20 DUP5 ADD MSTORE PUSH1 0x40 DUP4 ADD MSTORE PUSH1 0x60 DUP3 ADD MSTORE RETURN JUMPDEST POP CALLVALUE PUSH2 0x1C4 JUMPI PUSH1 0x80 CALLDATASIZE PUSH1 0x3 NOT ADD SLT PUSH2 0x1C4 JUMPI PUSH2 0x354 PUSH2 0x1A71 JUMP JUMPDEST PUSH1 0x24 CALLDATALOAD PUSH1 0x44 CALLDATALOAD PUSH1 0x64 CALLDATALOAD SWAP2 DUP3 ISZERO ISZERO SWAP4 DUP5 DUP5 SUB PUSH2 0x443 JUMPI PUSH1 0xFF SWAP1 PUSH2 0x374 PUSH2 0x1CC2 JUMP JUMPDEST AND SWAP4 PUSH1 0x1 DUP6 LT PUSH2 0x411 JUMPI PUSH32 0x75BB304C612640397FA8672C6605245666D85A605A613FDB40FC083924B66857 SWAP4 PUSH2 0x40B SWAP2 PUSH1 0x2 PUSH1 0x40 MLOAD PUSH2 0x3B2 DUP2 PUSH2 0x1AB3 JUMP JUMPDEST DUP6 DUP2 MSTORE PUSH1 0x20 DUP2 ADD DUP8 DUP2 MSTORE PUSH1 0x40 DUP3 ADD SWAP4 DUP5 MSTORE DUP10 DUP12 MSTORE PUSH1 0x4 PUSH1 0x20 MSTORE PUSH1 0x40 DUP12 KECCAK256 SWAP2 MLOAD DUP3 SSTORE MLOAD PUSH1 0x1 DUP3 ADD SSTORE ADD SWAP1 MLOAD ISZERO ISZERO PUSH1 0xFF DUP1 NOT DUP4 SLOAD AND SWAP2 AND OR SWAP1 SSTORE PUSH1 0x40 MLOAD SWAP4 DUP5 SWAP4 DUP5 SWAP2 SWAP3 PUSH1 0x40 SWAP2 SWAP5 SWAP4 PUSH1 0x60 DUP5 ADD SWAP6 DUP5 MSTORE PUSH1 0x20 DUP5 ADD MSTORE ISZERO ISZERO SWAP2 ADD MSTORE JUMP JUMPDEST SUB SWAP1 LOG2 DUP1 RETURN JUMPDEST PUSH1 0x40 MLOAD PUSH3 0x461BCD PUSH1 0xE5 SHL DUP2 MSTORE PUSH1 0x20 PUSH1 0x4 DUP3 ADD MSTORE PUSH1 0xA PUSH1 0x24 DUP3 ADD MSTORE PUSH10 0x1A5B9D985B1A59081A59 PUSH1 0xB2 SHL PUSH1 0x44 DUP3 ADD MSTORE PUSH1 0x64 SWAP1 REVERT JUMPDEST DUP6 DUP1 REVERT JUMPDEST POP CALLVALUE PUSH2 0x1C4 JUMPI PUSH1 0x20 DUP1 PUSH1 0x3 NOT CALLDATASIZE ADD SLT PUSH2 0x510 JUMPI PUSH1 0xC0 SWAP2 SWAP1 PUSH1 0x1 PUSH1 0x1 PUSH1 0xA0 SHL SUB PUSH2 0x46E PUSH2 0x19B5 JUMP JUMPDEST AND DUP3 MSTORE PUSH1 0x5 DUP2 MSTORE PUSH1 0x40 DUP3 KECCAK256 SWAP2 PUSH1 0x40 MLOAD SWAP1 PUSH2 0x487 DUP3 PUSH2 0x1A81 JUMP JUMPDEST PUSH1 0xFF DUP5 SLOAD AND SWAP4 DUP5 DUP4 MSTORE PUSH1 0x1 DUP2 ADD SLOAD DUP1 DUP6 DUP6 ADD MSTORE PUSH1 0x3 PUSH1 0x2 DUP4 ADD SLOAD SWAP3 DUP4 PUSH1 0x40 DUP8 ADD MSTORE ADD SLOAD SWAP3 DUP4 PUSH1 0x60 DUP7 ADD MSTORE DUP7 ISZERO PUSH1 0x0 EQ PUSH2 0x4F9 JUMPI PUSH1 0xFF DUP2 SWAP6 JUMPDEST MLOAD AND DUP1 PUSH2 0x4E8 JUMPI POP SWAP5 JUMPDEST PUSH1 0x40 MLOAD SWAP7 DUP8 MSTORE DUP7 ADD MSTORE PUSH1 0x40 DUP6 ADD MSTORE PUSH1 0x60 DUP5 ADD MSTORE PUSH1 0x80 DUP4 ADD MSTORE PUSH1 0xA0 DUP3 ADD MSTORE RETURN JUMPDEST DUP2 MSTORE PUSH1 0x4 DUP7 MSTORE PUSH1 0x40 SWAP1 KECCAK256 SLOAD SWAP5 PUSH2 0x4C9 JUMP JUMPDEST DUP7 DUP2 MSTORE PUSH1 0x4 DUP7 MSTORE PUSH1 0xFF PUSH1 0x1 PUSH1 0x40 DUP4 KECCAK256 ADD SLOAD SWAP6 PUSH2 0x4BF JUMP JUMPDEST POP DUP1 REVERT JUMPDEST POP CALLVALUE PUSH2 0x1C4 JUMPI DUP1 PUSH1 0x3 NOT CALLDATASIZE ADD SLT PUSH2 0x1C4 JUMPI PUSH1 0x20 PUSH1 0x40 MLOAD PUSH1 0x4 DUP2 MSTORE RETURN JUMPDEST POP CALLVALUE PUSH2 0x1C4 JUMPI DUP1 PUSH1 0x3 NOT CALLDATASIZE ADD SLT PUSH2 0x1C4 JUMPI PUSH1 0x40 MLOAD PUSH32 0x0 PUSH1 0x1 PUSH1 0x1 PUSH1 0xA0 SHL SUB AND DUP2 MSTORE PUSH1 0x20 SWAP1 RETURN JUMPDEST POP CALLVALUE PUSH2 0x1C4 JUMPI PUSH1 0x40 CALLDATASIZE PUSH1 0x3 NOT ADD SLT PUSH2 0x1C4 JUMPI PUSH2 0x58F PUSH2 0x19B5 JUMP JUMPDEST PUSH1 0x24 CALLDATALOAD PUSH8 0xFFFFFFFFFFFFFFFF DUP2 GT PUSH2 0x68A JUMPI PUSH2 0x5AF SWAP1 CALLDATASIZE SWAP1 PUSH1 0x4 ADD PUSH2 0x19CB JUMP JUMPDEST SWAP1 SWAP2 PUSH2 0x5B9 PUSH2 0x1C48 JUMP JUMPDEST PUSH2 0x5C1 PUSH2 0x1C66 JUMP JUMPDEST PUSH1 0x3 SLOAD PUSH1 0x1 PUSH1 0x1 PUSH1 0xA0 SHL SUB SWAP2 SWAP1 DUP3 AND CALLER EQ DUP1 ISZERO PUSH2 0x67E JUMPI JUMPDEST PUSH2 0x5E2 SWAP1 PUSH2 0x1B13 JUMP JUMPDEST AND SWAP1 PUSH2 0x5EF DUP3 ISZERO ISZERO PUSH2 0x1C16 JUMP JUMPDEST DUP2 DUP5 MSTORE PUSH1 0x8 PUSH1 0x20 MSTORE PUSH1 0x40 DUP5 KECCAK256 DUP1 SLOAD SWAP1 PUSH1 0x1 DUP3 ADD DUP1 SWAP3 GT PUSH2 0x66A JUMPI SWAP1 PUSH32 0x12E87B510FFF3C199D175EE469331CCAC36B0A4B64670F87CDCD83783E675C68 SWAP3 SWAP2 SSTORE DUP3 DUP6 MSTORE PUSH1 0x8 PUSH1 0x20 MSTORE PUSH2 0x651 PUSH1 0x40 DUP7 KECCAK256 SLOAD SWAP5 PUSH1 0x40 MLOAD SWAP3 PUSH1 0x60 DUP5 MSTORE PUSH1 0x60 DUP5 ADD SWAP2 PUSH2 0x1AF2 JUMP JUMPDEST SWAP4 TIMESTAMP PUSH1 0x20 DUP4 ADD MSTORE PUSH1 0x40 DUP3 ADD MSTORE DUP1 CALLER SWAP5 SUB SWAP1 LOG3 PUSH1 0x1 DUP1 SSTORE DUP1 RETURN JUMPDEST PUSH4 0x4E487B71 PUSH1 0xE0 SHL DUP7 MSTORE PUSH1 0x11 PUSH1 0x4 MSTORE PUSH1 0x24 DUP7 REVERT JUMPDEST POP DUP5 SLOAD DUP3 AND CALLER EQ PUSH2 0x5D9 JUMP JUMPDEST DUP3 DUP1 REVERT JUMPDEST POP CALLVALUE PUSH2 0x1C4 JUMPI PUSH1 0x60 CALLDATASIZE PUSH1 0x3 NOT ADD SLT PUSH2 0x1C4 JUMPI PUSH2 0x6A8 PUSH2 0x19B5 JUMP JUMPDEST PUSH1 0x24 CALLDATALOAD SWAP1 PUSH1 0xFF DUP3 AND DUP1 SWAP3 SUB PUSH2 0x818 JUMPI PUSH1 0x3 SLOAD PUSH1 0x1 PUSH1 0x1 PUSH1 0xA0 SHL SUB SWAP2 SWAP1 DUP3 AND CALLER EQ DUP1 ISZERO PUSH2 0x80C JUMPI JUMPDEST PUSH2 0x6D8 SWAP1 PUSH2 0x1B13 JUMP JUMPDEST PUSH2 0x6E0 PUSH2 0x1C48 JUMP JUMPDEST PUSH2 0x6E8 PUSH2 0x1C66 JUMP JUMPDEST DUP3 DUP5 MSTORE PUSH1 0x20 SWAP1 PUSH1 0x4 DUP3 MSTORE PUSH1 0x40 DUP6 KECCAK256 PUSH1 0xFF PUSH1 0x2 PUSH1 0x40 MLOAD SWAP3 PUSH2 0x707 DUP5 PUSH2 0x1AB3 JUMP JUMPDEST DUP1 SLOAD DUP5 MSTORE PUSH1 0x1 DUP2 ADD SLOAD DUP7 DUP6 ADD MSTORE ADD SLOAD AND ISZERO SWAP1 PUSH1 0x40 DUP3 ISZERO SWAP2 ADD MSTORE PUSH2 0x7DC JUMPI PUSH1 0x3 PUSH1 0x40 MLOAD SWAP2 PUSH2 0x733 DUP4 PUSH2 0x1A81 JUMP JUMPDEST DUP6 DUP4 MSTORE DUP4 DUP4 ADD SWAP5 TIMESTAMP DUP7 MSTORE PUSH1 0x40 DUP5 ADD SWAP1 DUP9 DUP3 MSTORE PUSH1 0x60 DUP6 ADD SWAP3 TIMESTAMP DUP5 MSTORE AND SWAP6 DUP7 DUP10 MSTORE PUSH1 0x5 DUP7 MSTORE PUSH1 0xFF PUSH1 0x40 DUP11 KECCAK256 SWAP6 MLOAD AND PUSH1 0xFF NOT DUP7 SLOAD AND OR DUP6 SSTORE MLOAD PUSH1 0x1 DUP6 ADD SSTORE MLOAD PUSH1 0x2 DUP5 ADD SSTORE MLOAD SWAP2 ADD SSTORE PUSH1 0x8 DUP2 MSTORE PUSH1 0x40 DUP5 KECCAK256 DUP1 SLOAD SWAP1 PUSH1 0x1 DUP3 ADD DUP1 SWAP3 GT PUSH2 0x66A JUMPI SWAP2 PUSH1 0x60 SWAP2 PUSH32 0x198690A81921631DCFCABB81E32AB412356B859D8AE89CD04F04E370BB204F5E SWAP4 SSTORE DUP4 DUP7 MSTORE PUSH1 0x8 DUP2 MSTORE PUSH1 0x40 DUP7 KECCAK256 SLOAD PUSH1 0x40 MLOAD SWAP2 PUSH1 0x44 CALLDATALOAD DUP4 MSTORE TIMESTAMP SWAP1 DUP4 ADD MSTORE PUSH1 0x40 DUP3 ADD MSTORE LOG3 PUSH1 0x1 DUP1 SSTORE DUP1 RETURN JUMPDEST PUSH1 0x40 MLOAD PUSH3 0x461BCD PUSH1 0xE5 SHL DUP2 MSTORE PUSH1 0x4 DUP2 ADD DUP4 SWAP1 MSTORE PUSH1 0x8 PUSH1 0x24 DUP3 ADD MSTORE PUSH8 0x696E616374697665 PUSH1 0xC0 SHL PUSH1 0x44 DUP3 ADD MSTORE PUSH1 0x64 SWAP1 REVERT JUMPDEST POP DUP4 SLOAD DUP3 AND CALLER EQ PUSH2 0x6CF JUMP JUMPDEST PUSH1 0x0 DUP1 REVERT JUMPDEST POP CALLVALUE PUSH2 0x1C4 JUMPI PUSH2 0x82C CALLDATASIZE PUSH2 0x19F9 JUMP JUMPDEST SWAP2 SWAP3 PUSH2 0x836 PUSH2 0x1C48 JUMP JUMPDEST PUSH2 0x83E PUSH2 0x1C66 JUMP JUMPDEST PUSH1 0x3 SLOAD PUSH1 0x1 PUSH1 0x1 PUSH1 0xA0 SHL SUB SWAP2 SWAP1 DUP3 AND CALLER EQ DUP1 ISZERO PUSH2 0x906 JUMPI JUMPDEST PUSH2 0x85F SWAP1 PUSH2 0x1B13 JUMP JUMPDEST AND SWAP2 PUSH2 0x86C DUP4 ISZERO ISZERO PUSH2 0x1C16 JUMP JUMPDEST PUSH2 0x877 DUP5 ISZERO ISZERO PUSH2 0x1B8E JUMP JUMPDEST DUP3 DUP6 MSTORE PUSH1 0x6 PUSH1 0x20 MSTORE PUSH1 0x40 DUP6 KECCAK256 PUSH2 0x88E DUP6 DUP3 SLOAD PUSH2 0x1ACF JUMP JUMPDEST SWAP1 SSTORE DUP3 DUP6 MSTORE PUSH1 0x8 PUSH1 0x20 MSTORE PUSH1 0x40 DUP6 KECCAK256 DUP1 SLOAD SWAP1 PUSH1 0x1 DUP3 ADD DUP1 SWAP3 GT PUSH2 0x8F2 JUMPI SWAP1 PUSH1 0x0 DUP1 MLOAD PUSH1 0x20 PUSH2 0x1D09 DUP4 CODECOPY DUP2 MLOAD SWAP2 MSTORE SWAP4 SWAP3 SWAP2 SSTORE DUP4 DUP7 MSTORE PUSH1 0x6 PUSH1 0x20 MSTORE PUSH2 0x8E8 PUSH1 0x40 DUP8 KECCAK256 SLOAD SWAP2 PUSH1 0x8 PUSH1 0x20 MSTORE PUSH1 0x40 DUP9 KECCAK256 SLOAD SWAP1 PUSH1 0x40 MLOAD SWAP5 DUP6 SWAP5 CALLER SWAP10 DUP7 PUSH2 0x1BC8 JUMP JUMPDEST SUB SWAP1 LOG3 PUSH1 0x1 DUP1 SSTORE DUP1 RETURN JUMPDEST PUSH4 0x4E487B71 PUSH1 0xE0 SHL DUP8 MSTORE PUSH1 0x11 PUSH1 0x4 MSTORE PUSH1 0x24 DUP8 REVERT JUMPDEST POP DUP6 SLOAD DUP3 AND CALLER EQ PUSH2 0x856 JUMP JUMPDEST POP CALLVALUE PUSH2 0x1C4 JUMPI PUSH1 0x20 CALLDATASIZE PUSH1 0x3 NOT ADD SLT PUSH2 0x1C4 JUMPI PUSH32 0x15D3BC0D23CF9FD3B55B3B7AC8A1E66EDB8D54CC9E59FFC1037FE10E92076B2E PUSH1 0x20 PUSH1 0x4 CALLDATALOAD PUSH2 0x952 PUSH2 0x1CC2 JUMP JUMPDEST DUP1 PUSH1 0x7 SSTORE PUSH1 0x40 MLOAD SWAP1 DUP2 MSTORE LOG1 DUP1 RETURN JUMPDEST POP CALLVALUE PUSH2 0x1C4 JUMPI PUSH2 0x96F CALLDATASIZE PUSH2 0x19F9 JUMP JUMPDEST SWAP2 SWAP3 PUSH2 0x979 PUSH2 0x1CC2 JUMP JUMPDEST PUSH1 0x1 DUP1 PUSH1 0xA0 SHL SUB AND SWAP2 DUP3 DUP6 MSTORE PUSH1 0x6 PUSH1 0x20 MSTORE PUSH1 0x40 DUP6 KECCAK256 PUSH2 0x999 DUP6 DUP3 SLOAD PUSH2 0x1ACF JUMP JUMPDEST SWAP1 SSTORE DUP3 DUP6 MSTORE PUSH1 0x8 PUSH1 0x20 MSTORE PUSH1 0x40 DUP6 KECCAK256 DUP1 SLOAD SWAP1 PUSH1 0x1 DUP3 ADD DUP1 SWAP3 GT PUSH2 0x8F2 JUMPI SWAP1 PUSH1 0x0 DUP1 MLOAD PUSH1 0x20 PUSH2 0x1D09 DUP4 CODECOPY DUP2 MLOAD SWAP2 MSTORE SWAP4 SWAP3 SWAP2 SSTORE DUP4 DUP7 MSTORE PUSH1 0x6 PUSH1 0x20 MSTORE PUSH2 0x9F3 PUSH1 0x40 DUP8 KECCAK256 SLOAD SWAP2 PUSH1 0x8 PUSH1 0x20 MSTORE PUSH1 0x40 DUP9 KECCAK256 SLOAD SWAP1 PUSH1 0x40 MLOAD SWAP5 DUP6 SWAP5 CALLER SWAP10 DUP7 PUSH2 0x1BC8 JUMP JUMPDEST SUB SWAP1 LOG3 DUP1 RETURN JUMPDEST POP CALLVALUE PUSH2 0x1C4 JUMPI DUP1 PUSH1 0x3 NOT CALLDATASIZE ADD SLT PUSH2 0x1C4 JUMPI SLOAD PUSH1 0x40 MLOAD PUSH1 0x1 PUSH1 0x1 PUSH1 0xA0 SHL SUB SWAP1 SWAP2 AND DUP2 MSTORE PUSH1 0x20 SWAP1 RETURN JUMPDEST POP CALLVALUE PUSH2 0x1C4 JUMPI DUP1 PUSH1 0x3 NOT CALLDATASIZE ADD SLT PUSH2 0x1C4 JUMPI PUSH1 0x40 MLOAD PUSH32 0x0 PUSH1 0x1 PUSH1 0x1 PUSH1 0xA0 SHL SUB AND DUP2 MSTORE PUSH1 0x20 SWAP1 RETURN JUMPDEST POP CALLVALUE PUSH2 0x1C4 JUMPI PUSH1 0x20 CALLDATASIZE PUSH1 0x3 NOT ADD SLT PUSH2 0x1C4 JUMPI PUSH1 0x20 SWAP1 PUSH1 0x40 SWAP1 PUSH1 0x1 PUSH1 0x1 PUSH1 0xA0 SHL SUB PUSH2 0x1B3 PUSH2 0x19B5 JUMP JUMPDEST POP CALLVALUE PUSH2 0x1C4 JUMPI DUP1 PUSH1 0x3 NOT CALLDATASIZE ADD SLT PUSH2 0x1C4 JUMPI PUSH1 0x3 SLOAD PUSH1 0x40 MLOAD PUSH1 0x1 PUSH1 0x1 PUSH1 0xA0 SHL SUB SWAP1 SWAP2 AND DUP2 MSTORE PUSH1 0x20 SWAP1 RETURN JUMPDEST POP CALLVALUE PUSH2 0x1C4 JUMPI PUSH1 0x20 CALLDATASIZE PUSH1 0x3 NOT ADD SLT PUSH2 0x1C4 JUMPI PUSH2 0xAD0 PUSH2 0x19B5 JUMP JUMPDEST PUSH2 0xAD8 PUSH2 0x1CC2 JUMP JUMPDEST PUSH1 0x3 DUP1 SLOAD PUSH1 0x1 PUSH1 0x1 PUSH1 0xA0 SHL SUB NOT AND PUSH1 0x1 PUSH1 0x1 PUSH1 0xA0 SHL SUB SWAP3 SWAP1 SWAP3 AND SWAP2 DUP3 OR SWAP1 SSTORE PUSH32 0x3F32684A32A11DABDBB8C0177DE80AA3AE36A004D75210335B49E544E48CD0AA DUP3 DUP1 LOG2 DUP1 RETURN JUMPDEST POP CALLVALUE PUSH2 0x1C4 JUMPI PUSH1 0x60 CALLDATASIZE PUSH1 0x3 NOT ADD SLT PUSH2 0x1C4 JUMPI PUSH2 0xB38 PUSH2 0x1A71 JUMP JUMPDEST PUSH1 0x24 SWAP1 DUP2 CALLDATALOAD SWAP1 PUSH1 0x1 PUSH1 0x1 PUSH1 0xA0 SHL SUB DUP1 DUP4 AND SWAP2 DUP3 DUP5 SUB PUSH2 0x443 JUMPI PUSH1 0x44 SWAP5 PUSH1 0xFF DUP7 CALLDATALOAD SWAP3 PUSH2 0xB61 PUSH2 0x1C48 JUMP JUMPDEST PUSH2 0xB69 PUSH2 0x1C66 JUMP JUMPDEST AND SWAP5 PUSH1 0x1 SWAP7 DUP8 DUP8 LT PUSH2 0xE1F JUMPI DUP7 DUP10 MSTORE PUSH1 0x20 SWAP5 PUSH1 0x4 DUP7 MSTORE PUSH1 0x40 DUP11 KECCAK256 PUSH1 0xFF PUSH1 0x2 PUSH1 0x40 MLOAD SWAP3 PUSH2 0xB94 DUP5 PUSH2 0x1AB3 JUMP JUMPDEST DUP1 SLOAD DUP5 MSTORE DUP13 DUP2 ADD SLOAD DUP11 DUP6 ADD MSTORE ADD SLOAD AND ISZERO DUP1 ISZERO PUSH1 0x40 DUP4 ADD MSTORE PUSH2 0xDEC JUMPI DUP2 PUSH32 0x0 AND DUP9 EQ DUP1 ISZERO PUSH2 0xDC1 JUMPI JUMPDEST ISZERO PUSH2 0xD8A JUMPI MLOAD DUP6 LT PUSH2 0xD50 JUMPI PUSH1 0x2 SLOAD SWAP2 PUSH1 0x40 MLOAD SWAP2 DUP8 DUP4 ADD SWAP4 PUSH4 0x23B872DD PUSH1 0xE0 SHL DUP6 MSTORE CALLER DUP8 DUP6 ADD MSTORE PUSH1 0x8 SHR AND SWAP1 DUP3 ADD MSTORE DUP5 PUSH1 0x64 DUP3 ADD MSTORE PUSH1 0x64 DUP2 MSTORE PUSH1 0xA0 DUP2 ADD DUP2 DUP2 LT PUSH8 0xFFFFFFFFFFFFFFFF DUP3 GT OR PUSH2 0xD3B JUMPI PUSH1 0x40 MSTORE MLOAD DUP6 SWAP3 DUP11 SWAP3 SWAP1 DUP4 SWAP1 GAS CALL ISZERO PUSH2 0xD30 JUMPI DUP7 MLOAD DUP7 SWAP1 RETURNDATASIZE PUSH2 0xD29 JUMPI POP POP DUP4 EXTCODESIZE ISZERO JUMPDEST PUSH2 0xD13 JUMPI PUSH1 0x40 MLOAD PUSH2 0xC5C DUP2 PUSH2 0x1A81 JUMP JUMPDEST DUP6 DUP2 MSTORE PUSH1 0x3 DUP5 DUP3 ADD TIMESTAMP DUP2 MSTORE PUSH1 0x40 DUP4 ADD DUP11 DUP2 MSTORE PUSH1 0x60 DUP5 ADD SWAP2 TIMESTAMP DUP4 MSTORE CALLER DUP13 MSTORE PUSH1 0x5 DUP9 MSTORE PUSH1 0xFF PUSH1 0x40 DUP14 KECCAK256 SWAP6 MLOAD AND PUSH1 0xFF NOT DUP7 SLOAD AND OR DUP6 SSTORE MLOAD DUP11 DUP6 ADD SSTORE MLOAD PUSH1 0x2 DUP5 ADD SSTORE MLOAD SWAP2 ADD SSTORE PUSH1 0x8 DUP4 MSTORE PUSH1 0x40 DUP8 KECCAK256 DUP1 SLOAD SWAP2 DUP8 DUP4 ADD DUP1 SWAP4 GT PUSH2 0xD01 JUMPI POP SSTORE CALLER DUP7 MSTORE PUSH1 0x8 DUP3 MSTORE PUSH1 0x40 DUP7 KECCAK256 SLOAD SWAP2 PUSH1 0x40 MLOAD SWAP4 DUP5 MSTORE DUP4 ADD MSTORE TIMESTAMP PUSH1 0x40 DUP4 ADD MSTORE PUSH1 0x60 DUP3 ADD MSTORE PUSH32 0xF8E3F45726F30335B6BE25C5750FFBEB867E054747E967B24D3A10E2249FA0C6 PUSH1 0x80 CALLER SWAP3 LOG3 DUP1 SSTORE DUP1 RETURN JUMPDEST PUSH4 0x4E487B71 PUSH1 0xE0 SHL DUP10 MSTORE PUSH1 0x11 PUSH1 0x4 MSTORE DUP9 REVERT JUMPDEST PUSH1 0x40 MLOAD PUSH4 0x5274AFE7 PUSH1 0xE0 SHL DUP2 MSTORE PUSH1 0x4 DUP2 ADD DUP6 SWAP1 MSTORE REVERT JUMPDEST EQ ISZERO PUSH2 0xC4C JUMP JUMPDEST PUSH1 0x40 MLOAD RETURNDATASIZE DUP9 DUP3 RETURNDATACOPY RETURNDATASIZE SWAP1 REVERT JUMPDEST DUP5 PUSH4 0x4E487B71 PUSH1 0xE0 SHL PUSH1 0x0 MSTORE PUSH1 0x41 PUSH1 0x4 MSTORE PUSH1 0x0 REVERT JUMPDEST PUSH1 0x40 MLOAD PUSH3 0x461BCD PUSH1 0xE5 SHL DUP2 MSTORE PUSH1 0x4 DUP2 ADD DUP8 SWAP1 MSTORE PUSH1 0x14 DUP2 DUP7 ADD MSTORE PUSH20 0x1A5B9CDD59999A58DA595B9D081C185E5B595B9D PUSH1 0x62 SHL DUP2 DUP5 ADD MSTORE PUSH1 0x64 SWAP1 REVERT JUMPDEST PUSH1 0x40 MLOAD PUSH3 0x461BCD PUSH1 0xE5 SHL DUP2 MSTORE PUSH1 0x4 DUP2 ADD DUP9 SWAP1 MSTORE PUSH1 0x11 DUP2 DUP8 ADD MSTORE PUSH17 0x3AB739BAB83837B93A32B2103A37B5B2B7 PUSH1 0x79 SHL DUP2 DUP6 ADD MSTORE PUSH1 0x64 SWAP1 REVERT JUMPDEST POP DUP2 PUSH32 0x0 AND DUP9 EQ PUSH2 0xBDB JUMP JUMPDEST PUSH1 0x40 MLOAD PUSH3 0x461BCD PUSH1 0xE5 SHL DUP2 MSTORE PUSH1 0x4 DUP2 ADD DUP9 SWAP1 MSTORE PUSH1 0xD DUP2 DUP8 ADD MSTORE PUSH13 0x34B730B1BA34BB3290383630B7 PUSH1 0x99 SHL DUP2 DUP6 ADD MSTORE PUSH1 0x64 SWAP1 REVERT JUMPDEST DUP3 PUSH12 0x34B73B30B634B210383630B7 PUSH1 0xA1 SHL PUSH1 0x64 SWAP3 PUSH1 0xC PUSH1 0x40 MLOAD SWAP4 PUSH3 0x461BCD PUSH1 0xE5 SHL DUP6 MSTORE PUSH1 0x20 PUSH1 0x4 DUP7 ADD MSTORE DUP5 ADD MSTORE DUP3 ADD MSTORE REVERT JUMPDEST POP CALLVALUE PUSH2 0x1C4 JUMPI DUP1 PUSH1 0x3 NOT CALLDATASIZE ADD SLT PUSH2 0x1C4 JUMPI PUSH2 0xE6A PUSH2 0x1CC2 JUMP JUMPDEST PUSH1 0x0 DUP1 SLOAD PUSH1 0x1 PUSH1 0x1 PUSH1 0xA0 SHL SUB NOT DUP2 AND DUP3 SSTORE PUSH1 0x1 PUSH1 0x1 PUSH1 0xA0 SHL SUB AND PUSH32 0x8BE0079C531659141344CD1FD0A4F28419497F9722A3DAAFE3B4186F6B6457E0 DUP3 DUP1 LOG3 DUP1 RETURN JUMPDEST POP CALLVALUE PUSH2 0x1C4 JUMPI DUP1 PUSH1 0x3 NOT CALLDATASIZE ADD SLT PUSH2 0x1C4 JUMPI PUSH1 0x20 PUSH1 0x7 SLOAD PUSH1 0x40 MLOAD SWAP1 DUP2 MSTORE RETURN JUMPDEST POP CALLVALUE PUSH2 0x1C4 JUMPI DUP1 PUSH1 0x3 NOT CALLDATASIZE ADD SLT PUSH2 0x1C4 JUMPI PUSH1 0x2 SLOAD PUSH1 0x40 MLOAD PUSH1 0x8 SWAP2 SWAP1 SWAP2 SHR PUSH1 0x1 PUSH1 0x1 PUSH1 0xA0 SHL SUB AND DUP2 MSTORE PUSH1 0x20 SWAP1 RETURN JUMPDEST POP CALLVALUE PUSH2 0x1C4 JUMPI PUSH1 0x20 CALLDATASIZE PUSH1 0x3 NOT ADD SLT PUSH2 0x1C4 JUMPI PUSH1 0x40 SWAP1 PUSH1 0xFF PUSH2 0xF15 PUSH2 0x1A71 JUMP JUMPDEST AND DUP2 MSTORE PUSH1 0x4 PUSH1 0x20 MSTORE KECCAK256 DUP1 SLOAD PUSH2 0xF51 PUSH1 0xFF PUSH1 0x2 PUSH1 0x1 DUP6 ADD SLOAD SWAP5 ADD SLOAD AND PUSH1 0x40 MLOAD SWAP4 DUP5 SWAP4 DUP5 SWAP2 SWAP3 PUSH1 0x40 SWAP2 SWAP5 SWAP4 PUSH1 0x60 DUP5 ADD SWAP6 DUP5 MSTORE PUSH1 0x20 DUP5 ADD MSTORE ISZERO ISZERO SWAP2 ADD MSTORE JUMP JUMPDEST SUB SWAP1 RETURN JUMPDEST POP CALLVALUE PUSH2 0x1C4 JUMPI DUP1 PUSH1 0x3 NOT CALLDATASIZE ADD SLT PUSH2 0x1C4 JUMPI PUSH1 0x20 PUSH1 0xFF PUSH1 0x2 SLOAD AND PUSH1 0x40 MLOAD SWAP1 ISZERO ISZERO DUP2 MSTORE RETURN JUMPDEST POP CALLVALUE PUSH2 0x1C4 JUMPI DUP1 PUSH1 0x3 NOT CALLDATASIZE ADD SLT PUSH2 0x1C4 JUMPI PUSH1 0x20 PUSH1 0x40 MLOAD PUSH1 0x6 DUP2 MSTORE RETURN JUMPDEST POP CALLVALUE PUSH2 0x1C4 JUMPI DUP1 PUSH1 0x3 NOT CALLDATASIZE ADD SLT PUSH2 0x1C4 JUMPI PUSH1 0x20 PUSH1 0x40 MLOAD PUSH1 0x2 DUP2 MSTORE RETURN JUMPDEST POP CALLVALUE PUSH2 0x1C4 JUMPI DUP1 PUSH1 0x3 NOT CALLDATASIZE ADD SLT PUSH2 0x1C4 JUMPI PUSH1 0x20 PUSH1 0x40 MLOAD PUSH1 0x1 DUP2 MSTORE RETURN JUMPDEST POP CALLVALUE PUSH2 0x1C4 JUMPI PUSH1 0x60 CALLDATASIZE PUSH1 0x3 NOT ADD SLT PUSH2 0x1C4 JUMPI PUSH8 0xFFFFFFFFFFFFFFFF PUSH1 0x4 CALLDATALOAD DUP2 DUP2 GT PUSH2 0x68A JUMPI PUSH2 0xFFF SWAP1 CALLDATASIZE SWAP1 PUSH1 0x4 ADD PUSH2 0x1A40 JUMP JUMPDEST PUSH1 0x24 SWAP3 SWAP2 SWAP3 CALLDATALOAD DUP3 DUP2 GT PUSH2 0x1284 JUMPI PUSH2 0x101A SWAP1 CALLDATASIZE SWAP1 PUSH1 0x4 ADD PUSH2 0x1A40 JUMP JUMPDEST SWAP4 SWAP1 SWAP3 PUSH1 0x44 CALLDATALOAD SWAP1 DUP2 GT PUSH2 0x443 JUMPI PUSH2 0x1035 SWAP1 CALLDATASIZE SWAP1 PUSH1 0x4 ADD PUSH2 0x19CB JUMP JUMPDEST SWAP5 SWAP1 PUSH2 0x103F PUSH2 0x1C48 JUMP JUMPDEST PUSH2 0x1047 PUSH2 0x1C66 JUMP JUMPDEST PUSH1 0x3 SLOAD PUSH1 0x1 PUSH1 0x1 PUSH1 0xA0 SHL SUB AND CALLER EQ DUP1 ISZERO PUSH2 0x1271 JUMPI JUMPDEST PUSH2 0x1065 SWAP1 PUSH2 0x1B13 JUMP JUMPDEST DUP2 DUP5 SUB PUSH2 0x123D JUMPI DUP7 JUMPDEST DUP5 DUP2 LT PUSH2 0x1132 JUMPI POP PUSH1 0x40 MLOAD SWAP4 DUP1 PUSH1 0x60 DUP7 ADD PUSH1 0x60 DUP8 MSTORE MSTORE PUSH1 0x80 DUP6 ADD SWAP4 SWAP1 DUP9 SWAP1 JUMPDEST DUP1 DUP3 LT PUSH2 0x1108 JUMPI POP POP POP DUP4 DUP4 SUB PUSH1 0x20 DUP6 ADD MSTORE DUP2 DUP4 MSTORE PUSH1 0x1 PUSH1 0x1 PUSH1 0xFB SHL SUB DUP3 GT PUSH2 0x1104 JUMPI PUSH32 0x680EA85A3F5AD923BD6047F68FA5F8840A2804E621C1D9A5E0D9C6ADD87204C6 SWAP5 DUP5 SWAP4 PUSH2 0x10FA SWAP4 PUSH1 0x5 SHL DUP1 SWAP3 PUSH1 0x20 DUP4 ADD CALLDATACOPY ADD SWAP6 PUSH1 0x20 DUP5 DUP9 SUB ADD PUSH1 0x40 DUP6 ADD MSTORE PUSH1 0x20 CALLER SWAP8 ADD SWAP2 PUSH2 0x1AF2 JUMP JUMPDEST SUB SWAP1 LOG2 PUSH1 0x1 DUP1 SSTORE DUP1 RETURN JUMPDEST DUP7 DUP1 REVERT JUMPDEST SWAP1 SWAP2 SWAP5 DUP6 CALLDATALOAD SWAP1 PUSH1 0x1 DUP1 PUSH1 0xA0 SHL SUB DUP3 AND DUP1 SWAP3 SUB PUSH2 0x818 JUMPI PUSH1 0x1 SWAP2 DUP2 MSTORE PUSH1 0x20 DUP1 SWAP2 ADD SWAP7 ADD SWAP3 ADD SWAP1 PUSH2 0x108D JUMP JUMPDEST PUSH2 0x113D DUP2 DUP7 DUP7 PUSH2 0x1BF0 JUMP JUMPDEST CALLDATALOAD PUSH1 0x1 PUSH1 0x1 PUSH1 0xA0 SHL SUB DUP2 AND DUP2 SUB PUSH2 0x1239 JUMPI PUSH2 0x1159 DUP3 DUP6 DUP10 PUSH2 0x1BF0 JUMP JUMPDEST CALLDATALOAD PUSH1 0x1 PUSH1 0x1 PUSH1 0xA0 SHL SUB DUP3 AND ISZERO DUP1 ISZERO PUSH2 0x1231 JUMPI JUMPDEST PUSH2 0x1227 JUMPI PUSH1 0x1 PUSH1 0x1 PUSH1 0xA0 SHL SUB DUP3 AND DUP11 MSTORE PUSH1 0x6 PUSH1 0x20 SWAP1 DUP2 MSTORE PUSH1 0x40 DUP12 KECCAK256 DUP1 SLOAD PUSH2 0x1194 SWAP1 DUP5 SWAP1 PUSH2 0x1ACF JUMP JUMPDEST SWAP1 SSTORE PUSH1 0x1 PUSH1 0x1 PUSH1 0xA0 SHL SUB DUP4 AND DUP12 MSTORE PUSH1 0x8 DUP2 MSTORE PUSH1 0x40 DUP12 KECCAK256 DUP1 SLOAD PUSH1 0x1 DUP2 ADD DUP2 GT PUSH2 0x1213 JUMPI PUSH1 0x1 SWAP6 SWAP5 SWAP4 SWAP3 PUSH2 0x1209 DUP14 DUP16 PUSH1 0x40 SWAP1 PUSH1 0x0 DUP1 MLOAD PUSH1 0x20 PUSH2 0x1D09 DUP4 CODECOPY DUP2 MLOAD SWAP2 MSTORE SWAP7 DUP12 DUP14 SWAP8 ADD SWAP1 SSTORE DUP11 DUP1 PUSH1 0xA0 SHL SUB DUP10 AND DUP2 MSTORE PUSH1 0x6 DUP6 MSTORE PUSH1 0x8 DUP3 DUP3 KECCAK256 SLOAD SWAP6 MSTORE KECCAK256 SLOAD SWAP1 PUSH1 0x40 MLOAD SWAP5 DUP6 SWAP5 CALLER SWAP10 DUP13 DUP1 PUSH1 0xA0 SHL SUB AND SWAP9 DUP7 PUSH2 0x1BC8 JUMP JUMPDEST SUB SWAP1 LOG3 JUMPDEST ADD PUSH2 0x106E JUMP JUMPDEST PUSH4 0x4E487B71 PUSH1 0xE0 SHL DUP14 MSTORE PUSH1 0x11 PUSH1 0x4 MSTORE PUSH1 0x24 DUP14 REVERT JUMPDEST POP POP PUSH1 0x1 SWAP1 PUSH2 0x120D JUMP JUMPDEST POP DUP1 ISZERO PUSH2 0x116C JUMP JUMPDEST DUP9 DUP1 REVERT JUMPDEST PUSH1 0x40 MLOAD PUSH3 0x461BCD PUSH1 0xE5 SHL DUP2 MSTORE PUSH1 0x20 PUSH1 0x4 DUP3 ADD MSTORE PUSH1 0xC PUSH1 0x24 DUP3 ADD MSTORE PUSH12 0xD8CADC40DAD2E6DAC2E8C6D PUSH1 0xA3 SHL PUSH1 0x44 DUP3 ADD MSTORE PUSH1 0x64 SWAP1 REVERT JUMPDEST POP DUP7 SLOAD PUSH1 0x1 PUSH1 0x1 PUSH1 0xA0 SHL SUB AND CALLER EQ PUSH2 0x105C JUMP JUMPDEST DUP5 DUP1 REVERT JUMPDEST POP CALLVALUE PUSH2 0x1C4 JUMPI DUP1 PUSH1 0x3 NOT CALLDATASIZE ADD SLT PUSH2 0x1C4 JUMPI PUSH2 0x12A1 PUSH2 0x1C48 JUMP JUMPDEST PUSH2 0x12A9 PUSH2 0x1C66 JUMP JUMPDEST CALLER DUP2 MSTORE PUSH1 0x20 PUSH1 0x5 DUP2 MSTORE PUSH1 0x40 DUP3 KECCAK256 PUSH1 0x3 PUSH1 0x40 MLOAD SWAP2 PUSH2 0x12C5 DUP4 PUSH2 0x1A81 JUMP JUMPDEST PUSH1 0xFF DUP2 SLOAD AND DUP4 MSTORE PUSH1 0x1 DUP2 ADD SLOAD DUP5 DUP5 ADD MSTORE PUSH1 0x2 DUP2 ADD SLOAD PUSH1 0x40 DUP5 ADD MSTORE ADD SLOAD DUP1 PUSH1 0x60 DUP4 ADD MSTORE PUSH1 0x3 PUSH1 0x40 MLOAD SWAP2 PUSH2 0x12F6 DUP4 PUSH2 0x1A81 JUMP JUMPDEST DUP6 DUP4 MSTORE DUP5 DUP4 ADD DUP7 DUP2 MSTORE PUSH1 0x40 DUP5 ADD SWAP1 DUP8 DUP3 MSTORE PUSH1 0x60 DUP6 ADD SWAP3 DUP4 MSTORE CALLER DUP9 MSTORE PUSH1 0x5 DUP8 MSTORE PUSH1 0xFF PUSH1 0x40 DUP10 KECCAK256 SWAP6 MLOAD AND PUSH1 0xFF NOT DUP7 SLOAD AND OR DUP6 SSTORE MLOAD PUSH1 0x1 DUP6 ADD SSTORE MLOAD PUSH1 0x2 DUP5 ADD SSTORE MLOAD SWAP2 ADD SSTORE PUSH1 0x8 DUP3 MSTORE PUSH1 0x40 DUP4 KECCAK256 DUP1 SLOAD SWAP1 PUSH1 0x1 DUP3 ADD DUP1 SWAP3 GT PUSH2 0x1399 JUMPI SWAP1 PUSH1 0xFF SWAP3 SWAP2 SSTORE MLOAD AND SWAP1 CALLER DUP4 MSTORE PUSH1 0x8 DUP2 MSTORE PUSH1 0x40 DUP4 KECCAK256 SLOAD PUSH1 0x40 MLOAD SWAP2 TIMESTAMP DUP4 MSTORE DUP3 ADD MSTORE PUSH32 0x125AE8F3AA4776E7C3DB6128997F6ED5961D8111A28209E92D95102C1F4008A0 PUSH1 0x40 CALLER SWAP3 LOG3 PUSH1 0x1 DUP1 SSTORE DUP1 RETURN JUMPDEST PUSH4 0x4E487B71 PUSH1 0xE0 SHL DUP6 MSTORE PUSH1 0x11 PUSH1 0x4 MSTORE PUSH1 0x24 DUP6 REVERT JUMPDEST POP CALLVALUE PUSH2 0x1C4 JUMPI PUSH2 0x13BC CALLDATASIZE PUSH2 0x19F9 JUMP JUMPDEST SWAP2 SWAP3 PUSH2 0x13C6 PUSH2 0x1CC2 JUMP JUMPDEST PUSH2 0x13CE PUSH2 0x1C48 JUMP JUMPDEST PUSH2 0x13D6 PUSH2 0x1C66 JUMP JUMPDEST PUSH1 0x1 PUSH1 0x1 PUSH1 0xA0 SHL SUB AND SWAP2 PUSH2 0x13EB DUP4 ISZERO ISZERO PUSH2 0x1B56 JUMP JUMPDEST DUP3 DUP6 MSTORE PUSH1 0x6 PUSH1 0x20 MSTORE DUP4 PUSH1 0x40 DUP7 KECCAK256 SSTORE PUSH1 0x8 PUSH1 0x20 MSTORE PUSH1 0x40 DUP6 KECCAK256 DUP1 SLOAD SWAP1 PUSH1 0x1 DUP3 ADD DUP1 SWAP3 GT PUSH2 0x8F2 JUMPI SWAP1 PUSH1 0x0 DUP1 MLOAD PUSH1 0x20 PUSH2 0x1D09 DUP4 CODECOPY DUP2 MLOAD SWAP2 MSTORE SWAP4 SWAP3 SWAP2 SSTORE DUP4 DUP7 MSTORE PUSH1 0x6 PUSH1 0x20 MSTORE PUSH2 0x8E8 PUSH1 0x40 DUP8 KECCAK256 SLOAD SWAP2 PUSH1 0x8 PUSH1 0x20 MSTORE PUSH1 0x40 DUP9 KECCAK256 SLOAD SWAP1 PUSH1 0x40 MLOAD SWAP5 DUP6 SWAP5 CALLER SWAP10 DUP7 PUSH2 0x1BC8 JUMP JUMPDEST POP CALLVALUE PUSH2 0x1C4 JUMPI PUSH2 0x145D CALLDATASIZE PUSH2 0x19F9 JUMP JUMPDEST SWAP2 SWAP3 PUSH2 0x1467 PUSH2 0x1C48 JUMP JUMPDEST PUSH2 0x146F PUSH2 0x1C66 JUMP JUMPDEST PUSH1 0x3 SLOAD PUSH1 0x1 PUSH1 0x1 PUSH1 0xA0 SHL SUB SWAP2 SWAP1 DUP3 AND CALLER EQ DUP1 ISZERO PUSH2 0x149D JUMPI JUMPDEST PUSH2 0x1490 SWAP1 PUSH2 0x1B13 JUMP JUMPDEST AND SWAP2 PUSH2 0x86C DUP4 ISZERO ISZERO PUSH2 0x1B56 JUMP JUMPDEST POP DUP6 SLOAD DUP3 AND CALLER EQ PUSH2 0x1487 JUMP JUMPDEST POP CALLVALUE PUSH2 0x1C4 JUMPI PUSH1 0x60 CALLDATASIZE PUSH1 0x3 NOT ADD SLT PUSH2 0x1C4 JUMPI PUSH8 0xFFFFFFFFFFFFFFFF PUSH1 0x4 CALLDATALOAD DUP2 DUP2 GT PUSH2 0x68A JUMPI PUSH2 0x14DC SWAP1 CALLDATASIZE SWAP1 PUSH1 0x4 ADD PUSH2 0x19CB JUMP JUMPDEST SWAP1 SWAP2 PUSH1 0x24 DUP1 CALLDATALOAD SWAP5 PUSH1 0x44 CALLDATALOAD DUP4 DUP2 GT PUSH2 0x510 JUMPI PUSH2 0x14FB SWAP1 CALLDATASIZE SWAP1 PUSH1 0x4 ADD PUSH2 0x19CB JUMP JUMPDEST SWAP3 SWAP1 SWAP2 PUSH2 0x1506 PUSH2 0x1C48 JUMP JUMPDEST PUSH2 0x150E PUSH2 0x1C66 JUMP JUMPDEST DUP8 ISZERO PUSH2 0x194C JUMPI DUP5 DUP7 GT PUSH2 0x193B JUMPI PUSH1 0x40 MLOAD SWAP5 PUSH1 0x1F DUP8 ADD PUSH1 0x1F NOT SWAP1 DUP2 AND PUSH1 0x3F ADD AND DUP7 ADD SWAP1 DUP2 GT DUP7 DUP3 LT OR PUSH2 0x1929 JUMPI PUSH1 0x40 MSTORE DUP6 DUP6 MSTORE PUSH1 0x20 SWAP5 DUP6 DUP2 ADD SWAP1 CALLDATASIZE DUP9 DUP11 ADD GT PUSH2 0x68A JUMPI DUP8 DUP10 DUP4 CALLDATACOPY DUP1 DUP9 ADD DUP8 ADD DUP4 SWAP1 MSTORE MLOAD SWAP1 KECCAK256 DUP2 SWAP1 PUSH32 0xA542BEBE0BE4EE37844E1023969DCDF99C908139F19A527065FF05D1A0AC2E34 DUP2 SUB PUSH2 0x1808 JUMPI POP SWAP8 DUP1 JUMPDEST CALLER DUP11 MSTORE PUSH1 0x5 DUP8 MSTORE PUSH1 0x40 DUP11 KECCAK256 SWAP4 DUP11 DUP12 SWAP5 DUP13 PUSH1 0xFF DUP9 SLOAD AND PUSH2 0x17A3 JUMPI JUMPDEST POP POP ISZERO SWAP3 DUP4 PUSH2 0x167A JUMPI JUMPDEST POP CALLER DUP12 MSTORE PUSH1 0x8 DUP9 MSTORE PUSH1 0x40 DUP12 KECCAK256 DUP1 SLOAD SWAP2 PUSH1 0x1 DUP4 ADD DUP1 SWAP4 GT PUSH2 0x1668 JUMPI POP SWAP3 PUSH2 0x164E SWAP8 SWAP6 SWAP3 PUSH32 0x9CD6FBA6849D16F1246008292851AB41E61963E83F8314BE6BE8EFD0C3F8D3C8 SWAP11 SWAP10 SWAP8 SWAP6 SWAP3 DUP14 SWAP6 SSTORE PUSH2 0x1628 PUSH1 0x40 PUSH1 0x2 PUSH1 0xFF DUP8 SLOAD AND SWAP7 ADD SLOAD SWAP7 CALLER DUP2 MSTORE PUSH1 0x8 DUP12 MSTORE KECCAK256 SLOAD SWAP13 PUSH1 0x40 MLOAD SWAP12 DUP13 PUSH2 0x120 DUP1 SWAP2 MSTORE DUP14 ADD SWAP2 PUSH2 0x1AF2 JUMP JUMPDEST SWAP8 DUP11 ADD MSTORE ISZERO PUSH1 0x40 DUP10 ADD MSTORE PUSH1 0x60 DUP9 ADD MSTORE PUSH1 0x80 DUP8 ADD MSTORE PUSH1 0xA0 DUP7 ADD MSTORE DUP5 DUP4 SUB PUSH1 0xC0 DUP7 ADD MSTORE PUSH2 0x1AF2 JUMP JUMPDEST SWAP3 TIMESTAMP PUSH1 0xE0 DUP4 ADD MSTORE PUSH2 0x100 DUP3 ADD MSTORE DUP1 CALLER SWAP4 SUB SWAP1 LOG2 PUSH1 0x1 DUP1 SSTORE DUP1 RETURN JUMPDEST PUSH4 0x4E487B71 PUSH1 0xE0 SHL DUP14 MSTORE PUSH1 0x11 PUSH1 0x4 MSTORE DUP13 REVERT JUMPDEST SWAP4 POP CALLER DUP12 MSTORE PUSH1 0x6 DUP9 MSTORE DUP4 PUSH1 0x40 DUP13 KECCAK256 SLOAD LT PUSH2 0x1769 JUMPI CALLER DUP12 MSTORE PUSH1 0x6 DUP9 MSTORE PUSH1 0x40 DUP12 KECCAK256 DUP1 SLOAD SWAP1 DUP6 DUP3 SUB SWAP2 DUP3 GT PUSH2 0x1756 JUMPI SSTORE DUP4 CALLER DUP13 MSTORE PUSH1 0x8 DUP10 MSTORE PUSH1 0x40 DUP13 KECCAK256 DUP1 SLOAD SWAP1 PUSH1 0x1 DUP3 ADD DUP1 SWAP3 GT PUSH2 0x1743 JUMPI SSTORE PUSH1 0x1 PUSH1 0xFF SHL DUP2 EQ PUSH2 0x1730 JUMPI DUP12 SWAP1 CALLER DUP3 MSTORE PUSH1 0x6 DUP11 MSTORE PUSH1 0x40 DUP3 KECCAK256 SLOAD PUSH1 0x8 DUP12 MSTORE PUSH1 0x40 DUP4 KECCAK256 SLOAD SWAP2 PUSH1 0x40 MLOAD SWAP4 SUB DUP4 MSTORE DUP11 DUP4 ADD MSTORE PUSH1 0x80 PUSH1 0x40 DUP4 ADD MSTORE PUSH1 0x8 PUSH1 0x80 DUP4 ADD MSTORE PUSH8 0x18DBDB9CDD5B5959 PUSH1 0xC2 SHL PUSH1 0xA0 DUP4 ADD MSTORE PUSH1 0x60 DUP3 ADD MSTORE CALLER SWAP1 PUSH1 0x0 DUP1 MLOAD PUSH1 0x20 PUSH2 0x1D09 DUP4 CODECOPY DUP2 MLOAD SWAP2 MSTORE PUSH1 0xC0 CALLER SWAP3 LOG3 CODESIZE PUSH2 0x15B0 JUMP JUMPDEST POP PUSH4 0x4E487B71 PUSH1 0xE0 SHL DUP12 MSTORE PUSH1 0x11 PUSH1 0x4 MSTORE DUP11 REVERT JUMPDEST PUSH4 0x4E487B71 PUSH1 0xE0 SHL DUP15 MSTORE PUSH1 0x11 PUSH1 0x4 MSTORE DUP4 DUP15 REVERT JUMPDEST PUSH4 0x4E487B71 PUSH1 0xE0 SHL DUP14 MSTORE PUSH1 0x11 PUSH1 0x4 MSTORE DUP3 DUP14 REVERT JUMPDEST DUP8 PUSH1 0x14 PUSH1 0x64 SWAP3 PUSH1 0x40 MLOAD SWAP3 PUSH3 0x461BCD PUSH1 0xE5 SHL DUP5 MSTORE PUSH1 0x4 DUP5 ADD MSTORE DUP3 ADD MSTORE PUSH20 0x696E73756666696369656E742063726564697473 PUSH1 0x60 SHL PUSH1 0x44 DUP3 ADD MSTORE REVERT JUMPDEST PUSH1 0x40 PUSH1 0x1 SWAP2 PUSH2 0x17B1 DUP11 PUSH2 0x1C89 JUMP JUMPDEST DUP10 SLOAD PUSH1 0xFF AND DUP2 MSTORE PUSH1 0x4 DUP14 MSTORE KECCAK256 ADD SLOAD SWAP1 ISZERO PUSH2 0x1803 JUMPI POP PUSH1 0x7 SLOAD JUMPDEST DUP4 PUSH1 0x2 DUP9 ADD SWAP2 DUP3 SLOAD SWAP1 PUSH2 0x17DD DUP4 DUP4 PUSH2 0x1ACF JUMP JUMPDEST GT ISZERO PUSH2 0x17EC JUMPI JUMPDEST POP POP DUP13 PUSH2 0x15A6 JUMP JUMPDEST PUSH2 0x17F7 SWAP3 SWAP4 POP PUSH2 0x1ACF JUMP JUMPDEST SWAP1 SSTORE PUSH1 0x1 CODESIZE DUP4 DUP2 PUSH2 0x17E4 JUMP JUMPDEST PUSH2 0x17CA JUMP JUMPDEST SWAP1 SWAP9 SWAP1 PUSH32 0x13F2570A4F3752E83E37FF7E082B475A97035FF53694EE2548F36573F6A5D8BC DUP2 SUB PUSH2 0x1860 JUMPI POP PUSH1 0x1 PUSH1 0x1 PUSH1 0xFF SHL SUB DUP2 AND DUP2 SUB PUSH2 0x184D JUMPI DUP1 PUSH1 0x1 SHL SWAP1 PUSH2 0x158C JUMP JUMPDEST PUSH4 0x4E487B71 PUSH1 0xE0 SHL DUP10 MSTORE PUSH1 0x11 PUSH1 0x4 MSTORE DUP3 DUP10 REVERT JUMPDEST SWAP1 SWAP2 POP PUSH32 0x6ACEE816911C8B201D626C97A6109AC30872B8D1E1CD2519FBBC76BD470E317 DUP2 SUB PUSH2 0x18BA JUMPI POP PUSH1 0x1 PUSH1 0x1 PUSH1 0xFE SHL SUB DUP2 AND DUP2 SUB PUSH2 0x18A7 JUMPI DUP1 PUSH1 0x2 SHL PUSH1 0x1 SWAP2 PUSH2 0x158C JUMP JUMPDEST POP PUSH4 0x4E487B71 PUSH1 0xE0 SHL DUP8 MSTORE PUSH1 0x11 PUSH1 0x4 MSTORE DUP7 REVERT JUMPDEST PUSH32 0xA9E20C07CDD8B05626D64C2769119A44D268C6D5BBD1F700ADE7E878B859A852 SUB PUSH2 0x18F6 JUMPI DUP1 PUSH1 0x6 MUL PUSH1 0x6 DUP2 DIV DUP3 SUB PUSH2 0x184D JUMPI PUSH1 0x1 SWAP2 PUSH2 0x158C JUMP JUMPDEST PUSH1 0x40 MLOAD PUSH3 0x461BCD PUSH1 0xE5 SHL DUP2 MSTORE PUSH1 0x4 DUP2 ADD DUP7 SWAP1 MSTORE PUSH1 0xC DUP2 DUP5 ADD MSTORE PUSH12 0x756E6B6E6F776E206D6F6465 PUSH1 0xA0 SHL PUSH1 0x44 DUP3 ADD MSTORE PUSH1 0x64 SWAP1 REVERT JUMPDEST POP PUSH4 0x4E487B71 PUSH1 0xE0 SHL DUP2 MSTORE PUSH1 0x41 PUSH1 0x4 MSTORE REVERT JUMPDEST PUSH4 0x4E487B71 PUSH1 0xE0 SHL DUP2 MSTORE PUSH1 0x41 PUSH1 0x4 MSTORE REVERT JUMPDEST PUSH1 0x40 MLOAD PUSH3 0x461BCD PUSH1 0xE5 SHL DUP2 MSTORE PUSH1 0x20 PUSH1 0x4 DUP3 ADD MSTORE PUSH1 0xC DUP2 DUP5 ADD MSTORE PUSH12 0x7175616E74697479203E203 PUSH1 0xA4 SHL PUSH1 0x44 DUP3 ADD MSTORE PUSH1 0x64 SWAP1 REVERT JUMPDEST SWAP1 POP CALLVALUE PUSH2 0x510 JUMPI PUSH1 0x20 CALLDATASIZE PUSH1 0x3 NOT ADD SLT PUSH2 0x510 JUMPI PUSH1 0x20 SWAP2 PUSH1 0x40 SWAP1 PUSH1 0x1 PUSH1 0x1 PUSH1 0xA0 SHL SUB PUSH2 0x19A8 PUSH2 0x19B5 JUMP JUMPDEST AND DUP2 MSTORE PUSH1 0x8 DUP5 MSTORE KECCAK256 SLOAD DUP2 MSTORE RETURN JUMPDEST PUSH1 0x4 CALLDATALOAD SWAP1 PUSH1 0x1 PUSH1 0x1 PUSH1 0xA0 SHL SUB DUP3 AND DUP3 SUB PUSH2 0x818 JUMPI JUMP JUMPDEST SWAP2 DUP2 PUSH1 0x1F DUP5 ADD SLT ISZERO PUSH2 0x818 JUMPI DUP3 CALLDATALOAD SWAP2 PUSH8 0xFFFFFFFFFFFFFFFF DUP4 GT PUSH2 0x818 JUMPI PUSH1 0x20 DUP4 DUP2 DUP7 ADD SWAP6 ADD ADD GT PUSH2 0x818 JUMPI JUMP JUMPDEST PUSH1 0x60 PUSH1 0x3 NOT DUP3 ADD SLT PUSH2 0x818 JUMPI PUSH1 0x4 CALLDATALOAD PUSH1 0x1 PUSH1 0x1 PUSH1 0xA0 SHL SUB DUP2 AND DUP2 SUB PUSH2 0x818 JUMPI SWAP2 PUSH1 0x24 CALLDATALOAD SWAP2 PUSH1 0x44 CALLDATALOAD SWAP1 PUSH8 0xFFFFFFFFFFFFFFFF DUP3 GT PUSH2 0x818 JUMPI PUSH2 0x1A3C SWAP2 PUSH1 0x4 ADD PUSH2 0x19CB JUMP JUMPDEST SWAP1 SWAP2 JUMP JUMPDEST SWAP2 DUP2 PUSH1 0x1F DUP5 ADD SLT ISZERO PUSH2 0x818 JUMPI DUP3 CALLDATALOAD SWAP2 PUSH8 0xFFFFFFFFFFFFFFFF DUP4 GT PUSH2 0x818 JUMPI PUSH1 0x20 DUP1 DUP6 ADD SWAP5 DUP5 PUSH1 0x5 SHL ADD ADD GT PUSH2 0x818 JUMPI JUMP JUMPDEST PUSH1 0x4 CALLDATALOAD SWAP1 PUSH1 0xFF DUP3 AND DUP3 SUB PUSH2 0x818 JUMPI JUMP JUMPDEST PUSH1 0x80 DUP2 ADD SWAP1 DUP2 LT PUSH8 0xFFFFFFFFFFFFFFFF DUP3 GT OR PUSH2 0x1A9D JUMPI PUSH1 0x40 MSTORE JUMP JUMPDEST PUSH4 0x4E487B71 PUSH1 0xE0 SHL PUSH1 0x0 MSTORE PUSH1 0x41 PUSH1 0x4 MSTORE PUSH1 0x24 PUSH1 0x0 REVERT JUMPDEST PUSH1 0x60 DUP2 ADD SWAP1 DUP2 LT PUSH8 0xFFFFFFFFFFFFFFFF DUP3 GT OR PUSH2 0x1A9D JUMPI PUSH1 0x40 MSTORE JUMP JUMPDEST SWAP2 SWAP1 DUP3 ADD DUP1 SWAP3 GT PUSH2 0x1ADC JUMPI JUMP JUMPDEST PUSH4 0x4E487B71 PUSH1 0xE0 SHL PUSH1 0x0 MSTORE PUSH1 0x11 PUSH1 0x4 MSTORE PUSH1 0x24 PUSH1 0x0 REVERT JUMPDEST SWAP1 DUP1 PUSH1 0x20 SWAP4 SWAP3 DUP2 DUP5 MSTORE DUP5 DUP5 ADD CALLDATACOPY PUSH1 0x0 DUP3 DUP3 ADD DUP5 ADD MSTORE PUSH1 0x1F ADD PUSH1 0x1F NOT AND ADD ADD SWAP1 JUMP JUMPDEST ISZERO PUSH2 0x1B1A JUMPI JUMP JUMPDEST PUSH1 0x40 MLOAD PUSH3 0x461BCD PUSH1 0xE5 SHL DUP2 MSTORE PUSH1 0x20 PUSH1 0x4 DUP3 ADD MSTORE PUSH1 0x14 PUSH1 0x24 DUP3 ADD MSTORE PUSH20 0x37B7363C9037B930B1B6329037B91037BBB732B9 PUSH1 0x61 SHL PUSH1 0x44 DUP3 ADD MSTORE PUSH1 0x64 SWAP1 REVERT JUMPDEST ISZERO PUSH2 0x1B5D JUMPI JUMP JUMPDEST PUSH1 0x40 MLOAD PUSH3 0x461BCD PUSH1 0xE5 SHL DUP2 MSTORE PUSH1 0x20 PUSH1 0x4 DUP3 ADD MSTORE PUSH1 0x9 PUSH1 0x24 DUP3 ADD MSTORE PUSH9 0x3D32B937903AB9B2B9 PUSH1 0xB9 SHL PUSH1 0x44 DUP3 ADD MSTORE PUSH1 0x64 SWAP1 REVERT JUMPDEST ISZERO PUSH2 0x1B95 JUMPI JUMP JUMPDEST PUSH1 0x40 MLOAD PUSH3 0x461BCD PUSH1 0xE5 SHL DUP2 MSTORE PUSH1 0x20 PUSH1 0x4 DUP3 ADD MSTORE PUSH1 0xB PUSH1 0x24 DUP3 ADD MSTORE PUSH11 0x1E995C9BC8185B5BDD5B9D PUSH1 0xAA SHL PUSH1 0x44 DUP3 ADD MSTORE PUSH1 0x64 SWAP1 REVERT JUMPDEST SWAP6 SWAP5 SWAP4 PUSH2 0x1BEB SWAP3 PUSH1 0x60 SWAP5 SWAP3 DUP9 MSTORE PUSH1 0x20 DUP9 ADD MSTORE PUSH1 0x80 PUSH1 0x40 DUP9 ADD MSTORE PUSH1 0x80 DUP8 ADD SWAP2 PUSH2 0x1AF2 JUMP JUMPDEST SWAP4 ADD MSTORE JUMP JUMPDEST SWAP2 SWAP1 DUP2 LT ISZERO PUSH2 0x1C00 JUMPI PUSH1 0x5 SHL ADD SWAP1 JUMP JUMPDEST PUSH4 0x4E487B71 PUSH1 0xE0 SHL PUSH1 0x0 MSTORE PUSH1 0x32 PUSH1 0x4 MSTORE PUSH1 0x24 PUSH1 0x0 REVERT JUMPDEST ISZERO PUSH2 0x1C1D JUMPI JUMP JUMPDEST PUSH1 0x64 PUSH1 0x40 MLOAD PUSH3 0x461BCD PUSH1 0xE5 SHL DUP2 MSTORE PUSH1 0x20 PUSH1 0x4 DUP3 ADD MSTORE PUSH1 0x4 PUSH1 0x24 DUP3 ADD MSTORE PUSH4 0x7A65726F PUSH1 0xE0 SHL PUSH1 0x44 DUP3 ADD MSTORE REVERT JUMPDEST PUSH1 0xFF PUSH1 0x2 SLOAD AND PUSH2 0x1C54 JUMPI JUMP JUMPDEST PUSH1 0x40 MLOAD PUSH4 0xD93C0665 PUSH1 0xE0 SHL DUP2 MSTORE PUSH1 0x4 SWAP1 REVERT JUMPDEST PUSH1 0x2 PUSH1 0x1 SLOAD EQ PUSH2 0x1C77 JUMPI PUSH1 0x2 PUSH1 0x1 SSTORE JUMP JUMPDEST PUSH1 0x40 MLOAD PUSH4 0x3EE5AEB5 PUSH1 0xE0 SHL DUP2 MSTORE PUSH1 0x4 SWAP1 REVERT JUMPDEST PUSH1 0x1 DUP2 ADD SWAP1 DUP2 SLOAD DUP1 ISZERO PUSH2 0x1CBD JUMPI PUSH2 0x1C9F SWAP1 PUSH2 0x1CEE JUMP JUMPDEST PUSH2 0x1CA8 TIMESTAMP PUSH2 0x1CEE JUMP JUMPDEST GT PUSH2 0x1CB1 JUMPI POP POP JUMP JUMPDEST PUSH1 0x2 PUSH1 0x0 SWAP2 ADD SSTORE TIMESTAMP SWAP1 SSTORE JUMP JUMPDEST POP POP POP JUMP JUMPDEST PUSH1 0x0 SLOAD PUSH1 0x1 PUSH1 0x1 PUSH1 0xA0 SHL SUB AND CALLER SUB PUSH2 0x1CD6 JUMPI JUMP JUMPDEST PUSH1 0x40 MLOAD PUSH4 0x118CDAA7 PUSH1 0xE0 SHL DUP2 MSTORE CALLER PUSH1 0x4 DUP3 ADD MSTORE PUSH1 0x24 SWAP1 REVERT JUMPDEST PUSH3 0x278D00 DUP1 SWAP2 DIV DUP2 DUP2 MUL SWAP2 DUP2 DUP4 DIV EQ SWAP1 ISZERO OR ISZERO PUSH2 0x1ADC JUMPI SWAP1 JUMP INVALID CREATE2 0xE2 PUSH11 0x8996052BC96871DAB1BCBC PUSH24 0x75D5224315ACE309A7B58079AEFAD6B13FA2646970667358 0x22 SLT KECCAK256 0xEA 0x1E 0xD8 0x21 PUSH7 0x72D5DE5D8A07CE 0x25 PUSH20 0xE7D463A33FA06BDE23D0ECEAB4692E086ADD6473 PUSH16 0x6C634300081800330000000000000000 "
        },
        "methodIdentifiers": {
          "COST_BASIC()": "3ab5be64",
          "COST_FULL()": "5304b102",
          "COST_PRICE_ACCURACY()": "d04c47eb",
          "COST_TAGS()": "48fb6ce7",
          "GLOBAL_PRICE_ACCURACY_CAP()": "6eaeb3e7",
          "USDC()": "89a30271",
          "USDT()": "c54e44eb",
          "awardCredits(address,uint256,string)": "a2dcd9b9",
          "awardCreditsBatch(address[],uint256[],string)": "288dc442",
          "cancelSubscription()": "24e9edb0",
          "credits(address)": "fe5ff468",
          "getUserCredits(address)": "81b26dda",
          "getUserSubscription(address)": "ebbeec08",
          "increaseCredits(address,uint256,string)": "20fb4abd",
          "oracle()": "7dc0d1d0",
          "owner()": "8da5cb5b",
          "ownerMintCredits(address,uint256,string)": "90058a12",
          "paused()": "5c975abb",
          "plans(uint8)": "60a31a88",
          "purchaseSubscriptionWithToken(uint8,address,uint256)": "79898645",
          "renewSubscriptionFor(address,uint8,uint256)": "a9600aa4",
          "renounceOwnership()": "715018a6",
          "requestInference(string,uint256,string)": "17698f41",
          "setCredits(address,uint256,string)": "2276de15",
          "setGlobalPriceAccuracyCap(uint256)": "92efad92",
          "setOracle(address)": "7adbf973",
          "setPlan(uint8,uint256,uint256,bool)": "ee377a4a",
          "setTreasury(address)": "f0f44260",
          "subscriptions(address)": "f046395a",
          "transferOwnership(address)": "f2fde38b",
          "treasury()": "61d027b3",
          "updateUserMemoryPointer(address,string)": "b9fe8903",
          "userSequence(address)": "0b8738d4"
        }
      }
    }
  }
}